:020000040800F2
:1000000000040020D9020008DB020008DB0200081F
:10001000DB020008DB020008DB020008DB0200084C
:10002000DB020008DB020008DB02000801590008BF
:10003000DB020008DB020008DB020008DB0200082C
:10004000DB020008DB020008DB020008DB0200081C
:10005000DB020008DB020008E1400008D141000893
:10006000C1420008B1430008A1440008DB020008B7
:10007000DB020008DB020008DB020008DB020008EC
:10008000DB020008DB020008DB020008DB020008DC
:10009000DB020008DB020008DB02000891450008D3
:1000A000E1470008A148000871490008314A0008EA
:1000B000014B0008DB020008DB020008DB0200083D
:1000C000DB020008DB020008DB020008DB0200089C
:1000D000DB020008DB020008DB020008DB0200088C
:1000E000B1460008DB020008DB020008DB02000862
:1000F000DB020008DB020008DB020008DB0200086C
:10010000DB020008DB020008DB020008DB0200085B
:10011000DB020008DB020008DB020008DB0200084B
:10012000DB020008DB020008DB020008DB0200083B
:10013000DB020008DB020008DB020008DB0200082B
:10014000DB020008DB020008DB020008214D00088A
:10015000DB020008DB020008DB020008DB0200080B
:10016000DB020008DB020008DB020008DB020008FB
:10017000DB020008DB020008DB020008DB020008EB
:10018000DB020008DB020008DB020008DB020008DB
:10019000DB020008DB020008DB020008DB020008CB
:1001A000DB020008DB020008DB020008DB020008BB
:1001B000DB020008DB020008DB020008DB020008AB
:1001C000DB020008DB020008DB020008DB0200089B
:1001D000DB020008DB020008DB020008DB0200088B
:1002000072B6264880F30888254880F30988254877
:1002100025490860022080F31488BFF36F8F03F034
:10022000C7FE04F0D5FF4FF0553020491B4A9142DC
:100230003CBF41F8040BFAE71D49194A91423CBF03
:1002400041F8040BFAE71B491B4A1C4B9A423EBF7C
:1002500051F8040B42F8040BF8E700201849194A3A
:1002600091423CBF41F8040BFAE703F0B9FE03F0FA
:10027000A7FE154C154DAC4203DA54F8041B884711
:10028000F9E705F04DFB124C124DAC4203DA54F87D
:10029000041B8847F9E703F09BBE00000004002020
:1002A000000800200000000808ED00E00000002029
:1002B00000040020F0740008000800202C09002031
:1002C00030090020B81F0020E0010008E00100080C
:1002D000E0010008E001000892E700F000F8FEE706
:1002E0002DE9F04FC1F80CD0C3689D46BDE8F08FF2
:1002F00003F0C6FE002383F311882846A0470020A0
:1003000005F0E6FAFEE703F0A3FE05F069F803F056
:10031000B7FE00DFFEE70000000000000000000064
:10032000A2EB0300704700BF02780B78012A28BFB8
:100330009A42F5D16DE9044540EA0104CDE902672E
:100340006FF0000C4FEA447212B380EA010414F01B
:10035000070F6AD100F0070420F0070004F003053E
:1003600021F007014FEAC505F0E8042314F0040F5B
:10037000F1E804670CFA05F462EA040266EA04068E
:100380000AD063EA0403624667EA0407664603E0AC
:10039000F0E80423F1E8046782FA4CF582EA0604E7
:1003A000A4FA8CF46CBB83FA4CF583EA0705A5FA32
:1003B0008CF595B950E9022351E9026782FA4CF5B0
:1003C00082EA0604A4FA8CF483FA4CF583EA070562
:1003D000A5FA8CF52543DBD09CB92DBAB5FA85F486
:1003E00024F0070427FA04F1DDE9026723FA04F395
:1003F00003F0FF0001F0FF01FDE80445A0EB010060
:10040000704724BAB4FA84F424F0070426FA04F1FD
:10041000DDE9026722FA04F202F0FF0001F0FF01B9
:10042000FDE80445A0EB0100704714F0030F3CD138
:1004300010F0030428D150F8082B51F8083B82FA39
:100440004CF582EA0305A5FA8CF55DB950F8042C49
:1004500051F8043C82FA4CF582EA0305A5FA8CF5C2
:10046000002DE8D02DBAB5FA85F424F0070423FA5C
:1004700004F122FA04F202F0FF0001F0FF01FDE8AE
:100480000445A0EB010070474FEAC40420F00300CC
:1004900050F8082B21F0030151F8083B0CFA04F442
:1004A00062EA040263EA0403C9E710F003041AD005
:1004B000A1EB040120F00300E40750F8042B06D060
:1004C0000FD28B785FFAA2F4E41A06D12BB1CB7865
:1004D0005FFAB2F4E41A00D11BB920465DF8104B64
:1004E000704701F1040150F8042BCC0721F00301FF
:1004F00051F8043B48D824D222F07F4482FA4CF5CC
:1005000094EA1325A5FA8CF50AD165B951F8043B94
:1005100084EA0204B4EB036F0ED150F8042BEBE72E
:100520004FEA132355E035F07F454DD10878FDE8BB
:100530000445C0F1000070474FEA126203F0FF0368
:1005400047E002EA1C4482FA4CF594EA1345A5FA06
:100550008CF50AD165B951F8043B84EA0204B4EB86
:10056000034F0CD150F8042BEBE74FEA134330E074
:1005700015EA1C4528D10B884FEA124229E04FEAC0
:10058000124203EA1C4324E002F0FF0482FA4CF515
:1005900094EA1365A5FA8CF50AD165B951F8043BC4
:1005A00084EA0204B4EB032F09D150F8042BEBE7E3
:1005B0004FEA13630DE015F0FF0F05D10B684FEA0A
:1005C000122223F07F4304E04FF00000FDE80445D1
:1005D000704712BA1BBA82FA4CF482EA0304A4FAF6
:1005E0008CF5B5FA85F402FA04F203FA04F34FEA43
:1005F0001260FDE80445A0EB13607047844641EAB1
:10060000000313F003036DD1403A41D351F8043B8A
:1006100040F8043B51F8043B40F8043B51F8043BDC
:1006200040F8043B51F8043B40F8043B51F8043BCC
:1006300040F8043B51F8043B40F8043B51F8043BBC
:1006400040F8043B51F8043B40F8043B51F8043BAC
:1006500040F8043B51F8043B40F8043B51F8043B9C
:1006600040F8043B51F8043B40F8043B51F8043B8C
:1006700040F8043B51F8043B40F8043B51F8043B7C
:1006800040F8043B51F8043B40F8043B403ABDD2EB
:10069000303211D351F8043B40F8043B51F8043B8D
:1006A00040F8043B51F8043B40F8043B51F8043B4C
:1006B00040F8043B103AEDD20C3205D351F8043B1C
:1006C00040F8043B043AF9D2043208D0D2071CBFE8
:1006D00011F8013B00F8013B01D30B880380604611
:1006E000704700BF082A13D38B078DD010F0030387
:1006F0008AD0C3F10403D21ADB071CBF11F8013BF7
:1007000000F8013B80D331F8023B20F8023B7BE745
:10071000043AD9D3013A11F8013B00F8013BF9D270
:100720000B7803704B7843708B788370604670470A
:1007300000000000000000000000000000000000B9
:1007400090F800F06DE9024520F007016FF0000C11
:1007500010F0070491F820F040F049804FF00004B9
:100760006FF00700D1E9002391F840F000F1080094
:1007700082FA4CF2A4FA8CF283FA4CF3A2FA8CF3CC
:100780004BBBD1E9022382FA4CF200F10800A4FA33
:100790008CF283FA4CF3A2FA8CF3E3B9D1E9042387
:1007A00082FA4CF200F10800A4FA8CF283FA4CF3BE
:1007B000A2FA8CF37BB9D1E9062301F1200182FA78
:1007C0004CF200F10800A4FA8CF283FA4CF3A2FA7E
:1007D0008CF3002BC6D0002A04BF04301A4612BA8C
:1007E000B2FA82F2FDE8024500EBD2007047D1E98F
:1007F000002304F00305C4F100004FEAC50514F01E
:10080000040F91F840F00CFA05F562EA05021CBFEE
:1008100063EA050362464FF00004A9E70000000008
:10082000704700BF00000000000000000000000052
:100830002DE9F04F02F00308C2F34115D609C64670
:1008400000224FF00F0B4FF0010A4FF0030911E0A7
:100850000468234043EA0E03072A03603BD8036A77
:1008600023EA0C033B430362490832D0AD004FEA50
:100870008E0E0132CB07F7D543680AFA02F423EA59
:10088000040343608468530009FA03F324EA030471
:100890008460C46802F0070C24EA03044FEA8C0C5D
:1008A0002C43B8F1020F06FA0CF7C4600BFA0CFCEB
:1008B0006FEA0303CCD1072A13D8046A24EA0C0494
:1008C0003C4304620468234043EA0E034908036082
:1008D000CCD1BDE8F08F436A23EA0C033B4343626B
:1008E000C2E7446A24EA0C043C434462EAE700BFDE
:1008F00000EB810310B4DA6893691C68DC6019B9F5
:10090000402C84BF40241C60538A1268406D02F062
:10091000030C5A1E2244B2FBF3F202FB03F303332F
:1009200023F0030343EAC24300EB411243F0C04308
:10093000BCF1010FC2F8103B0AD009B200EB411024
:1009400010BCD0F8003B43F00443C0F8003B7047B4
:10095000D0F8083800EB411213F4807FD2F8003B46
:1009600014BF43F0805343F0005309B2C2F8003B78
:10097000E4E700BF000000000000000000000000ED
:1009800000EB810310B4DC6862691368D360EBB9D3
:10099000426D02EB41134FF40020C3F810092368A5
:1009A00003F00303012B2BD008B202EB401001230C
:1009B000D0F8004944F00444C0F800498B40D2F814
:1009C000341810BC0B43C2F83438704719B9402BA7
:1009D00084BF40231360B4F810C0426D0CF1FF30A7
:1009E0001844B0FBFCF043EAC04302EB411043F073
:1009F0000053C0F81039236803F00303012BD3D14F
:100A0000D2F8083813F4807F02EB411308B2D3F810
:100A1000004914BF44F0805444F00054C3F8004926
:100A2000C3E700BF0000000000000000000000005D
:100A3000FEE700BF00000000000000000000000012
:100A4000014B5B6883607047001000E0000000000D
:100A50000E4A0F4B81685B6810B4946802691B1BD7
:100A60005B1AD218416902614268C46841F1000111
:100A70009342026888BF436001349342C0E9023464
:100A8000416110BC38BF0360704700BFE018002010
:100A9000001000E000000000000000000000000066
:100AA000302383F311880D4B5B6813F4006302D18C
:100AB00083F311887047EFF30983203B4FF0807276
:100AC000DA6183F30988064A1168D26889689268F6
:100AD00091428CBF034A044A9A61704700ED00E0DE
:100AE000C00E0020070300081203000800000000E9
:100AF000022906D0032906D00129074818BF002083
:100B0000704706487047032A03D8054800EBC20027
:100B100070470020704700BF18730008C4720008B7
:100B2000A0730008000000000000000000000000AA
:100B300090F8443003F01F02012A03D190F84510C9
:100B40000B291BD003F06003202B01D0002070473D
:100B500090F84530212B09D81F2BF7D90A490722D5
:100B60000023C0E90E12036401207047222BEDD14F
:100B70000023C0E90E330364012070470023C0E95D
:100B80000E33036410467047000800200000000088
:100B900038B5234DEB6869681C69DA681440E2B225
:100BA000D2431A610B7D7BB960072DD52B78042BBE
:100BB00026D0A1070FD4E40705D56B6818481B6938
:100BC000984703232B7038BDA2070BD52B78042B35
:100BD00004D06307EFD504232B70ECE78B68E3B1F7
:100BE000284698476307E6D52B78042BF3D169682C
:100BF000CB68002BEFD00A48984704232B70DAE724
:100C00008B683BB128469847A107D4D52B78042B95
:100C1000E1D1ECE7A007CED5EAE76207CBD5E7E75D
:100C2000300900200000000000000000000000006B
:100C30000B4A0C48D2F898304FF08041496A59600D
:100C40004068196860F31F2143F8101B02F69C00EE
:100C500002F19C01834228BF0B46C2F898307047CE
:100C6000C00E0020001000E00000000000000000A6
:100C700008B5044672B6094DB5F894301B0705D582
:100C8000074BC5F8884003221A70FEE7D5F8983064
:100C900005221A709860FFF7CBFFF1E7C00E002025
:100CA000E01800200000000000000000000000002C
:100CB00070B400228E684FF0FF3400E0624600EB13
:100CC00042110B46D1F80059002D02F1010C05DA52
:100CD000D1F8005945F08045C1F80059D1F8005BC2
:100CE000002D05DAD1F8005B45F08045C1F8005BC6
:100CF000B242C3F80849C3F8084BDFD14FF00113E3
:100D000070BCC0F81C3870470000000000000000F4
:100D1000124BD3F88C2010B5D2B9D3F89030002BF9
:100D200016DDC368BBB1D0E90531D0F81CC0C2687C
:100D300063448B42436124BF436A4361013A036BBE
:100D4000C2600022826213B1BDE81040184710BD96
:100D50000348FFF78DFF0348FFF78AFFC00E00200E
:100D6000046B000874700008000000000000000020
:100D7000154BD3F88C2010B512BBD3F89030002B54
:100D80001EDDC9B1C369043B8B4215D3C3689BB157
:100D9000036984691960C169C2680B44A342036195
:100DA00024BF436A0361013A036BC260002282627E
:100DB0002BB1BDE8104018470448FFF759FF10BD9C
:100DC0000348FFF755FF00BFC00E0020BC6D0008B0
:100DD000046B00080000000000000000000000009C
:100DE00008B530B129B1012901D0002008BD002A81
:100DF000FBD00148FFF73CFFE86F0008000000004F
:100E0000124AD2F88C10002910B518DBD2F89020C5
:100E1000002A14DD0346A8B10278042A12D18068A2
:100E2000996D00220C68DC6500F001109860BDE847
:100E30001040C3E90422586D9A61FFF739BF044896
:100E4000FFF716FF0348FFF713FF00BFC00E002097
:100E50000C6B00088C70000800000000000000000F
:100E6000F8B5144DD5F88C60002E20DBD5F89050E5
:100E7000002D1CDDC0B1032916D846894FF0010CA6
:100E80000CFA01FC1CEA06051FFA8CF70CD100EBEA
:100E900081043E43E4684681A469C4E90035A26048
:100EA000BDE8F840FFF724BD0348FFF7E1FE034823
:100EB000FFF7DEFEC00E0020447000080C6B000837
:100EC000F8B5144DD5F88C60002E20DBD5F8905085
:100ED000002D1CDDC0B1032916D806894FF0010C86
:100EE0000CFA01FC1CEA06051FFA8CF70CD100EB8A
:100EF00081043E43E46806816469C4E90035A26068
:100F0000BDE8F840FFF73CBD0348FFF7B1FE0348DA
:100F1000FFF7AEFEC00E0020F06F00080C6B00085B
:100F2000436BD3F88C2410680178042902D1197A14
:100F3000022900D070471179B0F808C001228A4018
:100F400012EA0C0FF6D10E4A10B5D2F88C40002CE4
:100F500013DBD2F89020002A0FDDD3E9154294422A
:100F600005D0BDE8104052F8043BFFF7A9BF1B6D48
:100F7000002BF6D00348FFF77BFE0348FFF778FE0F
:100F8000C00E0020387000080C6B00080000000044
:100F900070B590F83430063B0446052B04D8DFE8E2
:100FA00003F036030306132F3348FFF761FEC36BCC
:100FB000B0F84A20934207D2C268128AB3FBF2F11A
:100FC00002FB1133002B3BD0142384F83430302340
:100FD00083F31188294ED6F88C30002B2DDDD6F8FE
:100FE000905055BB0122C6F890202B4620462A4639
:100FF0002946FFF735FFC6F8905085F3118870BD7C
:10100000036C03B19847002384F8343070BD436DFE
:101010004168D3F800290D6842F40012C3F8002992
:10102000D3F8002B42F40012C3F8002B0DB10621B7
:10103000A847062384F8343070BD1148FFF718FE26
:10104000302383F311880D4ED6F88C30002BF4DD5D
:10105000D6F89050002DF0D10122C6F890202B46F2
:101060002A462946FFF72CFFC6F8905085F31188D1
:101070000A2384F8343070BD146E0008C00E0020BE
:10108000146B0008000000000000000000000000D9
:1010900038B590F834101429044606D0152924D008
:1010A00006290DD02048FFF7E3FDC3689B695B6804
:1010B0002BB9036C03B19847002384F8343038BD52
:1010C000436DD3F8002942F40012C3F80029D3F885
:1010D000002B42F40012C3F8002B43681B6803B1D5
:1010E0009847062384F8343038BD0B2380F8343019
:1010F000302383F311880D4DD5F88C30002B0FDD94
:10110000D5F8904064B90122C5F8902023462246C4
:101110002146FFF7D5FEC5F8904084F3118838BD0D
:101120000348FFF7A5FD00BF306D0008C00E00208A
:10113000146B000800000000000000000000000028
:101140004FF080430229DA6838BF0221920710B5B8
:1011500000EB01041BD55C635A6A101A814298BFE8
:10116000022101D910BD0246D8680131800701EB88
:1011700002040CD55C63586A821A8A42F3D20229AF
:10118000F0D9044A536B43F00103536310BD024886
:10119000FFF76EFDC00E0020B06D000800000000DB
:1011A0001F4A38B5D2F88C30002B2FDBD2F89030A4
:1011B000002B2BDD036863B3116988420CD0D0E9A2
:1011C0000145996823602944C3E9014100214FF09A
:1011D000FF330160936138BD1146002541F8103F8F
:1011E0005960056014698C4216D08068A3684FF07E
:1011F00080410344A360486AD169421A9342EAD904
:10120000091A1944BDE83840FFF79ABF0548FFF7AF
:101210002FFD0548FFF72CFD4FF08043DD6038BD02
:10122000C00E00200C6B0008A86F00080000000032
:1012300010B590F828301BB30F2B21D0124AB2F80A
:101240009410C90704460FD50022A369A16884F849
:1012500028201B689A688A42FBD85A682046C4E94D
:10126000003214605C6010BDD2F89820C16ADB00C7
:1012700043F00103C2E902011370FFF7D9FCE3E771
:101280000248FFF7F5FC00BFC00E0020886D000883
:101290002D4AD2F88C30002B70B551DBD2F890304B
:1012A000002B4DDD41684B0747D1836813F00704DD
:1012B00043D1994241D25D1AEF2D3ED9C568FF2D29
:1012C0003BD80669CEB343F8301C43F8746C4169CF
:1012D00043F8701C4FF0020C0126016843F8485C8B
:1012E00003F828CC03F8266C43F80C5C03F8274C71
:1012F000164D43F82C3C43E90544D46A43F8545C4A
:10130000A3F17405A3F1400043F8445C02F1280501
:1013100043F8341C43F83C4C43F8382CA3F11C012F
:1013200043F8405C2060A3F12004D06243E9084107
:10133000A3F1500043F8181C70BD0548FFF798FC56
:101340000448FFF795FC00BFC00E0020F102000822
:10135000F46E00080C6B00080000000000000000A4
:1013600038B5302383F311881A4BD3E9234554EA67
:10137000050C20D10124C3F89040F9B101F1FF3CE4
:101380001CEA010C1AD1144C65684942281A08401D
:101390002168821A8A420CD395420AD362601A6885
:1013A00000219A42C3F890100BD1002383F31188D7
:1013B00038BD6046F3E70948FFF75AFC0848FFF7D5
:1013C00057FCD96893688A689A42EED20548FFF7BD
:1013D0004FFC00BFC00E0020D81800201C6B000876
:1013E000E86D0008186D0008000000000000000013
:1013F000104BD3F88C20002A10B515DBD3F89030B1
:10140000002B11DD99B14B1E0B4010D10A4A5468D4
:101410004942201A08401168884203D3844201D30C
:10142000506010BD184610BD0448FFF721FC044869
:10143000FFF71EFCC00E0020D81800200C6B00081F
:10144000E86D00080000000000000000000000003F
:1014500070B5302383F31188304CD4F88C30002BD6
:1014600050DDD4F89030002B4CD12D4BD3F88C1498
:1014700001220868C4F8902090F800C0BCF1040F65
:101480000BD193F808C0BCF1020F06D10979B0F86E
:1014900008C08A4012EA0C0F05D00023C4F890302F
:1014A00083F3118870BDD3E915529542F5D11D6DB6
:1014B000002DF2D0DD6E002DEFD0043DAD1AECD042
:1014C00015601D6DDE6D013D1D651D6E1544B54237
:1014D0005D6524BF9D6E5D65D4F88C500026B542D5
:1014E000DE6618DBD4F89060002E14DD5E6DB2422B
:1014F0000BD052F8043BFFF7E3FC002DCDD1094897
:10150000FFF7B6FB0848FFF7B3FB1B6D002BF0D0CD
:101510000648FFF7ADFB0648FFF7AAFBC00E002008
:1015200048090020246B0008146B0008FC6C0008BC
:101530000C6B00080000000000000000000000002C
:101540002DE9F047484F7E6D06EB40130546D3F872
:101550000849C3F80849E1074FEA401919D5D6F8F8
:101560001038DA0715D507EB8003D9684B6918687E
:10157000DA68904257D33B89D1F808800122AA400B
:1015800023EA02033B81B8F1000F02D02946384616
:10159000C047230608D5D6F834384FF0010E0EFAAE
:1015A00005FE13EA0E0F01D1BDE8F08707EB8503B6
:1015B000D7F85480D9684E69D6E900349C422BD2C2
:1015C0006A1CD2B20F8A08EB023208EB090C1B1B13
:1015D000BB4228BF3B461C46DCF818399BB2B4EB33
:1015E000830FE1D8B568002C38D02B681360042C29
:1015F0000AD9601F20F00300043028442B4653F81A
:10160000041F11609842FAD1736825441C44336862
:10161000B560A3427460DAD8D8F8343823EA0E03F0
:10162000C8F83438C0E7121A1A6000225A60302312
:1016300083F31188DFF83480D8F88C30934210DDC2
:10164000D8F890A0BAF1000F0BD129463846FFF721
:1016500097F9C8F890A08AF311889AE70448FFF731
:1016600007FB0448FFF704FBD80D0020C00E002044
:10167000446E0008146B0008000000000000000029
:101680002DE9F0412A4F7E6D06EB40130446D3F856
:10169000085BC3F8085B280703D5D6F81438190788
:1016A0003BD4EA0737D5D6F81438DB0733D507EB38
:1016B0008403D9688A6954B9488A5368B3FBF0F542
:1016C00000FB15331BB91068D36898420DD37B8992
:1016D000CD680122A24023EA02037B81DDB12146CD
:1016E0002B461348BDE8F04118471B1AC2E90034E5
:1016F000302383F311880F4DD5F88C30002B14DD87
:10170000D5F890308BB90A482146FFF7F1F8C5F8B3
:10171000904084F31188BDE8F08107EB84032146F3
:10172000DB6838465B689847BBE70348FFF7A0FAD9
:10173000D80D0020C00E0020146B0008000000002F
:1017400008B5154B9A68D10723D4DA68D20720D49C
:1017500012498A6822F00F028A6001289A6810D123
:1017600042F001029A60DA6822F00102DA600A4B64
:101770001A6842F001021A605A6822F001025A60A7
:1017800008BD22F001029A60DA6842F00102DA60D4
:10179000EDE70348FFF76CFA003C014000380140D8
:1017A0002C6E000800000000000000000000000097
:1017B00010B5302383F311880F4CD4F88C30002BF4
:1017C00016DDD4F890309BB90C4B1B780120C4F87F
:1017D00090005BB1FFF7B4FF094A0A490023C2E950
:1017E0000013C4F8903083F3118810BD0220F1E794
:1017F0000548FFF73DFA00BFC00E0020B90E0020DB
:10180000380E0020E1360008146B000800000000CC
:1018100038B51C4C04F11003E16143602369826018
:10182000036058604FF080432061D868022A38BFB7
:10183000022210F0020001EB02051CD15D63186169
:101840000220D8605D6AA5EB010C624502D938BD63
:1018500029461546DA680130920701440ED55963CE
:101860005A6A511B8142F3D20228F0D9636B43F0CC
:101870000103636338BD0448FFF7FAF90348FFF733
:10188000F7F900BFC00E00200C6F0008B06D000813
:10189000F8B54FF080431C4FD3F824C03B460A46AE
:1018A00053F8105F9D422AD0FC69AB68ACEB04048E
:1018B0000C1928BF0C46A34206461BD89C4209D9E6
:1018C000B54202D113E0AE4211D02D68E41AAB68E4
:1018D0009C42F8D86B68B460C6E900531E60AB68E0
:1018E0006E601B1B4FF0FF32AB60BA61F8BD07485A
:1018F000FFF7BEF96046FFF723FCAB68DEE7BDE803
:10190000F8406146FFF784BFC00E002064700008F5
:1019100010B590F8283013B30F2B20D0114AB2F82D
:101920009410C90704460ED50022A369A16884F863
:1019300028201B689A688A42FBD25A68C4E90032A0
:1019400014605C6010BDD2F89820C16ADB0043F0DF
:101950000103C2E902011370FFF76AF9E4E70248E4
:10196000FFF786F9C00E0020B86F000800000000E5
:1019700010B5302383F311881F4CD4F88C30002B22
:1019800036DDD4F89030002B32D10123C4F89030EA
:1019900091F8283008460C2B10D8DFE803F01C0F14
:1019A0000F220B070F0B0F0F0F0F0B00CA6A936864
:1019B00001339360D0E9003213605A604FF0FF3377
:1019C000C362FFF7A5FFD4F88C30002B0DDDD4F8EF
:1019D0009030002B09DD0023C4F8903083F3118888
:1019E00010BDCB6A00221A60E8E70448FFF740F90F
:1019F0000348FFF73DF900BFC00E0020246B00082C
:101A0000146B00080000000000000000000000004F
:101A10002DE9F041244FD7F88C30002B35DBD7F877
:101A20009030002B31DD0468A042064620D00D46E0
:101A30004FF00008E3682B43E36015B123691D42B2
:101A400013D0D7F88C20002AD4E901031DDBD7F886
:101A50009020002A19DD18B3C26B134390F8282098
:101A6000C3630A2A14D00B2A04D02468A642E1D109
:101A7000BDE8F081C26A9A43F7D1C0F82C80FFF725
:101A800047FF2468A642D5D1F2E70848FFF7F0F8EF
:101A9000C26A1342E9D0C0F82C80FFF739FFF0E7A3
:101AA0000348FFF7E5F800BFC00E00200C6B0008EC
:101AB000D86F0008000000000000000000000000D7
:101AC0002DE9F84300EB81039E69B6B3302383F31D
:101AD0001188424FD7F88C30002B59DDD7F8903061
:101AE000002B55D10D4600EB850901230446082142
:101AF000301DC7F89030FFF78BFFD9F80C305B69C9
:101B00001B68E3B9D7F88C80B8F1000F43DBD7F836
:101B10009030002B3FDD736DB26D93423ED052F892
:101B2000043B29462046FFF7CBF9B8F1000F49D016
:101B30000023C7F8903083F31188BDE8F883D7F805
:101B40008C80B8F1000F26DBD7F89030002B22DD17
:101B5000D6E915318B4238D0326D706C0132326566
:101B6000326E1144F26DB165914224BFB26EB2651E
:101B700006F144028242CFD0036873645A6090F841
:101B80002830042B27D10023C362FFF7C1FEB9E739
:101B90001348FFF76DF81348FFF76AF8336D002B11
:101BA000BDD0D9F80C305A691268002ABDD01B8A02
:101BB000013B1340B9D1294604F144022046FFF706
:101BC0007FF9B2E70848FFF753F8326D002AC3D017
:101BD0000648FFF74DF80648FFF74AF8C00E002008
:101BE000146B00080C6B0008246B0008786F000869
:101BF0009C6D0008000000000000000000000000D4
:101C000070B504460068844217D00F4D6FF001068E
:101C1000036823605C6090F82830042B11D1D5F85C
:101C20008C30C662002B09DBD5F89030002B05DD27
:101C3000FFF76EFE2068A042EAD170BD0348FFF7AF
:101C400017F80348FFF714F8C00E00200C6B0008CB
:101C50009C6D000800000000000000000000000073
:101C600010B5D0F88C341C682278042A02D1027A8C
:101C7000022A00D010BD5979628901238B4013429A
:101C8000F8D10E4BD3F88C20002A13DBD3F8903018
:101C9000002B0FDDD0E907239A4207D020464FF4EE
:101CA0008073BDE810400432FFF7DAB88369002B77
:101CB000F4D010BD0248FEF7DBFF00BFC00E0020CD
:101CC0000C6B000800000000000000000000000095
:101CD000406BFFF7C5BF00BF000000000000000020
:101CE000093170B550F8214024B3302383F31188B3
:101CF000394DD5F88C30002B5FDDD5F89030002BB6
:101D00005BD1D4F88C240123C5F890301368527944
:101D100003EB8203DB689B695E6866B92046FFF7C8
:101D20009FFFD5F89030002B44DD0023C5F890309C
:101D300083F3118870BD04216018FFF769FED5F8A0
:101D40008C30002B45DBD5F89030002B41DDA36AA9
:101D5000043B9E423AD8D4E90732934233D01E6006
:101D6000A16AA269E0680B44616AE3618B4224BF07
:101D7000236BE36104F10C0301328342A26112D0B0
:101D80000268E260536090F82830042B18D1D5F82F
:101D90008C3000229342C2621BDBD5F89030934214
:101DA00017DDFFF7B5FDD5F88C602046FFF758FF2B
:101DB000002EB6DC0948FEF75BFF0948FEF758FF26
:101DC0000848FEF755FFA269002AC8D00648FEF76A
:101DD0004FFF0648FEF74CFFC00E0020246B0008A2
:101DE000146B00089C6D00081C7100080C6B000847
:101DF000F8B590F83430044613B1002380F834303D
:101E000004EB81016268CB681B6A19685B68A36494
:101E10006164936883B32046984768B3E36B94F892
:101E20004410B4F84A209A422CBF1A46E2630906CD
:101E300000F1CE80002A00F00781152384F83430A9
:101E4000302383F31188B54DD5F88C30002B40F347
:101E5000F880D5F89060002E40F0F3800121D4E99D
:101E60000E232046C5F890103146FEF7F9FFC5F85D
:101E7000906086F31188F8BD94F8441011F0600664
:101E800008461CD194F8452001F07F0343EA022361
:101E900040F20232934200F0248144D8B3F5807FAF
:101EA00000F0638122D9B3F5817F00F06E81B3F534
:101EB000407F04D194F84630012B00F0E480626D3D
:101EC000D2F80039616843F40013C2F80039D2F83F
:101ED000003B0D6843F40013C2F8003B15B1062126
:101EE0002046A847062384F83430F8BD012B4BD098
:101EF000022B3BD194F9480094F84820002802F0C6
:101F00000F00C0F2BE805830626D400110580504C9
:101F1000D6D586024CBF824882480222C4E90E020E
:101F2000002222647DE7B3F5006F00F0458132D9CD
:101F3000B3F5106F24D12378042B00F0AF80774FD6
:101F400094F846304BB1626884F84F300421217018
:101F5000136813B10221204698470023C4E90E33C9
:101F600094F84400236403066FD54FE0002BA6D1FC
:101F7000022204F14C002364C4E90E02134650E728
:101F800040F6024293429AD1674802230022C4E9F4
:101F90000E03226445E7B3F5A06F00F0C980A3F5F6
:101FA000C063012B8BD86268B4F84830556894F848
:101FB000471094F846202046A84700283FF47FAFFA
:101FC000D0E9003294F844102664C4E90E2328E7CF
:101FD000DAB1092384F83430302383F311884F4D6C
:101FE000D5F88C30002B2CDDD5F890604EBB01214C
:101FF000D4E90E232046C5F890103146FEF760FF65
:10200000C5F8906086F31188F8BD444F142384F816
:102010003430302383F31188D7F88C30002B10DD57
:10202000D7F890506DB90122C7F890202B46204672
:102030002A462946FEF714FFC7F8905085F3118809
:10204000F8BD3A48FEF714FE344F0B2384F83430C1
:10205000302383F31188D7F88C30002BF1DDD7F8CB
:102060009050002DEDD10122C7F890202B4620463C
:102070002A462946FEF724FFC7F8905085F31188B9
:10208000F8BD483040E7B4F84C30244F266443F0A4
:102090000203C4E90E66A4F84C3064E7302383F3EE
:1020A00011881E4FD7F88C30002BCADDD7F890501E
:1020B000002DC6D101232046C7F89030FEF7A0FEC0
:1020C000C7F8905085F311880322636884F84F5055
:1020D00022701B68002B3FF433AF1146204698470F
:1020E0002EE794F84630002B7FF4E9AE94F84830A0
:1020F00013F00F020BD013F0800F636D03EB42134C
:1021000061D1D3F8002B42F40012C3F8002B002356
:10211000C4E90E33014F236425E700BFC00E002041
:102120001472000848710008E8730008146B000876
:10213000B4F84430B3F5A06FE9D194F84610626D5D
:1021400084F84E10D2F8003823F4FE6343EA0113FA
:102150006168C2F800380B6823B120460121984716
:1021600094F8440003232370D1E794F84630012B00
:102170007FF4A5AEB4F84C301A4F266423F0020366
:10218000C4E90E66A4F84C30EDE694F84630002B16
:102190007FF495AE94F8483013F00F02B7D013F0E7
:1021A000800F636D03EB421314D1D3F8002B22F49C
:1021B0000012C3F8002BAAE7012304F14F02C4E97F
:1021C0000E2326642DE6D3F8002942F40012C3F84A
:1021D00000299CE7D3F8002922F40012C3F8002953
:1021E00095E700BFC00E00200000000000000000C6
:1021F000F8B5664BD3F88C40002CC0F29C80D3F825
:102200009030002B40F3978000287DD00378042B7A
:102210007AD100EB81040DB2E368002B74D15669CA
:10222000E2601EB133607360B360F360936923B101
:1022300000221A605A609A60DA60E368426D1C6896
:102240009F6904F00304661E022E98BFA40402EBEB
:1022500041164FF0000C98BF04F18054C6F810CB23
:102260008CBF4B4C04F500444FEA411C002F4ED06C
:102270005F8A01F1580676012743975101F1100E4C
:10228000D2F81C78012606FA0EF63E43C2F81C6806
:1022900002EB0C065F694FF0000CC6F810C9002F66
:1022A0004CD09D8BB3F810C0C66D4FEA9C03012D36
:1022B00088BF6B43856D6F681D043344BB42C365A3
:1022C00061D801F13F0302EB830335435D608B016D
:1022D00043F02003136113699806FCD42D48456828
:1022E00043685B1B112BFBD901F1480040014CEA0C
:1022F000815C4CEA040414500123D2F81C088B4082
:102300000343C2F81C38F8BD2348FEF7B1FC02EBCA
:10231000451601F1100ED6F8007B27F40047C6F8E9
:10232000007BD2F81C68012707FA0EF726EA070699
:10233000C2F81C68ACE71948FEF79AFC01F13F03AC
:1023400002EB8303164858608B0143F020031361AE
:1023500013699B06FCD40F48446843681B1B112B70
:10236000FBD902EB45150123D5F8000920F4004004
:10237000C5F8000903FA01F1D2F81C3823EA010379
:10238000C2F81C38F8BD0748FEF772FCC00E0020EA
:1023900000800010001000E0D87000080C6B0008EE
:1023A00000040002646D000800000000000000004E
:1023B000F0B583B005291ED8DFE801F01F1D031F0B
:1023C0001F4E302383F31188594CD4F88C30002BE6
:1023D00065DDD4F89050002D61D10127C4F89070CC
:1023E0000378042B5ED0032B00F09B800023C4F8FD
:1023F000903083F3118803B0F0BD302383F311884C
:102400004B4CD4F88C30002B49DDD4F89030002BA5
:1024100045D1484D2B7D0122C4F890201BB195F881
:102420004C30002BE2D102214348FFF7F1FA01269C
:1024300042482E75FFF7E4FB414885F84C60FFF7F2
:10244000DFFBD4F88C30002B03DDD4F89030002B68
:10245000CCDC3C48FEF70CFC302383F31188344C71
:10246000D4F88C30002B1ADDD4F89050BDB9314E21
:102470000121301DC4F89010FFF7CAFAD4F88C304F
:102480003575002B86F84C50E3DDD4F89030002BE6
:10249000DFDDC4F8905085F3118803B0F0BD2A4801
:1024A000FEF7E6FB294A01903946FFF7A1FE284ACC
:1024B00001980221FFF79CFED4F88C30002B33DB0F
:1024C000D4F89030002B2FDD1A4E336BB561C6E97E
:1024D0000733C6E90D5506F10C00FFF791FBD4F860
:1024E0008C303575002B1FDBD4F89030002B1BDDB2
:1024F000736E3365B36E06F14400C6E91533C6E961
:102500001B55FFF77DFB3946301D86F84C50FFF711
:102510007FFA3046FFF7A4FBD4F88C30002B98DD0F
:1025200093E7FEF76DFC61E70A48FEF7A1FB00BFE9
:10253000C00E0020480900204C090020540900204A
:102540008C090020246B0008146B0008C07100087F
:10255000E47100080C6B000800000000000000009F
:102560002DE9F843D0E90245AC4206460F465DD05E
:10257000D0E900E1234600201EF803C00CF1010C55
:1025800063449942D8BF5B1AAB4200F10100F3D11A
:10259000012A43D0D6F810E070455DDBAC425ED036
:1025A000431E73455ED0D6E900984FF0000C01E061
:1025B00071451AD019F8043001331C44A0450CF1C0
:1025C000010CD8BFA4EB0804A0EB0C01AC4201F154
:1025D000FF31EDD119F8054064B9012A3CD10EF163
:1025E000010333612046BDE8F883254619F805400C
:1025F000002CF2D00EF10103336140220021384655
:1026000003F03AFF736862199A4213DA31680135B0
:10261000224629443846FDF7F1FFE3E73369002BF2
:1026200006DDA3F1020EC6F810E0B5E70020AFE723
:102630000024D7E75B1B316803F1FF3801352944DB
:1026400042463846FDF7DAFF3168A4EB080207EB93
:102650000800FDF7D3FFC5E74FF0FF34C2E7D6F817
:102660000090B7E7D6F800902546B3E700000000D9
:1026700038B5264BD3F88C20002A3DD1D3F89020D2
:10268000002A39DD5A68916801293BD1DC689442FF
:1026900035D0A2699A4232D1156884F828002B6897
:1026A00013605A6085F82810B2F89430D5609B0703
:1026B0000ED5EFF30983226A243B9A4205D82146BE
:1026C0002846BDE83840FDF70BBE1148FEF7D0FAAA
:1026D00094F82830D2F89820E16AD160DB0043F00A
:1026E000020313709560FEF7A3FAEFF30983226AE1
:1026F000243B9A42E3D9E8E70648FEF7B9FA0648D0
:10270000FEF7B6FA0548FEF7B3FA00BFC00E002088
:102710002C6B0008046B00085C6F0008746D0008E7
:1027200070B51B4CD4F88C2086B052BBD4F89060A6
:10273000002E26DD4D1CE6681BD0F9B1154B039326
:1027400005466846CDE90462FFF7A2F82846FFF780
:102750008FFFD4F88C30002B16DBD4F89030002B90
:1027600012DD009B13B16846FEF71AFDF06A06B051
:1027700070BDFFF77DFFF06A06B070BD0648FEF73A
:1027800077FA0648FEF774FA0548FEF771FA00BFBB
:10279000C00E002071190008B0700008046B00081A
:1027A0000C6B0008000000000000000000000000AA
:1027B000F8B51B4ED6F88C7057BBD6F89030002B6E
:1027C00004460D460BDC23E062682946C3E900425B
:1027D000042013606360FFF7A3FF00281BDBE3689E
:1027E00043B9237A83B9F368002DEDD14FF0FF3759
:1027F0003846F8BDE36883B163691A6804331A4444
:10280000C4E90A323846F8BD6FF001073846F8BD12
:102810000448FEF72DFA0746EAE70348FEF728FAD0
:10282000C00E0020046B0008BC700008000000000F
:102830002DE9F04F83B00193002A7BD092463022DD
:1028400082F311884A4CD4E923631E434AD10546DA
:102850000F4600924FF00108B146A96AC4F8908073
:10286000002958D0EA6AAAEB0603A2EB010B9B45AC
:1028700028BF9B46BBF1400F37D93B4601F1400BC7
:10288000D1F800C048688A68D1F80CE0C3F80CE0C1
:1028900010315945C3F800C058609A6003F1100325
:1028A000EED1AB6AEA6A40339A4207F1400706F17B
:1028B0004006AB6225D9D4F88C304BBBD4F89020BD
:1028C000002A25DDC4F890302368A3422AD189F379
:1028D0001188564541D2009B83F31188D4E92332F5
:1028E0001343BAD02348FEF7C3F938465A46FDF7DA
:1028F00085FEAB6AEA6A5B449A425E445F44AB621F
:10290000D9D82846FEF704FAD4F88C30002BD5D05D
:102910001948FEF7ADF901992846FFF749FF60B95C
:10292000A96A9FE7E2689B6892689A42CFD21348EF
:10293000FEF79EF91248FEF79BF9D4F88C30002B75
:10294000E6D1D4F89020002AE2DD2268C4F8903065
:10295000A24206D1002383F31188304603B0BDE8BC
:10296000F08FE16893688A689A42F3D2DFE700BF8C
:10297000C00E00201C6B00083C6B000804710008AE
:1029800028700008000000000000000000000000A7
:102990004FF0FF330C30FFF74BBF00BF00000000CB
:1029A0000C30FFF745BF00BF000000000000000032
:1029B000F8B5302383F311881E4CD4E92332134336
:1029C00022D10123C4F89030436B054600F10C0777
:1029D00003B313F8016BAA6B6B63934210D2D4F864
:1029E0008C30A3B9D4F89020002A10DD2268C4F8F6
:1029F0009030A24216D1002383F311883046F8BDEF
:102A00003846FEF785F9EAE70B48FEF731F90B483F
:102A1000FEF72EF93846FFF7CBFE06460028DED13A
:102A20006B6BD6E7E16893688A689A42E3D2044800
:102A3000FEF71EF9C00E00201C6B00083C6B00085E
:102A40000471000800000000000000000000000009
:102A5000F8B5302383F311881F4CD4E92332134394
:102A600022D1436B0122054600F10C07C4F89020E7
:102A700003B313F8016BAA6B6B63934210D2D4F8C3
:102A80008C30A3B9D4F89020002A10DD2268C4F855
:102A90009030A24218D1002383F311883046F8BD4C
:102AA0003846FEF735F9EAE70C48FEF7E1F80C483E
:102AB000FEF7DEF84FF0FF313846FFF779FE0646A5
:102AC0000028DCD16B6BD4E7E16893688A689A428E
:102AD000E1D20448FEF7CCF8C00E00201C6B0008C1
:102AE0003C6B0008047100080000000000000000BA
:102AF000F8B51B4ED6F88C7057BBD6F89030002B2B
:102B000004460D460BDC23E062682946C3E9004217
:102B1000042013606360FFF703FE00281BDBE368FB
:102B200043B9237A83B9F368002DEDD14FF0FF3715
:102B30003846F8BDE36883B12369E1691A1D0B4487
:102B4000C4E90A233846F8BD6FF001073846F8BDDE
:102B50000448FEF78DF80746EAE70348FEF788F8D1
:102B6000C00E0020046B00081C6F0008000000006D
:102B70002DE9F04F83B00193002A79D0302787F3F5
:102B800011884A4CD4E923631E4346D105468B463F
:102B900092464FF00108B146A86AC4F89080002818
:102BA00057D0EA6AAAEB0603121A9A4228BF1A46BD
:102BB000402A35D959460BF1400BD1F800C04A687C
:102BC0008B68D1F80CE0C0F80CE010315945C0F822
:102BD00000C04260836000F11000EED1AB6AEA6A87
:102BE00040339A428B4606F14006AB6225D9D4F8B1
:102BF0008C305BBBD4F89020002A27DDC4F89030DD
:102C00002368A3422CD189F31188564543D287F318
:102C10001188D4E923321343BED02548FEF728F8A3
:102C20005946164493440092FDF7E8FCAB6A009ABB
:102C30001344EA6AAB629A42D9D8E9692846043952
:102C4000FEF796F8D4F88C30002BD3D01948FEF755
:102C50000FF801992846FFF74BFF60B9A86AA0E773
:102C6000E2689B6892689A42CDD21348FEF700F85A
:102C70001248FDF7FDFFD4F88C30002BE6D1D4F8D4
:102C80009020002AE2DD2268C4F89030A24206D1EA
:102C9000002383F31188304603B0BDE8F08FE1686C
:102CA00093688A689A42F3D2DFE700BFC00E002023
:102CB0001C6B00083C6B000804710008EC6C0008F9
:102CC0004FF0FF334430FFF753BF00BF0000000058
:102CD0004430FFF74DBF00BF0000000000000000BF
:102CE000F8B50E46302383F31188294DD5E92331F9
:102CF0000B4324D1C36E0121044600F14407C5F8FB
:102D0000901013B31E70D4E91B3201339342E36673
:102D10000FD2D5F88C00A8B9D5F89030002B11DD72
:102D20002B68C5F89000AB4216D1002383F31188BD
:102D3000F8BD216E38460439FEF71AF8E9E7154860
:102D4000FDF796FF1448FDF793FF11463846FFF74D
:102D5000CFFE48B9E36ED5E7EA689B6892689A426D
:102D6000E3D20E48FDF784FFD5F88C30002BE9D173
:102D7000D5F89020002AE5DD2A68C5F89030AA42EF
:102D8000D3D0E96893688A689A42CED2E9E700BF57
:102D9000C00E00201C6B00083C6B0008047100088A
:102DA000F8B5302383F31188294DD5E92332134335
:102DB00025D10123C5F89030C36E04460F4600F1BB
:102DC000440613B31F70D4E91B3201339342E36608
:102DD0000FD2D5F88C00A8B9D5F89030002B11DDB2
:102DE0002B68C5F89000AB4217D1002383F31188FC
:102DF000F8BD216E30460439FDF7BAFFE9E7154802
:102E0000FDF736FF1448FDF733FF4FF0FF31304632
:102E1000FFF76EFE48B9E36ED4E7EA689B689268F4
:102E20009A42E2D20D48FDF723FFD5F88C30002BF3
:102E3000E8D1D5F89020002AE4DD2A68C5F8903062
:102E4000AA42D2D0E96893688A689A42CDD2E9E76B
:102E5000C00E00201C6B00083C6B000804710008C9
:102E600010B5302383F31188144CD4E92332134373
:102E700016D1012301460820C4F89030FFF750FC1A
:102E8000D4F88C307BB9D4F89020002A0BDD22686E
:102E9000C4F89030A24209D1002383F3118810BDF9
:102EA0000748FDF7E5FE0748FDF7E2FEE168936895
:102EB0008A689A42F0D20448FDF7DAFEC00E00207C
:102EC0001C6B00083C6B0008E86E00080000000066
:102ED0001C4C1D49E26808B53023D16183F3118889
:102EE000D4F88C3003BB0125D4F89030E3B94FF40B
:102EF000FA710820C4F89050FFF712FCD4F88C3017
:102F0000ABB9D4F89020002A11DD2268C4F89030C3
:102F1000A2420FD1002383F31188302383F3118859
:102F2000D4F88C30002BDFD00848FDF7A1FE08480C
:102F3000FDF79EFEE16893688A689A42EAD20548E6
:102F4000FDF796FEC00E0020446B00081C6B0008C5
:102F50003C6B0008E86E0008000000000000000064
:102F6000334C344ADFF8D0A0344D2DE98848E3686B
:102F70004FF40056DA6140F6C41941F288383746FA
:102F80009AF800306F83042B0CBFCB46C346302326
:102F900083F31188D4E92332134334D101235946F2
:102FA0000820C4F89030FFF7BBFBD4F88C306BBB23
:102FB000D4F89020002A29DDC4F890302368A34279
:102FC0002FD1002383F3118830232E8383F31188BC
:102FD000D4E92332134316D1012359460820C4F8FB
:102FE0009030FFF79DFBD4F88C307BB9D4F890205B
:102FF000002A0BDDC4F890302368A34209D10023D6
:1030000083F31188BCE70E48FDF732FE0D48FDF74B
:103010002FFEE2689B6892689A42F0D20A48FDF758
:1030200027FEE2689B6892689A42CAD2F6E700BF20
:10303000C00E0020506B0008D80D00200008024090
:103040001C6B00083C6B0008E86E000800000000E4
:10305000174DEC6808B5236BE06204F130069E4220
:1030600008D194F82A30B3B10F20FFF701FB1148C3
:10307000FDF7FEFD1A682263D5F88C20002A13DBC9
:10308000D5F89020002A0FDD1846FEF741FC236B8F
:103090009E42E6D0EEE794F829309B07E4D1D4E9CC
:1030A000043213605A60DFE70348FDF7E1FD00BF1B
:1030B000C00E0020AC6E00080C6B00080000000081
:1030C0003C4BD3F88C2070B5002A70D1D3F89020F7
:1030D000002A6CDD04468068DD6820B3AA68836836
:1030E0009A4207D990F828308260062B3ED0072BF1
:1030F00028D0EBB1234603E09968AA68914202D335
:103100001B689C42F8D15A680620C5E90032156058
:103110005D60EC62FFF7ACFAA368AB4244D12B6C64
:10312000A34241D170BD2B6CC4E902532C6470BD25
:10313000D0E90032012180F8281013605A60FEF7B0
:10314000E7FBD7E7D0E90032C66A13605A6033461E
:1031500003E099688268914202D31B689E42F8D1CD
:103160005A68C0E9003210605860C3E7D0E9003205
:10317000C66A13605A60334603E0996882689142D8
:1031800002D31B689E42F8D15A6803604260106007
:103190005860B068AA6883689342ABD290F8283030
:1031A0008260062BA3D1E1E70348FDF761FD0348E8
:1031B000FDF75EFDC00E0020CC6F0008046B000818
:1031C00070B5284CD4F88C30002B3CD1D4F890301A
:1031D000002B38DD23680546E068A342826835D1BC
:1031E0000023EB62AB68934236D9FEF721F8012346
:1031F00085F82830B4F89430E5609B0706460ED574
:10320000EFF30983326A243B9A4205D831462846B7
:10321000BDE87040FDF764B81348FDF729FD90F84C
:103220002830D4F89820C16AD160DB0043F0020353
:1032300013709560FDF7FCFCEFF30983326A243BC1
:103240009A42E3D9E8E70948FDF712FD9B689A42E4
:10325000C6D20748FDF70CFD2846BDE87040FEF7D2
:1032600057BB00BFC00E00202C6B0008046B000889
:10327000786E000800000000000000000000000060
:103280000EB42DE9F04F86B00FAB53F8046B0293E8
:103290003546019315F8011B002900F00182044610
:1032A0004FF000090CE023682046DB68984709F1DD
:1032B00001092E46354615F8011B002900F0D9807A
:1032C0002529F0D173782D2B04BFB51C4FF0010CCC
:1032D0002B7818BF4FF0000C2B2B03BF6B784FF0EF
:1032E000010E01354FF0000E302B03BF01351F4694
:1032F0002B7820272A2B49D16B78DDF804B02E2BB0
:103300005BF8042B05F1020656D0002003F0DF0124
:103310004C295FD0A3F14405342D00F2B080DFE8E2
:1033200015F0DC00AE00AE00AE00AE00DC00AE007A
:10333000AE00AE00AE00AE004D011201AE00AE0018
:10334000AE00AE00B401AE00AE001201AE00AE00A1
:10335000AE00AE00AE00AE00AE00AE00AE00AE00FD
:103360006F01DC00AE00AE00AE00AE00DC00AE00CF
:10337000AE00AE00AE00AE004D011201AE00AE00D8
:103380005001AE00B401AE00AE0012016E1C002B65
:103390006FD0002205E016F8013B01EB4002002B44
:1033A00067D0A3F13001C9B2092902EB8200F2D93A
:1033B0002E2BDDF804B0A8D13378002B59D02A2B5E
:1033C00047D173785BF8040B03F0DF014C2906F159
:1033D00002069FD116F8013B002B4AD0A3F144010D
:1033E00034294CD8DFE811F079004B004B004B003A
:1033F0004B0079004B004B004B004B004B00EA00A8
:10340000AF004B004B004B004B0051014B004B00F9
:10341000AF004B004B004B004B004B004B004B00F0
:103420004B004B004B000C0179004B004B004B0054
:103430004B0079004B004B004B004B004B00EA0067
:10344000AF004B004B00ED004B0051014B004B0017
:10345000AF0001360020A3F13001C9B2092900EB09
:1034600080053FF653AF16F8013B01EB4500002BFA
:10347000F1D1484606B0BDE8F04F03B070478DF873
:103480000C30013ACDF804B022EAE27ABCF1000F28
:1034900004D1002ACAF1000A00F3E48000250DF1EE
:1034A0000C0B05F10108D84423681BF8011BDB68ED
:1034B00020469847C345F7D109F10109A944BAF15B
:1034C000000F3FF4F7AE554623683946DB682046C7
:1034D0009847013DF8D1D144ECE65B4653F8040B24
:1034E00001930028C0F2B680BEF1000F00F0D58035
:1034F0002B238DF80C300DF10D0E03AB0EF10B0BE1
:103500005D466B49A1FB0081C90801EB810A884631
:10351000A0EB4A0130318246C9B2BAF1090F05F871
:10352000011D4046EDDCABEB0500704401E015F8F1
:10353000011F0EF8011B8645F9D1AEEB0305521BA6
:103540009B46013D2DE04FF010085B4653F8040BFD
:1035500001930DF1170300E02B468646B0FBF8F00F
:1035600008FB10EA0AF130013929C8BF0AF1370116
:10357000C9B2C64503F1FF3503F8011CECD20DF1C9
:103580001700451B184603AB0DF117089E4601E0D6
:1035900010F8011B0EF8011B4045F9D1521B9B4648
:1035A000013D22EAE27ABCF1000F03D1002ACAF100
:1035B000000A2EDC002DBFF674AF80E74FF008083C
:1035C000C3E75B4653F804BB0193BBF1000F5FD028
:1035D0009BF8001000284AD100294BD047F6FE7016
:1035E000594601E0C54205D411F8013FABEB010596
:1035F000002BF7D1A1EB0B01521A4D1E2027D0E76B
:103600005BF8043BCDF804B0013A8DF80C3020276C
:103610003AE7D0469BF800102D290FD02B290DD06A
:1036200023683946DB68204698471AF1010AF7D12A
:10363000002DA9EB0809BFF634AF3BE6302FEFD1E0
:1036400022682046D2680BF1010B09F10109013D06
:103650009047E5E72D238DF80C3040420DF10D0E1B
:1036600003AB4BE76546D0460DF10C0BD2E709B131
:103670000138B5D522EAE27ABCF1000F03D1002A65
:10368000CAF1000A0EDC202719E74FF00A085CE7B0
:10369000DFF820B00028A1D0EAE703AB9E462DE773
:1036A0008946E6E6D04620274FF0FF35B2E700BF57
:1036B000CDCCCCCC586B000800000000000000000E
:1036C000012903D0034A0449FFF7DABD1268034910
:1036D000FFF7D6BD606B0008706B00087C6B0008BC
:1036E00070B5474B1A78002A7AD000221A70454AE2
:1036F000137801333021137081F31188424CD4F8D0
:103700008C30002B73DDD4F89030002B6FD13F4B01
:103710009968DA6841EA02000125C007C4F89050B0
:1037200016D53B48806810F00F0063D11E6826F064
:1037300001061E605E6822F0010221F0010126F000
:1037400001065E609960DA60324A5D61C2E900009C
:10375000314D2B6853B12846FDF722FDD4F88C304B
:10376000002B3ADBD4F89030002B36DD2B4A2A4868
:1037700000234FF4FA71C5E903236B61FEF788F863
:10378000D4F88C30002B28DBD4F89030002B24DDCB
:10379000234D2B6853B12846FDF702FDD4F88C3039
:1037A000002B1ADBD4F89030002B16DD1D4B1C4883
:1037B00000264FF4FA61C5E903366E61FEF768F83A
:1037C000D4F88C30B34218DDD4F89030B34214DD15
:1037D000C4F8906086F3118870BD1348FDF748FA6D
:1037E0000122124912481A70FFF74AFD7FE711487B
:1037F000FDF73EFA1048FDF73BFA1048FDF738FA9E
:10380000B90E0020B80E0020C00E0020003C014080
:1038100000380140380E00206C1B0020B117000852
:10382000841B0020413800080C6B0008846B0008E2
:1038300048090020146B0008486D0008246B00083C
:1038400038B5302383F311881E4CD4F88C30002B0C
:1038500032DDD4F890307BBB1B4D2B780122934294
:10386000C4F890201CD0022B13D118491848FFF738
:1038700007FDD4F88C30002293422A701FDDD4F863
:103880009030002B1BDD0023C4F8903083F31188A7
:1038900038BD10490E48FFF7F3FCD4F88C30EAE746
:1038A0000D4B1B780BB92B70E9E70C490848FFF763
:1038B000E7FCD4F88C30DEE70948FDF7D9F9094870
:1038C000FDF7D6F9C00E0020B80E0020B46B00083A
:1038D00048090020C86B0008B90E0020A06B000842
:1038E000146B0008246B00080000000000000000BA
:1038F00070B50D46B8B1044628601249204602F062
:1039000029FE215C222904EB000612D00D49304625
:1039100002F004FE98B1421C00232A600370337841
:1039200023B1304670BD0C68002CE6D1002630462D
:1039300070BD0136304603F06DF80028EBD12860E9
:10394000EDE700BFDC6B0008000000000000000095
:103950002DE9F04FDFF8D0A28268DAF80C10D0F829
:1039600000B0ABB0044600230190B0486568C86160
:103970001370A268AE491493CDE912335846E36838
:1039800004931193059210920B95FFF779FCA949C6
:103990005846FFF775FCDAF80C3093F8293013F02D
:1039A0000403029365D10DF16809CDF800B0A24976
:1039B0000098FFF765FC019B00251C682E464F46CA
:1039C000236801229B680DF13301204698470028A7
:1039D00045D09DF833101B292AD05EB15B293CD01D
:1039E00035B1412900F0F780422900F0D780002549
:1039F0002E46E5E708291DD07F291BD00D2900F0B0
:103A00003281092948D00E2900F0F180102900F0F8
:103A100021811F29D4D90DF1A7039F42D0D2236859
:103A20002046DB6898479DF8333007F8013BC7E72D
:103A30000126C5E74F45C3D023680821DB6820462F
:103A4000984723682021DB6820469847236808218F
:103A5000DB682046013F9847B2E73546B0E74FF4B0
:103A60007A70FFF7FDF9DAF80C3093F829305B072C
:103A70009DD5302383F31188DAE9233253EA020417
:103A800040F036826D4801232146CAF89030FDF798
:103A9000BFFF2046FFF7DCFA0DF1A70847458FD29C
:103AA000674B3E7093E803000DF1380B0E908DF8D4
:103AB0003C105846494602F0C7FE019B58455A68DB
:103AC0001B69039300F07C81191D07919B465D4B98
:103AD00006921846494602F0B7FE5A4B069A98429B
:103AE0005B4608BF43F8040BC2B1D2F800B0BBF18B
:103AF000000F13D00694089514465D469B46284651
:103B0000494602F0A1FE854208BF4BF8045B54F819
:103B1000085F002DF3D1069C089D5B46029A1A604F
:103B2000039BD3F800B0BBF1000F3FF449AF5B68D3
:103B3000A7EB09010691002B00F08D819BF800C0D6
:103B4000BCF1000F00F00582CDE908460A956446F5
:103B50005E46069DDDF80CC0DDF81CB0BE460020B8
:103B60001A5CA24208BF5A4605D13BB152F8043F45
:103B7000195CA142F9D0002B40F02F81C64505D237
:103B80008542DCBF0EF8014BDCF800600130345C8C
:103B9000002C00F05781DCF80430E1E701224946AF
:103BA00010A8FEF7DDFC00281ED18DF86800102358
:103BB0005222254909EB00072046FFF761FB234904
:103BC0002046FFF75DFB002521494A462046FFF7C6
:103BD00057FB2E46F4E60022494610A8FEF7C0FC2B
:103BE00000287FF704AFE2E7FFF601AFDFE701222D
:103BF000494610A8FEF7B4FC002840F0DE808DF89E
:103C0000686010235222104909EB00072046FFF795
:103C100037FB0E492046FFF733FB0D494A46204645
:103C2000FFF72EFBCCE600BFC00E0020E06B0008C3
:103C3000806C0008E86B0008FC6B0008681B002023
:103C4000486C0008246C0008106C00081C6C00080C
:103C5000206C00083246494610A8FEF781FC002877
:103C60007FF7AEAECDE72046A949FFF709FB049BDD
:103C7000A7EB0904013B9C424FDA631E09EB0302E8
:103C800019F8031020290AD1002C03DC45E0002B91
:103C900043D0013B12F8011D20291C46F7D0002C0F
:103CA0003BDDDDE91235DDE904100BE0EA1A0132F3
:103CB0008A1AA2420CDCC25C134401339942D8BF79
:103CC0005B1A01269D42F1DA5A1B013AA242F2DD4B
:103CD00006B11293049B5E1B013EA64205F1010052
:103CE00074DCDDF81480324649464044FCF786FC1B
:103CF000A21B09EB06014046FCF780FC059B049AD9
:103D00005C55631C2B449A42D8BF049A0599D8BFCE
:103D10009B1A029ACA5413931492029B3B700DA9EA
:103D20004846FFF7E5FD0DA90546002015AC002625
:103D3000FFF7DEFD50B1042E38D044F8040B0DA976
:103D400000200136FFF7D4FD0028F4D12AAB03EBA5
:103D5000860343F8540C002D3FF485AE6D49284688
:103D6000FCF7E2FA002840F0A880002E40F0C38063
:103D7000009C69492046FFF783FA684A6849204653
:103D8000FFF77EFA0B9B63B10B9C22684AB1644D2E
:103D9000009E29463046FFF773FA54F8082F002A90
:103DA000F7D15B490098FFF76BFA5CE65D49009834
:103DB000FFF766FA029B199355E6FFF601AE20E77E
:103DC000039B1860043307939B4680E6059B2246BD
:103DD00018444946FCF712FC90E7DDE908460A9DC5
:103DE00009EB000B029B8BF8003000283FF4E8AD94
:103DF000039B019A5B68D2F80080002B56D044499F
:103E00004046FFF73DFA039B1A6862B10394464FA0
:103E1000079C00E0043439464046FFF731FA226837
:103E2000002AF7D1039C3A494046FFF729FA3F4957
:103E30004046FFF725FA3E494A464046FFF720FA3A
:103E40005F46BDE5A446DDE90965089C09F800C0A8
:103E500009EB000BCCE75846CDF818B0FCF770FC26
:103E600009EB000B5F45014676D2A7EB0903069AE2
:103E7000DDF80CE00690A3EB070C3B4603E043455E
:103E8000B0D0DEF8002003EB0C01525C03F8012BEC
:103E90005B45F4D143450699A4D2013120221A7022
:103EA000029B09F8013009EB010BA1E73A462049D2
:103EB0004046FFF7E5F95F4682E518482946FCF7DA
:103EC00033FAF0B10B9B002B38D01868002835D09E
:103ED0001C4602E054F8080F80B32946FCF724FA88
:103EE0000028F7D16368009815AA31469847BAE5CB
:103EF0001048FCF7BDFE074A0F490098FFF7C0F9CC
:103F0000B1E5009815AA3146FFF7DAFBABE500BF33
:103F1000806C0008486C0008506C0008246C000895
:103F2000606C0008306C00082C6C0008FC6B00080A
:103F3000206C00081C6B0008706B0008009C07498F
:103F40002A462046FFF79CF905492046FFF798F9D5
:103F500089E58DF868C033E53B469EE7206C000894
:103F6000646C000800000000000000000000000079
:103F700010B50B4984B00446FFF782F900221146C0
:103F800001A802F067FA01AA83B206492046FFF7AA
:103F900077F905490548FFF773F904B010BD00BF74
:103FA0006C6C0008846C0008B06C000848090020A4
:103FB000704700BF0000000000000000000000008B
:103FC000704700BF0000000000000000000000007B
:103FD000FEE700BF0000000000000000000000003D
:103FE000F8B5154D154F16491648174A05F17004D6
:103FF00081420DD9043A034652F8046F43F8046B2A
:104000009942F9D84B1E1B1A23F0030304331844BA
:10401000874207D97A1E121A22F0030204320021C5
:1040200002F02AFAA54205D0D5E90420D5E9061701
:104030001035DDE7F8BD00BF18720008B81F00207A
:10404000B81F0020B81F00201C76000800000000E8
:1040500008B5064BD3E923210A4303D10122C3F853
:10406000902008BD0248FCF703FE00BFC00E0020F0
:104070001C6B0008000000000000000000000000B1
:1040800008B5074BD3F88C2032B9D3F8901000292B
:1040900002DDC3F8902008BD0248FCF7E9FD00BF2F
:1040A000C00E00203C6B0008000000000000000073
:1040B00008B5FFF7E5FF084B1A689A4203D10023C1
:1040C00083F3118808BDD96893688A689A42F6D24A
:1040D0000248FCF7CDFD00BFC00E0020246D000893
:1040E00038B5334CB4F8943013F0040545D0302380
:1040F00083F31188D4F88C30002B52DBD4F8902055
:10410000002A4ED10133C4F88C3082F31188294A39
:10411000536903F001035361C3B9302181F311885E
:10412000D4F88C30002B3FDDD4F89020002A3BD10E
:10413000013BC4F88C3082F31188B4F8943013F04A
:1041400004050AD0BDE83840FCF7AABC1A4A136837
:10415000002BE2D050689847DFE781F31188D4F84C
:104160009830164A9A6004211970FCF761FD85F3B6
:104170001188BDE83840FCF793BC302383F31188E5
:10418000D4F898300D4A9A6003211970FCF750FD5D
:1041900085F31188302383F31188D4F88C30002BF9
:1041A000ACDA0748FCF764FD0648FCF761FD00BF88
:1041B000C00E0020003C0140380E0020B86E000800
:1041C000B86C0008C06C000800000000000000008F
:1041D00038B5334CB4F8943013F0040545D030238F
:1041E00083F31188D4F88C30002B52DBD4F8902064
:1041F000002A4ED10133C4F88C3082F31188294A49
:10420000536903F002035361C3B9302181F311886C
:10421000D4F88C30002B3FDDD4F89020002A3BD11D
:10422000013BC4F88C3082F31188B4F8943013F059
:1042300004050AD0BDE83840FCF732BC1A4A93683E
:10424000002BE2D0D0689847DFE781F31188D4F8DB
:104250009830164A9A6004211970FCF7E9FC85F33E
:104260001188BDE83840FCF71BBC302383F311886C
:10427000D4F898300D4A9A6003211970FCF7D8FCE5
:1042800085F31188302383F31188D4F88C30002B08
:10429000ACDA0748FCF7ECFC0648FCF7E9FC00BF89
:1042A000C00E0020003C0140380E0020A06E000827
:1042B000B86C0008C06C000800000000000000009E
:1042C00038B5334CB4F8943013F0040545D030239E
:1042D00083F31188D4F88C30002B52DBD4F8902073
:1042E000002A4ED10133C4F88C3082F31188294A58
:1042F000536903F004035361C3B9302181F311887A
:10430000D4F88C30002B3FDDD4F89020002A3BD12C
:10431000013BC4F88C3082F31188B4F8943013F068
:1043200004050AD0BDE83840FCF7BABB1A4A136945
:10433000002BE2D050699847DFE781F31188D4F869
:104340009830164A9A6004211970FCF771FC85F3C5
:104350001188BDE83840FCF7A3BB302383F31188F4
:10436000D4F898300D4A9A6003211970FCF760FC6C
:1043700085F31188302383F31188D4F88C30002B17
:10438000ACDA0748FCF774FC0648FCF771FC00BF88
:10439000C00E0020003C0140380E00203C71000897
:1043A000B86C0008C06C00080000000000000000AD
:1043B00038B5334CB4F8943013F0040545D03023AD
:1043C00083F31188D4F88C30002B52DBD4F8902082
:1043D000002A4ED10133C4F88C3082F31188294A67
:1043E000536903F008035361C3B9302181F3118885
:1043F000D4F88C30002B3FDDD4F89020002A3BD13C
:10440000013BC4F88C3082F31188B4F8943013F077
:1044100004050AD0BDE83840FCF742BB1A4A93694C
:10442000002BE2D0D0699847DFE781F31188D4F8F8
:104430009830164A9A6004211970FCF7F9FB85F34D
:104440001188BDE83840FCF72BBB302383F311887B
:10445000D4F898300D4A9A6003211970FCF7E8FBF4
:1044600085F31188302383F31188D4F88C30002B26
:10447000ACDA0748FCF7FCFB0648FCF7F9FB00BF89
:10448000C00E0020003C0140380E002010710008D2
:10449000B86C0008C06C00080000000000000000BC
:1044A00038B5334CB4F8943013F0040545D03023BC
:1044B00083F31188D4F88C30002B52DBD4F8902091
:1044C000002A4ED10133C4F88C3082F31188294A76
:1044D000536903F010035361C3B9302181F311888C
:1044E000D4F88C30002B3FDDD4F89020002A3BD14B
:1044F000013BC4F88C3082F31188B4F8943013F087
:1045000004050AD0BDE83840FCF7CABA1A4A136A53
:10451000002BE2D0506A9847DFE781F31188D4F886
:104520009830164A9A6004211970FCF781FB85F3D4
:104530001188BDE83840FCF7B3BA302383F3118803
:10454000D4F898300D4A9A6003211970FCF770FB7B
:1045500085F31188302383F31188D4F88C30002B35
:10456000ACDA0748FCF784FB0648FCF781FB00BF88
:10457000C00E0020003C0140380E0020EC70000806
:10458000B86C0008C06C00080000000000000000CB
:1045900038B5414CB4F8943013F0040562D03023A0
:1045A00083F31188D4F88C30002B6FDBD4F8902083
:1045B000002A6BD10133C4F88C3082F31188374B59
:1045C0005D6905F478725A61AB0604D5344A936A82
:1045D0000BB1D06A9847680604D5314A136B0BB10A
:1045E000506B9847290604D52D4A936B0BB1D06BBD
:1045F0009847EA0504D52A4A136C0BB1506C9847CA
:10460000AB0518D4302181F31188D4F88C30002BFD
:104610003FDDD4F89020002A3BD1013BC4F88C3018
:1046200082F31188B4F8943013F004050AD0BDE881
:104630003840FCF735BA1A4A936C002BE2D0D06CA4
:104640009847DFE781F31188D4F89830154A9A60CB
:1046500004211970FCF7ECFA85F31188BDE83840A5
:10466000FCF71EBA302383F31188D4F898300D4A32
:104670009A6003211970FCF7DBFA85F31188302367
:1046800083F31188D4F88C30002B8FDA0648FCF7BE
:10469000EFFA0648FCF7ECFAC00E0020003C01409F
:1046A000380E0020A4700008B86C0008C06C000828
:1046B00038B5454CB4F8943013F0040569D0302374
:1046C00083F31188D4F88C30002B76DBD4F890205B
:1046D000002A72D10133C4F88C3082F311883B4B2D
:1046E0005D6905F47C425A616A0504D5384A136D48
:1046F0000BB1506D98472B0504D5354A936D0BB11E
:10470000D06D9847E80404D5314A136E0BB1506E52
:104710009847A90404D52E4A936E0BB1D06E9847E2
:104720006A0404D52A4A136F0BB1506F98472B04C3
:1047300018D4302181F31188D4F88C30002B3FDD60
:10474000D4F89020002A3BD1013BC4F88C3082F38E
:104750001188B4F8943013F004050AD0BDE838404D
:10476000FCF79EB91A4A936F002BE2D0D06F98479E
:10477000DFE781F31188D4F89830164A9A60042153
:104780001970FCF755FA85F31188BDE83840FCF73D
:1047900087B9302383F31188D4F898300D4A9A6092
:1047A00003211970FCF744FA85F31188302383F351
:1047B0001188D4F88C30002B88DA0748FCF758FAB7
:1047C0000648FCF755FA00BFC00E0020003C01402F
:1047D000380E002058700008B86C0008C06C000843
:1047E00038B52B4CB4F8943013F0040536D0302291
:1047F00082F31188D4F88C30002B43DBD4F890106E
:1048000000293FD10133C4F88C3081F3118882F341
:104810001188D4F88C30002B37DDD4F89010A1BB70
:10482000013BC4F88C3081F31188B4F8943013F054
:10483000040503D0BDE83840FCF732B982F3118893
:10484000D4F89830134A9A6004211970FCF7F0F9F3
:1048500085F31188BDE83840FCF722B9302383F393
:104860001188D4F898300B4A9A6003211970FCF72C
:10487000DFF985F31188302282F31188D4F88C3067
:10488000002BBBDA0448FCF7F3F90448FCF7F0F915
:10489000C00E002004700008B86C0008C06C00084E
:1048A00070B52C4CB4F8943013F0040538D0302592
:1048B00085F31188D4F88C30002B45DBD4F8902098
:1048C000002A41D10133C4F88C3082F31188FCF7FF
:1048D0005FF985F31188D4F88C30002B37DDD4F8DC
:1048E0009020A2BB013BC4F88C3082F31188B4F84D
:1048F000943013F0040603D0BDE87040FCF7D0B844
:1049000085F31188D4F89830134A9A6004211970FD
:10491000FCF78EF986F31188BDE87040FCF7C0B84B
:10492000302383F31188D4F898300B4A9A6003211E
:104930001970FCF77DF985F31188302585F311880E
:10494000D4F88C30002BB9DA0448FCF791F904480C
:10495000FCF78EF9C00E00209C6F0008B86C0008B0
:10496000C06C000800000000000000000000000013
:1049700038B52B4CB4F8943013F0040536D03022FF
:1049800082F31188D4F88C30002B43DBD4F89010DC
:1049900000293FD10133C4F88C3081F3118882F3B0
:1049A0001188D4F88C30002B37DDD4F89010A1BBDF
:1049B000013BC4F88C3081F31188B4F8943013F0C3
:1049C000040503D0BDE83840FCF76AB882F31188CB
:1049D000D4F89830134A9A6004211970FCF728F92A
:1049E00085F31188BDE83840FCF75AB8302383F3CB
:1049F0001188D4F898300B4A9A6003211970FCF79B
:104A000017F985F31188302282F31188D4F88C309D
:104A1000002BBBDA0448FCF72BF90448FCF728F913
:104A2000C00E0020446F0008B86C0008C06C00087D
:104A300070B52C4CB4F8943013F0040538D0302500
:104A400085F31188D4F88C30002B45DBD4F8902006
:104A5000002A41D10133C4F88C3082F31188FCF76D
:104A600097F885F31188D4F88C30002B37DDD4F813
:104A70009020A2BB013BC4F88C3082F31188B4F8BB
:104A8000943013F0040603D0BDE87040FCF708B87A
:104A900085F31188D4F89830134A9A60042119706C
:104AA000FCF7C6F886F31188BDE87040FBF7F8BF45
:104AB000302383F31188D4F898300B4A9A6003218D
:104AC0001970FCF7B5F885F31188302585F3118846
:104AD000D4F88C30002BB9DA0448FCF7C9F8044844
:104AE000FCF7C6F8C00E0020206E0008B86C000865
:104AF000C06C000800000000000000000000000082
:104B00002DE9F84F7A4CB4F8943013F0040535D001
:104B1000302181F31188D4F88C30002B42DBD4F89B
:104B20009020002A3ED10133C4F88C3082F31188E2
:104B30004FF080452B69EA681340DAB2D2439B07F5
:104B40002A6132D4302181F31188D4F88C30002BC3
:104B500040F39380D4F89020002A40F08E80013BEF
:104B6000C4F88C3082F31188B4F8943013F0040543
:104B700000F08680BDE8F84FFBF792BF302383F347
:104B80001188D4F898305B4A9A6003211970FCF7B9
:104B90004FF885F31188302181F31188D4F88C30D7
:104BA000002BBCDA5448FCF763F881F31188D4F881
:104BB0008C30002B74DDD4F890A0BAF1000F6FD1C7
:104BC0000123DFF838B1C4F89030D0464FF03009F7
:104BD0002669686AE769B268C11B914266D31744C7
:104BE000D6E90032E76113605A60C6F800A0236975
:104BF0005B4508BFC5F80CA0D4F88C30002B52DD03
:104C0000D4F89030002B4EDDC4F890A088F31188C2
:104C1000D6E903313046984789F31188D4F88C30AF
:104C2000002B3DDDD4F89030002B39D1736901227F
:104C3000C4F89020002BCBD0696ACA1B93424BD397
:104C4000206958454ED08268934209D9B04202D1BA
:104C500045E0864243D000689B1A82689342F8D8A8
:104C6000B36082683060D21A436873601E604FF090
:104C7000FF33C0E90162A361A8E72148FBF7F8FF11
:104C800081F31188D4F898301A4A9A600421197077
:104C9000FBF7CEFF85F31188BDE8F84FFBF700BFA7
:104CA0001848FBF7E5FF1848FBF7E2FF5E4505D023
:104CB000121AD119E061B160FCF742FAD4F88C30D5
:104CC000002BF0DDD4F89030002BECDD0023C4F88D
:104CD000903083F3118835E70C48FBF7C9FF0C4887
:104CE000FBF7C6FF5B1ADA193046FCF791FDE5E7E2
:104CF000C00E00203C6D0008B86C0008D00E0020EB
:104D0000C06C0008146B0008246B00086C6E00086F
:104D100064700008000000000000000000000000B7
:104D20002DE9F84FDFF8B882B8F8943013F0040496
:104D300000F05E81302383F31188D8F88C30002B8B
:104D4000C0F26B81D8F89020002A40F066810133D0
:104D5000C8F88C3082F31188A24E746D6769A3691C
:104D60001F4017F48059676140F08E81002F5ADB95
:104D70003B0500F11081BD040CD5D4F8083813F0C0
:104D8000060FE36823F470530CBF43F4105343F44D
:104D9000A053E360380704D57368DB680BB1914812
:104DA0009847F90200F18280BA0200F1C980FB063F
:104DB00056D43803D4F818480BD5E10300F1D48158
:104DC000A20300F1D781630300F1DA81260300F129
:104DD00027817D030BD5E00700F1D681A10700F103
:104DE000D981620700F1DC81230700F120813021A5
:104DF00081F31188D8F88C30002B40F3B281D8F8B9
:104E00009020002A40F0AD81013BC8F88C3082F33D
:104E10001188B8F8943013F0040400F0D180BDE894
:104E2000F84FFBF73DBED4F8003E9A0705D0D4F802
:104E3000003E23F00303C4F8003E96F85030337070
:104E400073681A68D4F8043823F00103C4F80438EE
:104E5000002A8DD06348052190473B058BD59AE009
:104E6000756D2B6A03F4F012B2F5802FC3F30A11AB
:104E700003F00F0300F0DF80B2F5402F99D106EB6D
:104E80008303DB681A6A002993D005F58055002357
:104E900048469E0708BF2868072B03F101039CBF03
:104EA00002F8010B000A9942F3D182E74FF0000C9F
:104EB000D6F854A0DFF830B14A486546012207E031
:104EC000B36D01359B68EDB29D42AC463FF66CAFC9
:104ED0000AEB4511D1F8003903F44023B3F5802FD4
:104EE000EED1D1F80039002BEADAD1F8003943F0DD
:104EF0009043C1F80039D1F80039002BFBDB716D0C
:104F00004FEA8C1C4CF020030B610B699B06FCD410
:104F1000DBF80410DBF804305B1A112BFAD906EB2E
:104F200085033189DB6802FA05FC9B6821EA0C01E4
:104F30003181002BC4D0294698472A480122BFE777
:104F4000D6F854A0274800254FF0010B06E0B36DBA
:104F500001359B68EDB29D423FF629AF0AEB451241
:104F6000D2F8003B03F44023B3F5802FEFD1D2F801
:104F7000003B002BEBDA06EB85030BFA05F1DB684F
:104F8000DA68738923EA01037381002ADFD0294696
:104F900090471448DBE7D6E91501FBF789FE337823
:104FA00086F850300522736832701B6813B10D48C3
:104FB000042198470023BD04B3607FF5EBAEDCE627
:104FC00081F31188D8F89830084A9A600421197042
:104FD000FBF72EFE84F31188BDE8F84FFBF760BDA8
:104FE000C00E0020D80D0020001000E0506F000817
:104FF000302383F31188D8F898306D4A9A600321E2
:105000001970FBF715FE84F31188302383F31188A0
:10501000D8F88C30002BBFF695AE6648FBF728FE1B
:105020000320FCF72DFB7D037FF5E1AED3E60320E3
:10503000FCF786FADBE6981C06EB80035B689B694D
:10504000D3E9002AA2EB0A0C9A68C1B105F5805594
:10505000AE4600234D4613F0030F08BFDEF80050A4
:105060009C4503F1010384BF02F8015B2D0A9942BC
:10507000F1D106EB800673689B69D3E901A20A446B
:105080005144C3E9011294E6022333702023C6E998
:105090000422F264B26186F83420B260236123698D
:1050A00013F02003FBD1444948684A68121A112AB8
:1050B000FBD9B56D0022C4F83428AF684FF0011257
:1050C000C4F81C284FF000604FF0FF3104EB43128E
:1050D0009F42C2F8000903F10103C2F8000BC2F8B5
:1050E0000819C2F8081BF1D12868606210232361F7
:1050F0002369D906FCD4304A516853685B1A112BD6
:10510000FBD9D4F800386D6823F4FE63C4F8003886
:10511000A36943F44023092243F01003A361C4F8B8
:105120001028C4F81428254A254BF26000214FF0BE
:10513000C042C4F8102BC4F8003BC4F81019C4F8DE
:10514000003900F11003AB42F3652DD873681B687A
:1051500040F48010A062002B3FF449AE19489847F4
:1051600045E61948FBF784FD0020FCF789FAA20305
:105170007FF529AE0120FCF783FA63037FF526AEA5
:105180000220FCF77DFA21E60020FCF7D9F9A107FF
:105190007FF527AE0120FCF7D3F962077FF524AE37
:1051A0000220FCF7CDF91FE60848FBF761FD00BFC0
:1051B000506F0008B86C0008001000E09C710008F7
:1051C00040800010D80D0020C06C0008646D0008FD
:1051D0006C4B6D4A196941F01F012DE9F04F1961BF
:1051E00019696A4EDFF8A8916A4D6B4CDFF8AC8103
:1051F000DFF8ACA121F01F0119611969196B41F0A9
:105200001F011963196D41F01F0119654FF4807179
:10521000186D51606FF0500191606249D1604FF696
:10522000FF776149576111624FF42A2151625F494A
:1052300011605F485F4900224FF0FF3C4FF0800B48
:1052400072604FF0553EC6F808C0C6F80C90776102
:1052500009F1FB0932627262C6F800B04FF0806655
:105260006A60C5F808C0C5F80CA06F612A626A625E
:105270002E606260C4F808C0C4F80CE06761226266
:10528000626222604260C0F808C0C0F80CE047616A
:105290000262426202604A604FF08050C1F808C06A
:1052A000C1F80C904F610A624A620A604FF40042F2
:1052B0001864C8F800201A6842F001021A601A68DF
:1052C0009407FCD599682F4A21F0030199609368EF
:1052D00013F00C03FBD110682A4900F0F9001060AC
:1052E0009360136843F4803313600B689803FCD514
:1052F0004B6F244A43F001034B67536F9907FCD56A
:105300002D4B53601368254943F0807313604B683D
:105310005A04FCD51B4A13689B01FCD5274B28482F
:1053200090600321C2F88C101A68264B9A421ED056
:10533000254B40F202721A60234A136803F00F03F0
:10534000022BFAD10F4A936843F0020393609368EB
:1053500003F00C03082BFAD1536C43F480435364DD
:10536000536E43F480435366536EBDE8F08F174A83
:10537000174B12689A42DBD1134B4FF481721A60BB
:10538000DAE700BF0038024000000240000402409B
:105390005554555500080240000C02400070004072
:1053A000555555010500156400775055A0A9802A70
:1053B00000100240001C024019544107002004E084
:1053C0000010883811640020003C024000ED00E02D
:1053D00041C20F410000000000000000000000007A
:1053E00070B5194C2668E0683368236001225C6060
:1053F00086F82820E660FBF71BFFB4F894309B0783
:1054000005460BD5EFF309832A6A243B9A4218D844
:1054100029463046BDE87040FAF762BF90F8283060
:10542000D4F89820C16AD160DB0043F00203137006
:105430009660FBF7FDFBEFF309832A6A243B9A424F
:10544000E6D90248FBF714FCC00E00202C6B0008C4
:1054500070B5334C3022E56882F31188D4E92321FA
:1054600011434ED10346286C0122C4F89020002835
:1054700044D08268AA4241D198423FD11E68DA687E
:105480002A64B3422FD0686C4AB111688A4203D0B3
:105490008968884238BF0846D268002AF5D1A860DA
:1054A0001868016C02681A605360C3E90201036462
:1054B000FCF72EFAD4F88C3033BBD4F89030002BA4
:1054C00022DD2268E36892689B689A420CD9FFF754
:1054D00087FFD4F88C301BB9D4F89030002B03DC54
:1054E0001048FBF7C5FB816023680022A342C4F883
:1054F00090200CD1002383F3118870BD0A48FBF77C
:10550000B7FB0A48FBF7B4FB0948FBF7B1FBE268BD
:105510009B6892689A42EDD20648FBF7A9FB00BF50
:10552000C00E00203C6B0008D06D00081C6B00080A
:10553000046B00081C700008000000000000000060
:10554000F8B5302383F31188704CD4E92332134328
:1055500034D10122C4F8902090F82A208AB3013A6D
:1055600080F82A20826A02F0FF120F2A08D02268EF
:10557000C4F89030A24227D1002383F31188F8BDEC
:10558000D0E904210A6051602268C4F89030A24238
:1055900040F09780002383F3118890F8293003F0BE
:1055A0000303012B33D0022BE9D1816C026A302333
:1055B00083F31188D4E9233003430DD05448FBF71B
:1055C00057FB5448FBF754FBE16893688A689A429A
:1055D000D2D25148FBF74CFB0123C4F8903000298C
:1055E00076D0002A74D08B68013B134070D10868D4
:1055F000106020680A60A042C4F89030BCD0E26815
:10560000836892689A42B7D24448FBF731FB066A36
:10561000002E53D0720751D156E902520732D208F8
:1056200046F8042C05F11407302282F31188D4E9DE
:1056300023210A43C2D13846C4F89030FDF740FD1B
:10564000D4F88C30002B55D1D4F89020002A51DDAD
:10565000C4F890302368A3424FD1A6F1080105F1A8
:105660000C04002383F311882346994220D29C42E4
:105670001A6801D0994219D90AB1914216D246F856
:10568000082C56F8042C196056F8080C013201EB6E
:10569000C204A04226D05868421C03EBC2029142C9
:1056A00019D03846BDE8F840FFF7D2BE1346DCE714
:1056B0005A68013203EBC2029142D8D21848FBF774
:1056C000D7FAE16893688A689A42BFF463AF80E7CB
:1056D0001448FBF7CDFA56E9021201320244C3E93D
:1056E0000012DEE744681444026846F8044C46F8A9
:1056F000082CD0E70C48FBF7BBFAE2689B6892687D
:105700009A42AAD20948FBF7B3FA00BFC00E0020A4
:105710001C6B0008C46E0008E86E00086C6F00087F
:10572000FC6D0008086E00083C6B00081C70000847
:105730002DE9F047302306460F4683F311885A4C73
:10574000FEF786FCA56AAB7E0133AB76FEF798FCCC
:105750002368A34240F09380A5F11000002383F357
:105760001188DFF848914FF030084FF0010A036AC2
:105770009E4200F08E8088F31188D4E923352B43B4
:1057800019D10269C4F890A04A4517D0937EFF2B27
:10579000A2F1100568D00133937623680022A3425A
:1057A000C4F8902063D1002383F31188FFF7C8FE6B
:1057B00035B12846DBE73E48FBF75AFA1D46ECE7D1
:1057C0004FF4B8725521304600F056FE302383F373
:1057D0001188FEF73DFCC6F8FC70364FC6F83C71E8
:1057E00006F5B877C6F84471334BE16AC6F81C3148
:1057F00006F1FC078023C6F82C710227C6F8283171
:10580000C6F8643106F5987206F5AA73A6F84871D1
:1058100006F5A8700127C6E95755C6F83091C6F8B5
:105820004061C6F80051C6F83841C6F8341186F810
:105830004A710A60C6E95533C6F8500106F5907002
:10584000E262FDF7BDFCD4F88C30FBB9D4F890309F
:10585000002B1BDD2368C4F89050A3421CD1002309
:1058600083F31188BDE8F0871448FBF701FA9A68C2
:10587000E3689B68934296D21148FBF7F9F9E26816
:105880009B6892689A42BFF467AFF5E70D48FBF753
:10589000EFF90D48FBF7ECF9E2689B6892689A42D1
:1058A000DDD20A48FBF7E4F9C00E0020E80E002024
:1058B0001C6B0008C86C0008F1020008086D0008A5
:1058C000886E00083C6B0008D46E0008E86E000883
:1058D00008B5302383F31188064BD3E923210A430B
:1058E00004D10122C3F89020FDF7B2FB0248FBF778
:1058F000BFF900BFC00E00201C6B000800000000B4
:10590000EFF30983203383F30988002383F311889D
:10591000704700BF00000000000000000000000011
:10592000BC4BBD481A6962F01F0280B51A611A6942
:1059300002F01F021A614FF0FF341A695A695C6164
:1059400000215A6959615A691A6A62F080521A62D2
:105950001A6A02F080521A621A6A5A6A5C625A6AB9
:1059600059625A6A1A6C42F080521A641A6E42F0F6
:1059700080521A661A6E026842F4807202601A6FD0
:1059800002F44072B2F5007F8CB003D04FF4803245
:105990001A671967A04CA14A6168A14E6023402094
:1059A00021F40071616082F806338024C2F880011E
:1059B0004FF4007110604FF4807082F80733C2F822
:1059C0008041146082F808334FF48064C2F880018B
:1059D000106082F80933C2F8801111604FF40001A1
:1059E00082F80A334FF08075C2F88041146082F863
:1059F0001733C2F88011116082F8283370214FF0FC
:105A00000073C2F884014FF08064506082F818136C
:105A10004FF08050C2F88051156082F81913C2F817
:105A2000803113604FF0006382F81A13C2F880418E
:105A3000146082F81B13C2F88031136082F81C13C3
:105A40003346C2F8800106F1800110600022C3E9EC
:105A5000002208338B42FAD1724BDFF8CC817348B5
:105A60005A6001211970D8604FF0A043C8F8543033
:105A70006F4BC8F85830674B88F80010186CC8F89E
:105A80001C200843C8E90122C8F82820C8F82020B3
:105A9000C8F82C20C8F82420C8F830201864186EE4
:105AA000644C654F084318661B6EA3680B43A360E4
:105AB0004FF080434FF0FF3042F2CF04BA609C6257
:105AC000D8629A615A63DA605A6059611960397014
:105AD0000023CDE90602CDE908220022CDE90A2300
:105AE000042406A8FAF7ACFFFAF7B2FF013CF8D19C
:105AF0005249534A5348DFF85091544B544D9C60DF
