:020000040800F2
:1000000000040020D9020008DB020008DB0200081F
:10001000DB020008DB020008DB020008DB0200084C
:10002000DB020008DB020008DB0200088170000828
:10003000DB020008DB020008DB020008DB0200082C
:10004000DB020008DB020008DB020008DB0200081C
:10005000DB020008DB020008615800085159000863
:10006000415A0008315B0008215C0008DB020008EF
:10007000DB020008DB020008DB020008DB020008EC
:10008000DB020008DB020008DB020008DB020008DC
:10009000DB020008DB020008DB020008115D00083B
:1000A000DB020008DB020008DB020008DB020008BC
:1000B000615F0008DB02000881610008DB020008C4
:1000C000DB020008DB020008DB020008DB0200089C
:1000D000DB020008DB020008DB020008DB0200088C
:1000E000315E0008DB020008DB020008DB020008CA
:1000F000DB020008DB020008DB020008DB0200086C
:10010000DB020008DB020008DB020008DB0200085B
:10011000DB020008DB020008DB020008DB0200084B
:10012000DB020008DB020008DB020008DB0200083B
:10013000DB020008DB020008DB020008DB0200082B
:10014000DB020008DB020008DB0200088162000815
:10015000DB020008DB020008DB020008DB0200080B
:10016000DB020008DB020008DB020008DB020008FB
:10017000DB020008DB020008DB020008DB020008EB
:10018000DB020008DB020008DB020008DB020008DB
:10019000DB020008DB020008DB020008DB020008CB
:1001A000DB020008DB020008DB020008DB020008BB
:1001B000DB020008DB020008DB020008DB020008AB
:1001C000DB020008DB020008DB020008DB0200089B
:1001D000DB020008DB020008DB020008DB0200088B
:1002000072B6264880F30888254880F30988254877
:1002100025490860022080F31488BFF36F8F05F032
:1002200087FA06F085FA4FF0553020491B4A914273
:100230003CBF41F8040BFAE71D49194A91423CBF03
:1002400041F8040BFAE71B491B4A1C4B9A423EBF7C
:1002500051F8040B42F8040BF8E700201849194A3A
:1002600091423CBF41F8040BFAE705F079FA05F03A
:1002700067FA154C154DAC4203DA54F8041B884755
:10028000F9E706F00DFF124C124DAC4203DA54F8B8
:10029000041B8847F9E705F05BBA00000004002062
:1002A000000800200000000808ED00E00000002029
:1002B00000040020509F0008000800203C09002096
:1002C0004009002024200020E0010008E00100088F
:1002D000E0010008E001000892E700F000F8FEE706
:1002E0002DE9F04FC1F80CD0C3689D46BDE8F08FF2
:1002F00005F086FA002383F311882846A0470020E2
:1003000006F0A6FEFEE705F063FA06F019FB05F01D
:1003100077FA00DFFEE700000000000000000000A8
:10032000A2EB0300704700BF02780B78012A28BFB8
:100330009A42F5D16DE9044540EA0104CDE902672E
:100340006FF0000C4FEA447212B380EA010414F01B
:10035000070F6AD100F0070420F0070004F003053E
:1003600021F007014FEAC505F0E8042314F0040F5B
:10037000F1E804670CFA05F462EA040266EA04068E
:100380000AD063EA0403624667EA0407664603E0AC
:10039000F0E80423F1E8046782FA4CF582EA0604E7
:1003A000A4FA8CF46CBB83FA4CF583EA0705A5FA32
:1003B0008CF595B950E9022351E9026782FA4CF5B0
:1003C00082EA0604A4FA8CF483FA4CF583EA070562
:1003D000A5FA8CF52543DBD09CB92DBAB5FA85F486
:1003E00024F0070427FA04F1DDE9026723FA04F395
:1003F00003F0FF0001F0FF01FDE80445A0EB010060
:10040000704724BAB4FA84F424F0070426FA04F1FD
:10041000DDE9026722FA04F202F0FF0001F0FF01B9
:10042000FDE80445A0EB0100704714F0030F3CD138
:1004300010F0030428D150F8082B51F8083B82FA39
:100440004CF582EA0305A5FA8CF55DB950F8042C49
:1004500051F8043C82FA4CF582EA0305A5FA8CF5C2
:10046000002DE8D02DBAB5FA85F424F0070423FA5C
:1004700004F122FA04F202F0FF0001F0FF01FDE8AE
:100480000445A0EB010070474FEAC40420F00300CC
:1004900050F8082B21F0030151F8083B0CFA04F442
:1004A00062EA040263EA0403C9E710F003041AD005
:1004B000A1EB040120F00300E40750F8042B06D060
:1004C0000FD28B785FFAA2F4E41A06D12BB1CB7865
:1004D0005FFAB2F4E41A00D11BB920465DF8104B64
:1004E000704701F1040150F8042BCC0721F00301FF
:1004F00051F8043B48D824D222F07F4482FA4CF5CC
:1005000094EA1325A5FA8CF50AD165B951F8043B94
:1005100084EA0204B4EB036F0ED150F8042BEBE72E
:100520004FEA132355E035F07F454DD10878FDE8BB
:100530000445C0F1000070474FEA126203F0FF0368
:1005400047E002EA1C4482FA4CF594EA1345A5FA06
:100550008CF50AD165B951F8043B84EA0204B4EB86
:10056000034F0CD150F8042BEBE74FEA134330E074
:1005700015EA1C4528D10B884FEA124229E04FEAC0
:10058000124203EA1C4324E002F0FF0482FA4CF515
:1005900094EA1365A5FA8CF50AD165B951F8043BC4
:1005A00084EA0204B4EB032F09D150F8042BEBE7E3
:1005B0004FEA13630DE015F0FF0F05D10B684FEA0A
:1005C000122223F07F4304E04FF00000FDE80445D1
:1005D000704712BA1BBA82FA4CF482EA0304A4FAF6
:1005E0008CF5B5FA85F402FA04F203FA04F34FEA43
:1005F0001260FDE80445A0EB13607047844641EAB1
:10060000000313F003036DD1403A41D351F8043B8A
:1006100040F8043B51F8043B40F8043B51F8043BDC
:1006200040F8043B51F8043B40F8043B51F8043BCC
:1006300040F8043B51F8043B40F8043B51F8043BBC
:1006400040F8043B51F8043B40F8043B51F8043BAC
:1006500040F8043B51F8043B40F8043B51F8043B9C
:1006600040F8043B51F8043B40F8043B51F8043B8C
:1006700040F8043B51F8043B40F8043B51F8043B7C
:1006800040F8043B51F8043B40F8043B403ABDD2EB
:10069000303211D351F8043B40F8043B51F8043B8D
:1006A00040F8043B51F8043B40F8043B51F8043B4C
:1006B00040F8043B103AEDD20C3205D351F8043B1C
:1006C00040F8043B043AF9D2043208D0D2071CBFE8
:1006D00011F8013B00F8013B01D30B880380604611
:1006E000704700BF082A13D38B078DD010F0030387
:1006F0008AD0C3F10403D21ADB071CBF11F8013BF7
:1007000000F8013B80D331F8023B20F8023B7BE745
:10071000043AD9D3013A11F8013B00F8013BF9D270
:100720000B7803704B7843708B788370604670470A
:1007300000000000000000000000000000000000B9
:1007400090F800F06DE9024520F007016FF0000C11
:1007500010F0070491F820F040F049804FF00004B9
:100760006FF00700D1E9002391F840F000F1080094
:1007700082FA4CF2A4FA8CF283FA4CF3A2FA8CF3CC
:100780004BBBD1E9022382FA4CF200F10800A4FA33
:100790008CF283FA4CF3A2FA8CF3E3B9D1E9042387
:1007A00082FA4CF200F10800A4FA8CF283FA4CF3BE
:1007B000A2FA8CF37BB9D1E9062301F1200182FA78
:1007C0004CF200F10800A4FA8CF283FA4CF3A2FA7E
:1007D0008CF3002BC6D0002A04BF04301A4612BA8C
:1007E000B2FA82F2FDE8024500EBD2007047D1E98F
:1007F000002304F00305C4F100004FEAC50514F01E
:10080000040F91F840F00CFA05F562EA05021CBFEE
:1008100063EA050362464FF00004A9E70000000008
:10082000704700BF00000000000000000000000052
:100830002DE9F043002302F003054FEA521E4FF06A
:100840000F080127032609E0046A24EA0202026273
:1008500049082CD04FEA8E0EAD00013303F0070299
:100860004FEA430C920011F0010F07FA03F906FA60
:100870000CFC08FA02F2EBD0446824EA0904446054
:10088000846824EA0C048460C46824EA0C0444EA02
:100890000E04C460046824EA0C042C43072B046093
:1008A000D2D9446A490824EA02024262D2D1BDE8A0
:1008B000F08300BF00000000000000000000000006
:1008C00000EB810310B4DA6893691C68DC6019B925
:1008D000402C84BF40241C60538A1268406D02F093
:1008E000030C5A1E2244B2FBF3F202FB03F3033360
:1008F00023F0030343EAC24300EB411243F0C04339
:10090000BCF1010FC2F8103B0AD009B200EB411054
:1009100010BCD0F8003B43F00443C0F8003B7047E4
:10092000D0F8083800EB411213F4807FD2F8003B76
:1009300014BF43F0805343F0005309B2C2F8003BA8
:10094000E4E700BF0000000000000000000000001D
:1009500000EB810310B4DC6862691368D360EBB903
:10096000426D02EB41134FF40020C3F810092368D5
:1009700003F00303012B2BD008B202EB401001233C
:10098000D0F8004944F00444C0F800498B40D2F844
:10099000341810BC0B43C2F83438704719B9402BD7
:1009A00084BF40231360B4F810C0426D0CF1FF30D7
:1009B0001844B0FBFCF043EAC04302EB411043F0A3
:1009C0000053C0F81039236803F00303012BD3D17F
:1009D000D2F8083813F4807F02EB411308B2D3F841
:1009E000004914BF44F0805444F00054C3F8004957
:1009F000C3E700BF0000000000000000000000008E
:100A0000FEE700BF00000000000000000000000042
:100A1000014B5B6883607047001000E0000000003D
:100A20000E4A0F4B81685B6810B4946802691B1B07
:100A30005B1AD218416902614268C46841F1000141
:100A40009342026888BF436001349342C0E9023494
:100A5000416110BC38BF0360704700BFE818002038
:100A6000001000E000000000000000000000000096
:100A7000302383F311880D4B5B6813F4006302D1BC
:100A800083F311887047EFF30983203B4FF08072A6
:100A9000DA6183F30988064A1168D2688968926826
:100AA00091428CBF034A044A9A61704700ED00E00E
:100AB000C80E002007030008120300080000000011
:100AC000012809D0022815D060B10D490D4B032033
:100AD000002208701A70704709490A4B08700D22ED
:100AE0001A807047074B0649987040F60D2208702F
:100AF0001A8070470249034B08700A221A80704717
:100B00000308002038190020000000000000000049
:100B10000E490F480F4A002330B40B700E4C0F499A
:100B200023700B700E4C0F4903700F4D0F4823704C
:100B300040F60D2CA2F800C093704FF4966C0B7029
:100B40002B70A0F800C030BC704700BF0408002024
:100B50003B1900203819002000080020030800205D
:100B600002080020010800200F08002012080020C1
:100B7000014B01221A707047D51B002000000000B5
:100B80002DE9F041524F534CDFF84C8101224FF4D4
:100B9000004138464FF40045FFF74AFE01224FF46A
:100BA000804120467D83FFF743FE4FF480464B4B48
:100BB00066831B78012231463846002B49D0FFF767
:100BC00037FE3E8301224FF400714046FFF730FEAE
:100BD0004FF40073A8F81A302022FF212046FFF7B7
:100BE00027FE012229464046FFF722FE204620220A
:100BF0004FF48051A8F81850FFF71AFE20224FF446
:100C00000051FFF715FE4FF4806601224FF480611A
:100C1000FFF70EFE01224FF4807140466683FFF716
:100C200007FE4FF48073A8F81A30012229462046A7
:100C3000FFF7FEFD2022314640462583FFF7F8FDF1
:100C400001220221FFF7F4FD0223A8F81A30BDE8C3
:100C5000F081FFF7EDFD40467E8301224FF40071E5
:100C6000FFF7E6FD4FF40073A8F818302046202265
:100C7000FF21FFF7DDFD294640462022FFF7D8FD82
:100C8000204620224FF48051FFF7D2FD20224FF45E
:100C90000051FFF7CDFD20224FF48061FFF7C8FD22
:100CA000404620224FF48071FFF7C2FD29462046BE
:100CB0002022FFF7BDFD20224FF480614046FFF760
:100CC000B7FDBDE8F04120220221FFF7B1BD00BF12
:100CD000000802400004024000000240100800200A
:100CE000022906D0032906D00129074818BF002091
:100CF000704706487047032A03D8054800EBC20036
:100D000070470020704700BF509D0008FC9C000801
:100D1000D89D000800000000000000000000000056
:100D200090F8443003F01F02012A03D190F84510D7
:100D30000B291BD003F06003202B01D0002070474B
:100D400090F84530212B09D81F2BF7D90A490722E3
:100D50000023C0E90E12036401207047222BEDD15D
:100D60000023C0E90E330364012070470023C0E96B
:100D70000E3303641046704708080020000000008E
:100D80000B4A0C48D2F898304FF08041496A5960BC
:100D90004068196860F31F2143F8101B02F69C009D
:100DA00002F19C01834228BF0B46C2F8983070477D
:100DB000C80E0020001000E000000000000000004D
:100DC00008B5044672B6094DB5F894301B0705D531
:100DD000074BC5F8884003221A70FEE7D5F8983013
:100DE00005221A709860FFF7CBFFF1E7C80E0020CC
:100DF000E8180020000000000000000000000000D3
:100E000070B400228E684FF0FF3400E0624600EBC1
:100E100042110B46D1F80059002D02F1010C05DA00
:100E2000D1F8005945F08045C1F80059D1F8005B70
:100E3000002D05DAD1F8005B45F08045C1F8005B74
:100E4000B242C3F80849C3F8084BDFD14FF0011391
:100E500070BCC0F81C3870470000000000000000A3
:100E6000124BD3F88C2010B5D2B9D3F89030002BA8
:100E700016DDC368BBB1D0E90531D0F81CC0C2682B
:100E800063448B42436124BF436A4361013A036B6D
:100E9000C2600022826213B1BDE81040184710BD45
:100EA0000348FFF78DFF0348FFF78AFFC80E0020B5
:100EB00060840008B49900080000000000000000F1
:100EC000154BD3F88C2010B512BBD3F89030002B03
:100ED0001EDDC9B1C369043B8B4215D3C3689BB106
:100EE000036984691960C169C2680B44A342036144
:100EF00024BF436A0361013A036BC260002282622D
:100F00002BB1BDE8104018470448FFF759FF10BD4A
:100F10000348FFF755FF00BFC80E0020F0960008F9
:100F200060840008000000000000000000000000D5
:100F300008B530B129B1012901D0002008BD002A2F
:100F4000FBD00148FFF73CFF289900080000000093
:100F5000124AD2F88C10002910B518DBD2F8902074
:100F6000002A14DD0346A8B10278042A12D1806851
:100F7000996D00220C68DC6500F001109860BDE8F6
:100F80001040C3E90422586D9A61FFF739BF044845
:100F9000FFF716FF0348FFF713FF00BFC80E00203E
:100FA00068840008D89900080000000000000000D4
:100FB000F8B5144DD5F88C60002E20DBD5F8905094
:100FC000002D1CDDC0B1032916D846894FF0010C55
:100FD0000CFA01FC1CEA06051FFA8CF70CD100EB99
:100FE00081043E43E4684681A469C4E90035A260F7
:100FF000BDE8F840FFF764BC0348FFF7E1FE034893
:10100000FFF7DEFEC80E00208499000868840008FF
:10101000F8B5144DD5F88C60002E20DBD5F8905033
:10102000002D1CDDC0B1032916D806894FF0010C34
:101030000CFA01FC1CEA06051FFA8CF70CD100EB38
:1010400081043E43E46806816469C4E90035A26016
:10105000BDE8F840FFF77CBC0348FFF7B1FE03484A
:10106000FFF7AEFEC80E0020309900086884000823
:10107000436BD3F88C2410680178042902D1197AC3
:10108000022900D070471179B0F808C001228A40C7
:1010900012EA0C0FF6D10E4A10B5D2F88C40002C93
:1010A00013DBD2F89020002A0FDDD3E915429442D9
:1010B00005D0BDE8104052F8043BFFF7A9BF1B6DF7
:1010C000002BF6D00348FFF77BFE0348FFF778FEBE
:1010D000C80E00207899000868840008000000000D
:1010E00070B590F83430063B0446052B04D8DFE891
:1010F00003F036030306132F3348FFF761FEC36B7B
:10110000B0F84A20934207D2C268128AB3FBF2F1C8
:1011100002FB1133002B3BD0142384F834303023EE
:1011200083F31188294ED6F88C30002B2DDDD6F8AC
:10113000905055BB0122C6F890202B4620462A46E7
:101140002946FFF735FFC6F8905085F3118870BD2A
:10115000036C03B19847002384F8343070BD436DAD
:101160004168D3F800290D6842F40012C3F8002941
:10117000D3F8002B42F40012C3F8002B0DB1062166
:10118000A847062384F8343070BD1148FFF718FED5
:10119000302383F311880D4ED6F88C30002BF4DD0C
:1011A000D6F89050002DF0D10122C6F890202B46A1
:1011B0002A462946FFF72CFFC6F8905085F3118880
:1011C0000A2384F8343070BD64970008C80E0020EC
:1011D0007084000800000000000000000000000013
:1011E00038B590F834101429044606D0152924D0B7
:1011F00006290DD02048FFF7E3FDC3689B695B68B3
:101200002BB9036C03B19847002384F8343038BD00
:10121000436DD3F8002942F40012C3F80029D3F833
:10122000002B42F40012C3F8002B43681B6803B183
:101230009847062384F8343038BD0B2380F83430C7
:10124000302383F311880D4DD5F88C30002B0FDD42
:10125000D5F8904064B90122C5F890202346224673
:101260002146FFF7D5FEC5F8904084F3118838BDBC
:101270000348FFF7A5FD00BF68960008C80E0020D0
:101280007084000800000000000000000000000062
:101290004FF080430229DA6838BF0221920710B567
:1012A00000EB01041BD55C635A6A101A814298BF97
:1012B000022101D910BD0246D8680131800701EB37
:1012C00002040CD55C63586A821A8A42F3D202295E
:1012D000F0D9044A536B43F00103536310BD024835
:1012E000FFF76EFDC80E0020E49600080000000025
:1012F0001F4A38B5D2F88C30002B2FDBD2F8903053
:10130000002B2BDD036863B3116988420CD0D0E950
:101310000145996823602944C3E9014100214FF048
:10132000FF330160936138BD1146002541F8103F3D
:101330005960056014698C4216D08068A3684FF02C
:1013400080410344A360486AD169421A9342EAD9B2
:10135000091A1944BDE83840FFF79ABF0548FFF75E
:101360002FFD0548FFF72CFD4FF08043DD6038BDB1
:10137000C80E002068840008E898000800000000FB
:1013800010B590F828301BB30F2B21D0124AB2F8B9
:101390009410C90704460FD50022A369A16884F8F8
:1013A00028201B689A688A42FBD85A682046C4E9FC
:1013B000003214605C6010BDD2F89820C16ADB0076
:1013C00043F00103C2E902011370FFF7D9FCE3E720
:1013D0000248FFF7F5FC00BFC80E0020D0960008B9
:1013E0002D4AD2F88C30002B70B551DBD2F89030FA
:1013F000002B4DDD41684B0747D1836813F007048C
:1014000043D1994241D25D1AEF2D3ED9C568FF2DD7
:101410003BD80669CEB343F8301C43F8746C41697D
:1014200043F8701C4FF0020C0126016843F8485C39
:1014300003F828CC03F8266C43F80C5C03F8274C1F
:10144000164D43F82C3C43E90544D46A43F8545CF8
:10145000A3F17405A3F1400043F8445C02F12805B0
:1014600043F8341C43F83C4C43F8382CA3F11C01DE
:1014700043F8405C2060A3F12004D06243E90841B6
:10148000A3F1500043F8181C70BD0548FFF798FC05
:101490000448FFF795FC00BFC80E0020F1020008C9
:1014A0002098000868840008000000000000000088
:1014B00038B5302383F311881A4BD3E9234554EA16
:1014C000050C20D10124C3F89040F9B101F1FF3C93
:1014D0001CEA010C1AD1144C65684942281A0840CC
:1014E0002168821A8A420CD395420AD362601A6834
:1014F00000219A42C3F890100BD1002383F3118886
:1015000038BD6046F3E70948FFF75AFC0848FFF783
:1015100057FCD96893688A689A42EED20548FFF76B
:101520004FFC00BFC80E0020E0180020788400089F
:1015300028970008509600080000000000000000F6
:10154000104BD3F88C20002A10B515DBD3F890305F
:10155000002B11DD99B14B1E0B4010D10A4A546883
:101560004942201A08401168884203D3844201D3BB
:10157000506010BD184610BD0448FFF721FC044818
:10158000FFF71EFCC80E0020E01800206884000849
:101590002897000800000000000000000000000084
:1015A00070B5302383F31188304CD4F88C30002B85
:1015B00050DDD4F89030002B4CD12D4BD3F88C1447
:1015C00001220868C4F8902090F800C0BCF1040F14
:1015D0000BD193F808C0BCF1020F06D10979B0F81D
:1015E00008C08A4012EA0C0F05D00023C4F89030DE
:1015F00083F3118870BDD3E915529542F5D11D6D65
:10160000002DF2D0DD6E002DEFD0043DAD1AECD0F0
:1016100015601D6DDE6D013D1D651D6E1544B542E5
:101620005D6524BF9D6E5D65D4F88C500026B54283
:10163000DE6618DBD4F89060002E14DD5E6DB242D9
:101640000BD052F8043BFFF7E3FC002DCDD1094845
:10165000FFF7B6FB0848FFF7B3FB1B6D002BF0D07C
:101660000648FFF7ADFB0648FFF7AAFBC80E0020AF
:10167000500900208084000870840008209600082B
:101680006884000800000000000000000000000066
:101690002DE9F047484F7E6D06EB40130546D3F821
:1016A0000849C3F80849E1074FEA401919D5D6F8A7
:1016B0001038DA0715D507EB8003D9684B6918682D
:1016C000DA68904257D33B89D1F808800122AA40BA
:1016D00023EA02033B81B8F1000F02D029463846C5
:1016E000C047230608D5D6F834384FF0010E0EFA5D
:1016F00005FE13EA0E0F01D1BDE8F08707EB850365
:10170000D7F85480D9684E69D6E900349C422BD270
:101710006A1CD2B20F8A08EB023208EB090C1B1BC1
:10172000BB4228BF3B461C46DCF818399BB2B4EBE1
:10173000830FE1D8B568002C38D02B681360042CD7
:101740000AD9601F20F00300043028442B4653F8C8
:10175000041F11609842FAD1736825441C44336811
:10176000B560A3427460DAD8D8F8343823EA0E039F
:10177000C8F83438C0E7121A1A6000225A603023C1
:1017800083F31188DFF83480D8F88C30934210DD71
:10179000D8F890A0BAF1000F0BD129463846FFF7D0
:1017A000D7F8C8F890A08AF311889AE70448FFF7A1
:1017B00007FB0448FFF704FBE00D0020C80E0020E3
:1017C00094970008708400080000000000000000EA
:1017D0002DE9F0412A4F7E6D06EB40130446D3F805
:1017E000085BC3F8085B280703D5D6F81438190737
:1017F0003BD4EA0737D5D6F81438DB0733D507EBE7
:101800008403D9688A6954B9488A5368B3FBF0F5F0
:1018100000FB15331BB91068D36898420DD37B8940
:10182000CD680122A24023EA02037B81DDB121467B
:101830002B461348BDE8F04118471B1AC2E9003493
:10184000302383F311880F4DD5F88C30002B14DD35
:10185000D5F890308BB90A482146FFF731F8C5F822
:10186000904084F31188BDE8F08107EB84032146A2
:10187000DB6838465B689847BBE70348FFF7A0FA88
:10188000E00D0020C80E0020708400080000000059
:1018900008B5154B9A68D10723D4DA68D20720D44B
:1018A00012498A6822F00F028A6001289A6810D1D2
:1018B00042F001029A60DA6822F00102DA600A4B13
:1018C0001A6842F001021A605A6822F001025A6056
:1018D00008BD22F001029A60DA6842F00102DA6083
:1018E000EDE70348FFF76CFA003C01400038014087
:1018F0007C970008000000000000000000000000CD
:1019000010B5302383F311880F4CD4F88C30002BA2
:1019100016DDD4F890309BB90C4B1B780120C4F82D
:1019200090005BB1FFF7B4FF094A0A490023C2E9FE
:101930000013C4F8903083F3118810BD0220F1E742
:101940000548FFF73DFA00BFC80E0020C10E002079
:10195000400E0020711B0008708400080000000089
:1019600010B5302383F31188164AD2E923310B4393
:1019700019D115480178023901240229C2F8904092
:1019800014D8C168022404700B600B61C868146825
:1019900020F0FF009442C860C2F8903009D10023C3
:1019A00083F3118810BD0948FFF70AFA0848FFF7CA
:1019B00007FAD268A36892689A42F0D20548FFF706
:1019C000FFF900BFC80E00204009002078840008FD
:1019D00054970008CC9900080000000000000000A7
:1019E00070B5302383F311881A4BD3E923210A43BE
:1019F00021D1194C217801250229C3F890501DD11D
:101A000061684E68E1680138C8624D614A620A61E6
:101A1000032222701EB1CA6842F00102CA601A682D
:101A2000852400209A420C60C3F8900009D100235D
:101A300083F3118870BD0948FFF7C2F90848FFF722
:101A4000BFF9D96893688A689A42F0D20548FFF7CF
:101A5000B7F900BFC80E00204009002078840008B4
:101A6000BC980008CC9900080000000000000000AD
:101A700038B51C4C04F11003E161436023698260B6
:101A8000036058604FF080432061D868022A38BF55
:101A9000022210F0020001EB02051CD15D63186107
:101AA0000220D8605D6AA5EB010C624502D938BD01
:101AB00029461546DA680130920701440ED559636C
:101AC0005A6A511B8142F3D20228F0D9636B43F06A
:101AD0000103636338BD0448FFF772F90348FFF759
:101AE0006FF900BFC80E002038980008E49600087F
:101AF000F8B54FF080431C4FD3F824C03B460A464C
:101B000053F8105F9D422AD0FC69AB68ACEB04042B
:101B10000C1928BF0C46A34206461BD89C4209D983
:101B2000B54202D113E0AE4211D02D68E41AAB6881
:101B30009C42F8D86B68B460C6E900531E60AB687D
:101B40006E601B1B4FF0FF32AB60BA61F8BD0748F7
:101B5000FFF736F96046FFF79BFBAB68DEE7BDE8B1
:101B6000F8406146FFF784BFC80E0020A499000822
:101B700070B54448444903780A78B3FA83F35B09A3
:101B8000013203700A70302383F311883F4CD4F87C
:101B90008C30002B6CDDD4F89030002B68D13C4B9E
:101BA0009968DA6841EA02000125C007C4F890503C
:101BB00016D53848806810F00F005CD11E6826F0FA
:101BC00001061E605E6822F0010221F0010126F08C
:101BD00001065E609960DA602F4A5D61C2E900002B
:101BE0002E4D2B6853B12846FFF782FBD4F88C307A
:101BF000002B3ADBD4F89030002B36DD284A2748FA
:101C000000234FF4FA71C5E903236B61FFF770FFFE
:101C1000D4F88C30002B28DBD4F89030002B24DD56
:101C2000204D2B6853B12846FFF762FBD4F88C3067
:101C3000002B1ADBD4F89030002B16DD1A4B194814
:101C400000264FF4FA61C5E903366E61FFF750FFD5
:101C5000D4F88C30B34211DDD4F89030B3420DDDAE
:101C6000C4F8906086F3118870BD1048FFF7A8F89B
:101C70000F48FFF7A5F80F48FFF7A2F80E48FFF747
:101C80009FF800BFC10E0020C00E0020C80E00202B
:101C9000003C014000380140400E0020D81B0020CD
:101CA00001190008F01B0020B1200008688400081A
:101CB00070840008809600088084000800000000FE
:101CC00010B590F8283013B30F2B20D0114AB2F87A
:101CD0009410C90704460ED50022A369A16884F8B0
:101CE00028201B689A688A42FBD25A68C4E90032ED
:101CF00014605C6010BDD2F89820C16ADB0043F02C
:101D00000103C2E902011370FFF73AF8E4E7024861
:101D1000FFF756F8C80E0020F898000800000000F1
:101D200010B5302383F311881F4CD4F88C30002B6E
:101D300036DDD4F89030002B32D10123C4F8903036
:101D400091F8283008460C2B10D8DFE803F01C0F60
:101D50000F220B070F0B0F0F0F0F0B00CA6A9368B0
:101D600001339360D0E9003213605A604FF0FF33C3
:101D7000C362FFF7A5FFD4F88C30002B0DDDD4F83B
:101D80009030002B09DD0023C4F8903083F31188D4
:101D900010BDCB6A00221A60E8E70448FFF710F88C
:101DA0000348FFF70DF800BFC80E0020808400082C
:101DB0007084000800000000000000000000000027
:101DC0002DE9F041244FD7F88C30002B35DBD7F8C4
:101DD0009030002B31DD0468A042064620D00D462D
:101DE0004FF00008E3682B43E36015B123691D42FF
:101DF00013D0D7F88C20002AD4E901031DDBD7F8D3
:101E00009020002A19DD18B3C26B134390F82820E4
:101E1000C3630A2A14D00B2A04D02468A642E1D155
:101E2000BDE8F081C26A9A43F7D1C0F82C80FFF771
:101E300047FF2468A642D5D1F2E70848FEF7C0FF65
:101E4000C26A1342E9D0C0F82C80FFF739FFF0E7EF
:101E50000348FEF7B5FF00BFC80E002068840008E5
:101E600018990008000000000000000000000000B9
:101E70002DE9F84300EB81039E69B6B3302383F369
:101E80001188424FD7F88C30002B59DDD7F89030AD
:101E9000002B55D10D4600EB85090123044608218E
:101EA000301DC7F89030FFF78BFFD9F80C305B6915
:101EB0001B68E3B9D7F88C80B8F1000F43DBD7F883
:101EC0009030002B3FDD736DB26D93423ED052F8DF
:101ED000043B29462046FFF79BF8B8F1000F49D094
:101EE0000023C7F8903083F31188BDE8F883D7F852
:101EF0008C80B8F1000F26DBD7F89030002B22DD64
:101F0000D6E915318B4238D0326D706C01323265B2
:101F1000326E1144F26DB165914224BFB26EB2656A
:101F200006F144028242CFD0036873645A6090F88D
:101F30002830042B27D10023C362FFF7C1FEB9E785
:101F40001348FEF73DFF1348FEF73AFF336D002BB1
:101F5000BDD0D9F80C305A691268002ABDD01B8A4E
:101F6000013B1340B9D1294604F144022046FFF752
:101F70004FF8B2E70848FEF723FF326D002AC3D0BE
:101F80000648FEF71DFF0648FEF71AFFC80E0020A0
:101F9000708400086884000880840008A498000801
:101FA0002C96000800000000000000000000000067
:101FB00070B504460068844217D00F4D6FF00106DB
:101FC000036823605C6090F82830042B11D1D5F8A9
:101FD0008C30C662002B09DBD5F89030002B05DD74
:101FE000FFF76EFE2068A042EAD170BD0348FEF7FD
:101FF000E7FE0348FEF7E4FEC80E002068840008F0
:102000002C96000800000000000000000000000006
:102010001F4AD2F88C30002B70B532DBD2F89030EA
:10202000002B2EDD1B4B197D51BBD3E900141D691C
:10203000661AB5EBA60F23D09E68351D9D60A5429C
:10204000306038BF99681C69186A99601249013478
:1020500088421C6114D004681C62616090F82830CA
:10206000042B11D1D2F88C3000218B42C16208DBE5
:10207000D2F890308B4204DDBDE87040FFF720BEFF
:1020800070BD0648FEF79CFE0548FEF799FE00BFAE
:10209000C80E0020881B0020A81B002068840008B0
:1020A0002C96000800000000000000000000000066
:1020B00038B5302383F311881D4CD4F88C30002BB5
:1020C0002FDDD4F8903063BB1A4D2B780122934258
:1020D000C4F890201AD0022B12D11748FFF798FFAE
:1020E000D4F88C30002293422A701DDDD4F8903051
:1020F000002B19DD0023C4F8903083F3118838BD1C
:102100000E48FFF785FFD4F88C30EBE70C4B1B78BB
:102110000BB92B70EAE70B48FFF77AFFD4F88C3045
:10212000E0E70948FEF74CFE0848FEF749FE00BF0D
:10213000C80E0020C00E00200200000103000001B4
:10214000C10E002001000001708400088084000896
:1021500010B5D0F88C341C682278042A02D1027A97
:10216000022A00D010BD5979628901238B401342A5
:10217000F8D10E4BD3F88C20002A13DBD3F8903023
:10218000002B0FDDD0E907239A4207D020464FF4F9
:102190008073BDE810400432FEF70ABF8369002B4C
:1021A000F4D010BD0248FEF70BFE00BFC80E0020A1
:1021B000688400080000000000000000000000002B
:1021C000406BFFF7C5BF00BF00000000000000002B
:1021D000093170B550F8214024B3302383F31188BE
:1021E000394DD5F88C30002B5FDDD5F89030002BC1
:1021F0005BD1D4F88C240123C5F890301368527950
:1022000003EB8203DB689B695E6866B92046FFF7D3
:102210009FFFD5F89030002B44DD0023C5F89030A7
:1022200083F3118870BD04216018FFF7C9FDD5F84C
:102230008C30002B45DBD5F89030002B41DDA36AB4
:10224000043B9E423AD8D4E90732934233D01E6011
:10225000A16AA269E0680B44616AE3618B4224BF12
:10226000236BE36104F10C0301328342A26112D0BB
:102270000268E260536090F82830042B18D1D5F83A
:102280008C3000229342C2621BDBD5F8903093421F
:1022900017DDFFF715FDD5F88C602046FFF758FFD6
:1022A000002EB6DC0948FEF78BFD0948FEF788FDD5
:1022B0000848FEF785FDA269002AC8D00648FEF747
:1022C0007FFD0648FEF77CFDC80E002080840008D4
:1022D000708400082C960008809A00086884000822
:1022E000F8B590F83430044613B1002380F8343048
:1022F00004EB81016268CB681B6A19685B68A364A0
:102300006164936883B32046984768B3E36B94F89D
:102310004410B4F84A209A422CBF1A46E2630906D8
:1023200000F1CE80002A00F00781152384F83430B4
:10233000302383F31188B54DD5F88C30002B40F352
:10234000F880D5F89060002E40F0F3800121D4E9A8
:102350000E232046C5F890103146FEF729FEC5F839
:10236000906086F31188F8BD94F8441011F060066F
:1023700008461CD194F8452001F07F0343EA02236C
:1023800040F20232934200F0248144D8B3F5807FBA
:1023900000F0638122D9B3F5817F00F06E81B3F53F
:1023A000407F04D194F84630012B00F0E480626D48
:1023B000D2F80039616843F40013C2F80039D2F84A
:1023C000003B0D6843F40013C2F8003B15B1062131
:1023D0002046A847062384F83430F8BD012B4BD0A3
:1023E000022B3BD194F9480094F84820002802F0D1
:1023F0000F00C0F2BE805830626D400110580504D5
:10240000D6D586024CBF824882480222C4E90E0219
:10241000002222647DE7B3F5006F00F0458132D9D8
:10242000B3F5106F24D12378042B00F0AF80774FE1
:1024300094F846304BB1626884F84F300421217023
:10244000136813B10221204698470023C4E90E33D4
:1024500094F84400236403066FD54FE0002BA6D107
:10246000022204F14C002364C4E90E02134650E733
:1024700040F6024293429AD1674802230022C4E9FF
:102480000E03226445E7B3F5A06F00F0C980A3F501
:10249000C063012B8BD86268B4F84830556894F853
:1024A000471094F846202046A84700283FF47FAF05
:1024B000D0E9003294F844102664C4E90E2328E7DA
:1024C000DAB1092384F83430302383F311884F4D77
:1024D000D5F88C30002B2CDDD5F890604EBB012157
:1024E000D4E90E232046C5F890103146FEF790FD42
:1024F000C5F8906086F31188F8BD444F142384F822
:102500003430302383F31188D7F88C30002B10DD62
:10251000D7F890506DB90122C7F890202B4620467D
:102520002A462946FEF744FDC7F8905085F31188E6
:10253000F8BD3A48FEF744FC344F0B2384F834309E
:10254000302383F31188D7F88C30002BF1DDD7F8D6
:102550009050002DEDD10122C7F890202B46204647
:102560002A462946FEF754FDC7F8905085F3118896
:10257000F8BD483040E7B4F84C30244F266443F0AF
:102580000203C4E90E66A4F84C3064E7302383F3F9
:1025900011881E4FD7F88C30002BCADDD7F8905029
:1025A000002DC6D101232046C7F89030FEF7D0FC9D
:1025B000C7F8905085F311880322636884F84F5060
:1025C00022701B68002B3FF433AF1146204698471A
:1025D0002EE794F84630002B7FF4E9AE94F84830AB
:1025E00013F00F020BD013F0800F636D03EB421357
:1025F00061D1D3F8002B42F40012C3F8002B002362
:10260000C4E90E33014F236425E700BFC80E002044
:10261000449C0008A09A0008209E000870840008CE
:10262000B4F84430B3F5A06FE9D194F84610626D68
:1026300084F84E10D2F8003823F4FE6343EA011305
:102640006168C2F800380B6823B120460121984721
:1026500094F8440003232370D1E794F84630012B0B
:102660007FF4A5AEB4F84C301A4F266423F0020371
:10267000C4E90E66A4F84C30EDE694F84630002B21
:102680007FF495AE94F8483013F00F02B7D013F0F2
:10269000800F636D03EB421314D1D3F8002B22F4A7
:1026A0000012C3F8002BAAE7012304F14F02C4E98A
:1026B0000E2326642DE6D3F8002942F40012C3F855
:1026C00000299CE7D3F8002922F40012C3F800295E
:1026D00095E700BFC80E00200000000000000000C9
:1026E000F8B5664BD3F88C40002CC0F29C80D3F830
:1026F0009030002B40F3978000287DD00378042B86
:102700007AD100EB81040DB2E368002B74D15669D5
:10271000E2601EB133607360B360F360936923B10C
:1027200000221A605A609A60DA60E368426D1C68A1
:102730009F6904F00304661E022E98BFA40402EBF6
:1027400041164FF0000C98BF04F18054C6F810CB2E
:102750008CBF4B4C04F500444FEA411C002F4ED077
:102760005F8A01F1580676012743975101F1100E57
:10277000D2F81C78012606FA0EF63E43C2F81C6811
:1027800002EB0C065F694FF0000CC6F810C9002F71
:102790004CD09D8BB3F810C0C66D4FEA9C03012D41
:1027A00088BF6B43856D6F681D043344BB42C365AE
:1027B00061D801F13F0302EB830335435D608B0178
:1027C00043F02003136113699806FCD42D48456833
:1027D00043685B1B112BFBD901F1480040014CEA17
:1027E000815C4CEA040414500123D2F81C088B408D
:1027F0000343C2F81C38F8BD2348FEF7E1FA02EBA8
:10280000451601F1100ED6F8007B27F40047C6F8F4
:10281000007BD2F81C68012707FA0EF726EA0706A4
:10282000C2F81C68ACE71948FEF7CAFA01F13F0389
:1028300002EB8303164858608B0143F020031361B9
:1028400013699B06FCD40F48446843681B1B112B7B
:10285000FBD902EB45150123D5F8000920F400400F
:10286000C5F8000903FA01F1D2F81C3823EA010384
:10287000C2F81C38F8BD0748FEF7A2FAC80E0020BF
:1028800000800010001000E0309A00086884000802
:10289000000400029C9600080000000000000000F8
:1028A000F0B583B005291ED8DFE801F01F1D031F16
:1028B0001F4E302383F31188594CD4F88C30002BF1
:1028C00065DDD4F89050002D61D10127C4F89070D7
:1028D0000378042B5ED0032B00F09B800023C4F808
:1028E000903083F3118803B0F0BD302383F3118857
:1028F0004B4CD4F88C30002B49DDD4F89030002BB1
:1029000045D1484D2B7D0122C4F890201BB195F88C
:102910004C30002BE2D102214348FFF751FA012647
:1029200042482E75FFF744FB414885F84C60FFF79D
:102930003FFBD4F88C30002B03DDD4F89030002B13
:10294000CCDC3C48FEF73CFA302383F31188344C4E
:10295000D4F88C30002B1ADDD4F89050BDB9314E2C
:102960000121301DC4F89010FFF72AFAD4F88C30FA
:102970003575002B86F84C50E3DDD4F89030002BF1
:10298000DFDDC4F8905085F3118803B0F0BD2A480C
:10299000FEF716FA294A01903946FFF7A1FE284AA8
:1029A00001980221FFF79CFED4F88C30002B33DB1A
:1029B000D4F89030002B2FDD1A4E336BB561C6E989
:1029C0000733C6E90D5506F10C00FFF7F1FAD4F80C
:1029D0008C303575002B1FDBD4F89030002B1BDDBD
:1029E000736E3365B36E06F14400C6E91533C6E96C
:1029F0001B55FFF7DDFA3946301D86F84C50FFF7BE
:102A0000DFF93046FFF7A4FBD4F88C30002B98DDBB
:102A100093E7FEF79DFA61E70A48FEF7D1F900BF98
:102A2000C80E002050090020540900205C09002035
:102A3000940900208084000870840008E09B00084E
:102A4000049C0008688400080000000000000000EA
:102A50002DE9F843D0E90245AC4206460F465DD069
:102A6000D0E900E1234600201EF803C00CF1010C60
:102A700063449942D8BF5B1AAB4200F10100F3D125
:102A8000012A43D0D6F810E070455DDBAC425ED041
:102A9000431E73455ED0D6E900984FF0000C01E06C
:102AA00071451AD019F8043001331C44A0450CF1CB
:102AB000010CD8BFA4EB0804A0EB0C01AC4201F15F
:102AC000FF31EDD119F8054064B9012A3CD10EF16E
:102AD000010333612046BDE8F883254619F8054017
:102AE000002CF2D00EF10103336140220021384660
:102AF00005F070F9736862199A4213DA316801358A
:102B0000224629443846FDF779FDE3E73369002B77
:102B100006DDA3F1020EC6F810E0B5E70020AFE72E
:102B20000024D7E75B1B316803F1FF3801352944E6
:102B300042463846FDF762FD3168A4EB080207EB18
:102B40000800FDF75BFDC5E74FF0FF34C2E7D6F89C
:102B50000090B7E7D6F800902546B3E700000000E4
:102B600038B5264BD3F88C20002A3DD1D3F89020DD
:102B7000002A39DD5A68916801293BD1DC6894420A
:102B800035D0A2699A4232D1156884F828002B68A2
:102B900013605A6085F82810B2F89430D5609B070E
:102BA0000ED5EFF30983226A243B9A4205D82146C9
:102BB0002846BDE83840FDF793BB1148FEF700F901
:102BC00094F82830D2F89820E16AD160DB0043F015
:102BD000020313709560FEF7D3F8EFF30983226ABE
:102BE000243B9A42E3D9E8E70648FEF7E9F80648AD
:102BF000FEF7E6F80548FEF7E3F800BFC80E002030
:102C0000888400086084000888980008BC96000842
:102C100070B51B4CD4F88C2086B052BBD4F89060B1
:102C2000002E26DD4D1CE6681BD0F9B1154B039331
:102C300005466846CDE90462FEF75AFF2846FFF7CD
:102C40008FFFD4F88C30002B16DBD4F89030002B9B
:102C500012DD009B13B16846FEF74AFBF06A06B02E
:102C600070BDFFF77DFFF06A06B070BD0648FEF745
:102C7000A7F80648FEF7A4F80548FEF7A1F800BF3C
:102C8000C80E0020211D0008FC990008608400087F
:102C90006884000800000000000000000000000040
:102CA000F8B51B4ED6F88C7057BBD6F89030002B79
:102CB00004460D460BDC23E062682946C3E9004266
:102CC000042013606360FFF7A3FF00281BDBE368A9
:102CD00043B9237A83B9F368002DEDD14FF0FF3764
:102CE0003846F8BDE36883B12369E1691A1D0B44D6
:102CF000C4E90A233846F8BD6FF001073846F8BD2D
:102D00000448FEF75DF80746EAE70348FEF758F87F
:102D1000C80E0020608400084898000800000000E9
:102D20002DE9F04F83B00193002A79D0302787F343
:102D300011884A4CD4E923631E4346D105468B468D
:102D400092464FF00108B146A86AC4F89080002866
:102D500057D0EA6AAAEB0603121A9A4228BF1A460B
:102D6000402A35D959460BF1400BD1F800C04A68CA
:102D70008B68D1F80CE0C0F80CE010315945C0F870
:102D800000C04260836000F11000EED1AB6AEA6AD5
:102D900040339A428B4606F14006AB6225D9D4F8FF
:102DA0008C305BBBD4F89020002A27DDC4F890302B
:102DB0002368A3422CD189F31188564543D287F367
:102DC0001188D4E923321343BED02548FDF7F8FF1C
:102DD0005946164493440092FDF710FCAB6A009AE2
:102DE0001344EA6AAB629A42D9D8E96928460439A1
:102DF000FEF766F8D4F88C30002BD3D01948FDF7D5
:102E0000DFFF01992846FFF74BFF60B9A86AA0E7EA
:102E1000E2689B6892689A42CDD21348FDF7D0FFD2
:102E20001248FDF7CDFFD4F88C30002BE6D1D4F852
:102E30009020002AE2DD2268C4F89030A24206D138
:102E4000002383F31188304603B0BDE8F08FE168BA
:102E500093688A689A42F3D2DFE700BFC80E002069
:102E60007884000898840008689A00081096000882
:102E70004FF0FF334430FFF753BF00BF00000000A6
:102E80004430FFF74DBF00BF00000000000000000D
:102E9000F8B5302383F31188294DD5E92332134344
:102EA00025D10123C5F89030C36E04460F4600F1CA
:102EB000440613B31F70D4E91B3201339342E36617
:102EC0000FD2D5F88C00A8B9D5F89030002B11DDC1
:102ED0002B68C5F89000AB4217D1002383F311880B
:102EE000F8BD216E30460439FDF7EAFFE9E71548E1
:102EF000FDF766FF1448FDF763FF4FF0FF313046E2
:102F0000FFF7CEFE48B9E36ED4E7EA689B689268A3
:102F10009A42E2D20D48FDF753FFD5F88C30002BD2
:102F2000E8D1D5F89020002AE4DD2A68C5F8903071
:102F3000AA42D2D0E96893688A689A42CDD2E9E77A
:102F4000C80E00207884000898840008689A000859
:102F5000F8B50E46302383F31188294DD5E9233186
:102F60000B4324D1C36E0121044600F14407C5F888
:102F7000901013B31E70D4E91B3201339342E36601
:102F80000FD2D5F88C00A8B9D5F89030002B11DD00
:102F90002B68C5F89000AB4216D1002383F311884B
:102FA000F8BD216E38460439FDF78AFFE9E7154878
:102FB000FDF706FF1448FDF703FF11463846FFF7FB
:102FC0006FFE48B9E36ED5E7EA689B6892689A425B
:102FD000E3D20E48FDF7F4FED5F88C30002BE9D192
:102FE000D5F89020002AE5DD2A68C5F89030AA427D
:102FF000D3D0E96893688A689A42CED2E9E700BFE5
:10300000C80E00207884000898840008689A000898
:10301000F8B51B4ED6F88C7057BBD6F89030002B05
:1030200004460D460BDC23E062682946C3E90042F2
:10303000042013606360FFF7EBFD00281BDBE368EF
:1030400043B9237A83B9F368002DEDD14FF0FF37F0
:103050003846F8BDE36883B163691A6804331A44DB
:10306000C4E90A323846F8BD6FF001073846F8BDAA
:103070000448FDF7A5FE0746EAE70348FDF7A0FE72
:10308000C80E002060840008089A000800000000B4
:103090002DE9F04F83B00193002A7BD09246302275
:1030A00082F311884A4CD4E923631E434AD1054672
:1030B0000F4600924FF00108B146A96AC4F890800B
:1030C000002958D0EA6AAAEB0603A2EB010B9B4544
:1030D00028BF9B46BBF1400F37D93B4601F1400B5F
:1030E000D1F800C048688A68D1F80CE0C3F80CE059
:1030F00010315945C3F800C058609A6003F11003BD
:10310000EED1AB6AEA6A40339A4207F1400706F112
:103110004006AB6225D9D4F88C304BBBD4F8902054
:10312000002A25DDC4F890302368A3422AD189F310
:103130001188564541D2009B83F31188D4E923328C
:103140001343BAD02348FDF73BFE38465A46FDF7F5
:1031500055FAAB6AEA6A5B449A425E445F44AB62EA
:10316000D9D82846FDF77CFED4F88C30002BD5D07A
:103170001948FDF725FE01992846FFF749FF60B978
:10318000A96A9FE7E2689B6892689A42CFD2134887
:10319000FDF716FE1248FDF713FED4F88C30002B15
:1031A000E6D1D4F89020002AE2DD2268C4F89030FD
:1031B000A24206D1002383F31188304603B0BDE854
:1031C000F08FE16893688A689A42F3D2DFE700BF24
:1031D000C80E00207884000898840008689A0008C7
:1031E00068990008000000000000000000000000D6
:1031F0004FF0FF330C30FFF74BBF00BF0000000063
:103200000C30FFF745BF00BF0000000000000000C9
:10321000F8B5302383F311881F4CD4E923321343CC
:1032200022D1436B0122054600F10C07C4F890201F
:1032300003B313F8016BAA6B6B63934210D2D4F8FB
:103240008C30A3B9D4F89020002A10DD2268C4F88D
:103250009030A24218D1002383F311883046F8BD84
:103260003846FDF7FDFDEAE70C48FDF7A9FD0C48DF
:10327000FDF7A6FD4FF0FF313846FFF7C9FE0646C1
:103280000028DCD16B6BD4E7E16893688A689A42C6
:10329000E1D20448FDF794FDC80E002078840008B0
:1032A00098840008689A00080000000000000000F0
:1032B000F8B5302383F311881E4CD4E9233213432D
:1032C00022D10123C4F89030436B054600F10C076E
:1032D00003B313F8016BAA6B6B63934210D2D4F85B
:1032E0008C30A3B9D4F89020002A10DD2268C4F8ED
:1032F0009030A24216D1002383F311883046F8BDE6
:103300003846FDF7ADFDEAE70B48FDF759FD0B48E0
:10331000FDF756FD3846FFF77BFE06460028DED156
:103320006B6BD6E7E16893688A689A42E3D20448F7
:10333000FDF746FDC80E0020788400089884000838
:10334000689A000800000000000000000000000073
:1033500010B5302383F31188144CD4E9233213437E
:1033600016D1012301460820C4F89030FFF750FC25
:10337000D4F88C307BB9D4F89020002A0BDD226879
:10338000C4F89030A24209D1002383F3118810BD04
:103390000748FDF715FD0748FDF712FDE168936842
:1033A0008A689A42F0D20448FDF70AFDC80E002050
:1033B0007884000898840008149800080000000031
:1033C000334C344ADFF8D0A0344D2DE98848E36807
:1033D0004FF40056DA6140F6C41941F28838374696
:1033E0009AF800306F83042B0CBFCB46C3463023C2
:1033F00083F31188D4E92332134334D1012359468E
:103400000820C4F89030FFF703FCD4F88C306BBB75
:10341000D4F89020002A29DDC4F890302368A34214
:103420002FD1002383F3118830232E8383F3118857
:10343000D4E92332134316D1012359460820C4F896
:103440009030FFF7E5FBD4F88C307BB9D4F89020AE
:10345000002A0BDDC4F890302368A34209D1002371
:1034600083F31188BCE70E48FDF7AAFC0D48FDF771
:10347000A7FCE2689B6892689A42F0D20A48FDF77E
:103480009FFCE2689B6892689A42CAD2F6E700BF46
:10349000C80E0020A0840008E00D002000080240B3
:1034A0007884000898840008149800080000000040
:1034B000174DEC6808B5236BE06204F130069E42BC
:1034C00008D194F82A30B3B10F20FFF749FB114817
:1034D000FDF776FC1A682263D5F88C20002A13DBEE
:1034E000D5F89020002A0FDD1846FEF7E9FB236B84
:1034F0009E42E6D0EEE794F829309B07E4D1D4E968
:10350000043213605A60DFE70348FDF759FC00BF3F
:10351000C80E0020E497000868840008000000003E
:103520003C4BD3F88C2070B5002A70D1D3F8902092
:10353000002A6CDD04468068DD6820B3AA688368D1
:103540009A4207D990F828308260062B3ED0072B8C
:1035500028D0EBB1234603E09968AA68914202D3D0
:103560001B689C42F8D15A680620C5E900321560F4
:103570005D60EC62FFF7F4FAA368AB4244D12B6CB8
:10358000A34241D170BD2B6CC4E902532C6470BDC1
:10359000D0E90032012180F8281013605A60FEF74C
:1035A0008FFBD7E7D0E90032C66A13605A60334612
:1035B00003E099688268914202D31B689E42F8D169
:1035C0005A68C0E9003210605860C3E7D0E90032A1
:1035D000C66A13605A60334603E099688268914274
:1035E00002D31B689E42F8D15A68036042601060A3
:1035F0005860B068AA6883689342ABD290F82830CC
:103600008260062BA3D1E1E70348FDF7D9FB03480D
:10361000FDF7D6FBC80E00200C9900086084000856
:1036200070B5284CD4F88C30002B3CD1D4F89030B5
:10363000002B38DD23680546E068A342826835D157
:103640000023EB62AB68934236D9FDF799FE012364
:1036500085F82830B4F89430E5609B0706460ED50F
:10366000EFF30983326A243B9A4205D83146284653
:10367000BDE87040FCF734BE1348FDF7A1FB90F89D
:103680002830D4F89820C16AD160DB0043F00203EF
:1036900013709560FDF774FBEFF30983326A243BE6
:1036A0009A42E3D9E8E70948FDF78AFB9B689A420A
:1036B000C6D20748FDF784FB2846BDE87040FEF7F8
:1036C000FFBA00BFC80E002088840008608400088C
:1036D000C897000800000000000000000000000083
:1036E0000EB42DE9F04F86B00FAB53F8046B029384
:1036F0003546019315F8011B002900F001820446AC
:103700004FF000090CE023682046DB68984709F178
:1037100001092E46354615F8011B002900F0D98015
:103720002529F0D173782D2B04BFB51C4FF0010C67
:103730002B7818BF4FF0000C2B2B03BF6B784FF08A
:10374000010E01354FF0000E302B03BF01351F462F
:103750002B7820272A2B49D16B78DDF804B02E2B4B
:103760005BF8042B05F1020656D0002003F0DF01C0
:103770004C295FD0A3F14405342D00F2B080DFE87E
:1037800015F0DC00AE00AE00AE00AE00DC00AE0016
:10379000AE00AE00AE00AE004D011201AE00AE00B4
:1037A000AE00AE00B401AE00AE001201AE00AE003D
:1037B000AE00AE00AE00AE00AE00AE00AE00AE0099
:1037C0006F01DC00AE00AE00AE00AE00DC00AE006B
:1037D000AE00AE00AE00AE004D011201AE00AE0074
:1037E0005001AE00B401AE00AE0012016E1C002B01
:1037F0006FD0002205E016F8013B01EB4002002BE0
:1038000067D0A3F13001C9B2092902EB8200F2D9D5
:103810002E2BDDF804B0A8D13378002B59D02A2BF9
:1038200047D173785BF8040B03F0DF014C2906F1F4
:1038300002069FD116F8013B002B4AD0A3F14401A8
:1038400034294CD8DFE811F079004B004B004B00D5
:103850004B0079004B004B004B004B004B00EA0043
:10386000AF004B004B004B004B0051014B004B0095
:10387000AF004B004B004B004B004B004B004B008C
:103880004B004B004B000C0179004B004B004B00F0
:103890004B0079004B004B004B004B004B00EA0003
:1038A000AF004B004B00ED004B0051014B004B00B3
:1038B000AF0001360020A3F13001C9B2092900EBA5
:1038C00080053FF653AF16F8013B01EB4500002B96
:1038D000F1D1484606B0BDE8F04F03B070478DF80F
:1038E0000C30013ACDF804B022EAE27ABCF1000FC4
:1038F00004D1002ACAF1000A00F3E48000250DF18A
:103900000C0B05F10108D84423681BF8011BDB6888
:1039100020469847C345F7D109F10109A944BAF1F6
:10392000000F3FF4F7AE554623683946DB68204662
:103930009847013DF8D1D144ECE65B4653F8040BBF
:1039400001930028C0F2B680BEF1000F00F0D580D0
:103950002B238DF80C300DF10D0E03AB0EF10B0B7C
:103960005D466B49A1FB0081C90801EB810A8846CD
:10397000A0EB4A0130318246C9B2BAF1090F05F80D
:10398000011D4046EDDCABEB0500704401E015F88D
:10399000011F0EF8011B8645F9D1AEEB0305521B42
:1039A0009B46013D2DE04FF010085B4653F8040B99
:1039B00001930DF1170300E02B468646B0FBF8F0AB
:1039C00008FB10EA0AF130013929C8BF0AF13701B2
:1039D000C9B2C64503F1FF3503F8011CECD20DF165
:1039E0001700451B184603AB0DF117089E4601E072
:1039F00010F8011B0EF8011B4045F9D1521B9B46E4
:103A0000013D22EAE27ABCF1000F03D1002ACAF19B
:103A1000000A2EDC002DBFF674AF80E74FF00808D7
:103A2000C3E75B4653F804BB0193BBF1000F5FD0C3
:103A30009BF8001000284AD100294BD047F6FE70B1
:103A4000594601E0C54205D411F8013FABEB010531
:103A5000002BF7D1A1EB0B01521A4D1E2027D0E706
:103A60005BF8043BCDF804B0013A8DF80C30202708
:103A70003AE7D0469BF800102D290FD02B290DD006
:103A800023683946DB68204698471AF1010AF7D1C6
:103A9000002DA9EB0809BFF634AF3BE6302FEFD17C
:103AA00022682046D2680BF1010B09F10109013DA2
:103AB0009047E5E72D238DF80C3040420DF10D0EB7
:103AC00003AB4BE76546D0460DF10C0BD2E709B1CD
:103AD0000138B5D522EAE27ABCF1000F03D1002A01
:103AE000CAF1000A0EDC202719E74FF00A085CE74C
:103AF000DFF820B00028A1D0EAE703AB9E462DE70F
:103B00008946E6E6D04620274FF0FF35B2E700BFF2
:103B1000CDCCCCCCA8840008000000000000000040
:103B200010B531490446FFF7DBFD30492046FFF769
:103B3000D7FD2F492046FFF7D3FD2E492046FFF73A
:103B4000CFFD2D492046FFF7CBFD2C492046FFF73E
:103B5000C7FD2B492046FFF7C3FD2A492046FFF742
:103B6000BFFD29492046FFF7BBFD28492046FFF746
:103B7000B7FD27492046FFF7B3FD26492046FFF74A
:103B8000AFFD25492046FFF7ABFD24492046FFF74E
:103B9000A7FD23492046FFF7A3FD22492046FFF752
:103BA0009FFD21492046FFF79BFD20492046FFF756
:103BB00097FD1F492046FFF793FD1E492046FFF75A
:103BC0008FFD1D492046FFF78BFD1C492046FFF75E
:103BD00087FD1B492046FFF783FD20461949BDE8B4
:103BE0001040FFF77DBD00BFB0840008F8840008D6
:103BF0003885000878850008A0850008D48500086D
:103C00000C86000868860008A8860008EC86000874
:103C100028870008748700089C870008F48700083C
:103C20004C88000894880008C0880008F8880008BC
:103C30004089000890890008D4890008048A000897
:103C40004C8A00088C8A0008000000000000000078
:103C500038B50E4C4FF400410D4601222046FCF7CA
:103C6000E7FD02206583FFF773FB202229462046EB
:103C7000FCF7DEFD064B1B789B0700D438BDBDE882
:103C8000384004490448FFF72BBD00BF0004024040
:103C900001080020C08A0008500900200000000030
:103CA0000B4B10B50446184620224FF48061FCF7F8
:103CB000BFFD03695B0505D520460649BDE81040F8
:103CC000FFF70EBD20460449BDE81040FFF708BDD0
:103CD00000000240C88A0008DC8A000800000000DA
:103CE000014A0249FFF7FCBCEC8A0008148B00086B
:103CF0002DE9F8435A4D5B4C5B4F01224FF4806134
:103D000006462846FCF794FD4FF4806320462B833B
:103D100001224FF48071FCF78BFD4FF480736383B5
:103D2000284620224FF40051FCF782FD4F4B388883
:103D30004F4CA3FB0030400900232370FDF750FED9
:103D4000474820224FF40051FCF772FD2B699B0479
:103D50004AD44348DFF81C9101224FF48061FCF7FC
:103D600067FD4FF48063438320224FF4805105693F
:103D7000FCF75EFDD0F810800220FFF7E9FA99F811
:103D80000030ED439807EDB24ED420224FF48071FD
:103D90003448FCF74DFD0220FFF7DAFA3888334B40
:103DA0002F4FA3FB0030400900232370FDF718FEBE
:103DB00020222B484FF40051FCF73AFD3B699A044E
:103DC00023D5284801224FF48071FCF731FD4FF4D0
:103DD0008073438399F800309B07C8F3003831D4CF
:103DE00035704046BDE8F8832378002BB1D12378A5
:103DF000002BA5D01F4B1B789A072BD44FF0FF0840
:103E0000FCF7BEFE4046BDE8F8832378002BD8D1EE
:103E10002378002BCCD099F800309907EED51649BD
:103E20001648FFF75DFCE9E7154B16495B5D134843
:103E300013F0970F18BF2A462B4608BF2022FFF722
:103E40004FFCA2E710490D4888F00102FFF748FC3B
:103E50003570C6E70D490948FFF742FCCEE700BFC1
:103E60000004024000000240120800201F85EB51B0
:103E7000D51B002001080020688B00085009002095
:103E8000259E0008508B00089C8B00081C8B0008A6
:103E900070B50D46B8B1044628601249204604F0BA
:103EA00007F8215C222904EB000612D00D493046A8
:103EB00003F0E2FF98B1421C00232A6003703378BC
:103EC00023B1304670BD0C68002CE6D10026304688
:103ED00070BD0136304604F04BFA0028EBD1286063
:103EE000EDE700BFA88B0008000000000000000004
:103EF0002DE9F8430568CDB10646884691461F4630
:103F000005E02C782E2C14D056F8085F75B12846A1
:103F10004946FCF709FA04460028F2D14046736886
:103F2000089A394698472046BDE8F8830120BDE845
:103F3000F883089B43F827901A4640467368791C1B
:103F400098470020BDE8F883000000000000000052
:103F50002DE9F04FDFF8BCB28268DBF80C10056881
:103F6000ABB0044600230490AB486668C861137088
:103F7000A268AA491493CDE912332846E368069251
:103F800010920593119303950B96FFF7A9FBA44993
:103F90002846FFF7A5FBDBF80C3093F829305A07C9
:103FA00066D40DF1680A9F490398FFF799FB049BBB
:103FB00000251C682E465746236801229B680DF198
:103FC000330120469847002848D09DF833101B291C
:103FD0002DD05EB15B293FD035B1412900F0E8809A
:103FE000422900F0C88000252E46E5E7082920D0A8
:103FF0007F291ED00D2900F0238109294BD00E29DD
:1040000000F0E280102900F0FB801F29D4D90DF1C7
:10401000A7039F42D0D2844B1B782BB12368204644
:10402000DB6898479DF8331007F8011BC4E70126A9
:10403000C2E75745C0D023680821DB68204698476F
:1040400023682021DB682046984723680821DB6825
:104050002046013F9847AFE73546ADE74FF47A7009
:10406000FFF776F9DBF80C3093F829305B079AD527
:10407000302383F31188DBE9233253EA020440F052
:1040800006826A4801232146CBF89030FDF798FE5E
:104090002046FFF70DFA0DF1A7039F428CD2644B27
:1040A0003E7093E803000DF138090E908DF83C1036
:1040B0004846514604F076F8049B48455A68D3F8C0
:1040C000108000F0648108F104030793C1469AB19F
:1040D00013688BB1CDE9084514461D462846514664
:1040E00004F060F8854208BF49F8045B54F8085FA3
:1040F000002DF3D1DDE908450020C9F80000D8F80B
:104100000090B9F1000F3FF457AFD8F80430A7EB97
:104110000A010891002B00F0878199F800C0BCF1DA
:10412000000F00F0B781CDE909456446089DDDF830
:104130001CC0BE461A5CA24208BF624605D13BB114
:1041400052F8043F195CA142F9D0002B40F02D81B8
:104150000DF1A7039E4505D28542DCBF0EF8014B49
:10416000D8F80090013019F80040002C00F053817D
:10417000D8F80430DEE70122514610A8FEF768FCAB
:1041800000281ED18DF868001023522229490AEB1D
:1041900000072046FFF7A4FA27492046FFF7A0FAB8
:1041A0000025264952462046FFF79AFA2E4603E795
:1041B0000022514610A8FEF74BFC00287FF713AFF2
:1041C000E2E7FFF610AFDFE70122514610A8FEF745
:1041D0003FFC002840F0D8808DF868601023522200
:1041E00014490AEB00072046FFF77AFA12492046E5
:1041F000FFF776FA114952462046FFF771FADBE6DF
:104200003246514610A8FEF723FC00287FF7D4AEB3
:10421000E4E700BFC80E0020AC8B00081492000831
:10422000B48B0008C88B00080F080020D01B0020AA
:10423000148C0008DC8B0008E88B0008EC8B00086D
:1042400020469749FFF74CFA059BA7EB0A04013B70
:104250009C424FDA631E0AEB03021AF8031020296E
:104260000AD1002C03DC45E0002B43D0013B12F8BF
:10427000011D20291C46F7D0002C3BDDDDE912355D
:10428000DDE905100BE0EA1A01328A1AA2420CDCC1
:10429000C25C134401339942D8BF5B1A01269D4288
:1042A000F1DA5A1B013AA242F2DD06B11293059BE4
:1042B0005E1B013EA64205F101006FDCDDF81880AF
:1042C000324651464044FCF799F9A21B0AEB06011D
:1042D0004046FCF793F9069B059A5C55631C2B44FA
:1042E0009A42D8BF059A0699D8BF9B1A0022CA5491
:1042F0001393149200260DA93E705046FFF7C8FD97
:104300000DA90546002015ACFFF7C2FD50B1042EE3
:1043100033D044F8040B0DA900200136FFF7B8FD97
:104320000028F4D12AAB03EB860343F8540C002D8C
:104330003FF498AE15AB00935A48039933462A468A
:10434000FFF7D6FD00283FF48DAE0B9B53B115ABA4
:10435000009303990B9833462A46FFF7C9FD0028BE
:104360003FF480AE039C50492A462046FFF7B8F937
:104370004E492046FFF7B4F974E64D490398FFF71C
:10438000AFF9002319936DE6FFF616AE26E708F1A4
:104390000403C8F800000793994698E6069B224656
:1043A00018445146FCF72AF995E7DDE909450AEB7F
:1043B00000030893089A0023137000283FF4FCAD13
:1043C000049BD8F80420D3F80090002A59D034492F
:1043D0004846FFF785F9D8F800206AB1354FDDF877
:1043E0001C8001E008F1040839464846FFF778F9D7
:1043F000D8F80020002AF5D129494846FFF770F97E
:104400002D494846FFF76CF9274952464846FFF7C1
:1044100067F9089FD0E5A4460AEB00030A9D099CB2
:104420000AF800C00893CBE74846CDF82490FCF783
:1044300087F90AEB00094F450146CDF820902CD2B0
:10444000A7EB0A03A3EB070C099A3B4603E0934250
:10445000B0D0D8F8002003EB0C0E12F80E2003F8B1
:10446000012B4B450DF1A702F1D19342A2D20131AC
:1044700020221A7000230AF801300AEB0103089386
:104480009EE709493A464846FFF72AF9C1E70B4833
:10449000FCF796FC8DF868C08EE53B46E7E700BF69
:1044A00014920008E49C0008EC8B00080C8C0008B7
:1044B000F48B0008F08B0008C88B00087884000893
:1044C0002DE9F04FB74C85B0CDE90223064688466A
:1044D00015464FF4804101222046FCF7A9F94FF41C
:1044E00080432383002D40F05181B8F1000F04D1A7
:1044F0003046FCF725F91FFA80F8AB48A94CAB4DC4
:1045000001224FF40041FCF793F94FF40043038379
:10451000012220464FF48051FCF78AF94FF4805372
:10452000238301224FF40051FCF782F94FF400532A
:10453000238320224FF48061FCF77AF94FF48071D5
:1045400020222846FCF774F9994B1B78990700F153
:104550006981984B9848B3F80090984C934D914FCF
:10456000A0FB0930C00800232370FDF739FA8F48FB
:1045700020224FF48071FCF75BF92B69DB0500F515
:1045800080604FF020024FF4806100F1C580FCF79D
:104590004FF93B69580540F1BF80FDF7E1F9B8F1EB
:1045A000000F7CD0DFF810A2804D7E4F013E4FF00F
:1045B000000BAAFB09394FEAD90916F8012F01921D
:1045C000002348462370FDF70BFA202277484FF46A
:1045D0008071FCF72DF92B69DA0500F1B380FDF746
:1045E000BFF9734B1B789B0700F1F48010236D48D3
:1045F0002B830122FF21FCF71BF9019AD343DBB285
:1046000043EA0243BB61484600232370FDF7E8F903
:10461000644820224FF48061FCF70AF93B69580591
:1046200040F1A180FDF79CF908F1FF335B4500F0F4
:104630000F810220FEF78CFE5A4801224FF40051F0
:10464000FCF7F6F84FF400537B830220FEF780FE60
:10465000584BB3F8009000232370AAFB0930C00820
:10466000FDF7BEF9514820224FF48071FCF7E0F8C5
:104670002B69DB0540F1C580FDF772F910236B83D0
:10468000484801224FF40051FCF7D2F80BF1010B1E
:104690004FF400533B831FFA8BF3984589D8424D62
:1046A00001224FF4004128464FF40044FCF7C0F8C3
:1046B000A5F580606C832022FF21FCF7B9F8029BEE
:1046C000002B40F0F080374C384D204620224FF42C
:1046D0000051FCF7ADF820224FF48051FCF7A8F808
:1046E00001224FF480712846FCF7A2F84FF4807342
:1046F000204601224FF480612B83FCF799F84FF498
:104700008063238301224FF48041FCF791F84FF43A
:1047100080436383002012E02378002B7FF43DAFB9
:104720002378002B3FF423AF214B1B789A0700F12D
:10473000B380234B00221A70FCF722FA012005B047
:10474000BDE8F08F2378002B7FF449AF2378002B4E
:104750003FF43BAF164B1B789907EAD519491A4825
:10476000FEF7BEFFE5E72378002B7FF45BAF2378ED
:10477000002B3FF44DAF0E4B1B78012BD9D1134BBF
:1047800013491A781048FEF7ABFFD2E7A4F5806012
:1047900001224FF40041FCF74BF84FF400434383F0
:1047A000A3E600BF000402400008024000000240EF
:1047B0000108002012080020CDCCCCCCD51B002055
:1047C00034190020508C00085009002004080020F3
:1047D000D88C0008029B002B51D1019A354B3649E9
:1047E0009B5C364813F0970F134608BF2022FEF754
:1047F00077FF334BB3F80090AAFB09394FEAD90988
:10480000F4E62378002B7FF437AF2378002B3FF4B6
:1048100029AF2C4B1B789A078BD52B492748FEF7DD
:104820005FFF86E720224FF48071FCF701F82046F5
:1048300020224FF480612D69FBF7FAFF2369234999
:104840001E48C5F30022C3F38023FEF749FF80E62C
:10485000039B002B3FF4EDAE4FF480511C48012226
:10486000FBF7E6FF4FF480537B83164B1B789907C9
:104870007FF5DFAE17491148FEF732FFD9E616493A
:104880000E48019AFEF72CFF0D4BB3F80090AAFBDF
:1048900009394FEAD909A9E63378104907481A4679
:1048A000FEF71EFF45E70E4801222146FBF7C0FF39
:1048B000048308E7259E0008B88C000850090020F2
:1048C0001208002001080020208D00081C8C000820
:1048D00000040240108D0008988C0008308C0008FD
:1048E0000000024000000000000000000000000086
:1048F00070B5204B204E214C1B78327843F65F7107
:10490000203321809107A37012D400231B481C4D33
:1049100001220321FFF7D4FD04232870237068B11E
:1049200001232B7017491848BDE87040FEF7D8BE28
:10493000164915480322FEF7D3FEE6E733789A07B7
:1049400012D401220D4800231146FFF7B9FD0028BB
:10495000E6D1337828709B0700D470BDBDE8704065
:104960000B490948FEF7BCBE084907480122FEF77B
:10497000B7FEE6E71108002001080020F418002027
:10498000E81E0020748D000850090020588D000892
:10499000C08A0008000000000000000000000000C5
:1049A00070B5204B204E214C1B78327843F65F7156
:1049B000203321809107A37012D400231B481C4D83
:1049C00001220321FFF77CFD11232870237068B1B9
:1049D00001232B7017491848BDE87040FEF780BED0
:1049E000164915480322FEF77BFEE6E733789A075F
:1049F00012D401220D4800231146FFF761FD002863
:104A0000E6D1337828709B0700D470BDBDE87040B4
:104A10000B490948FEF764BE084907480122FEF722
:104A20005FFEE6E71108002001080020F4180020CE
:104A3000E81E0020848D000850090020588D0008D1
:104A4000C08A000800000000000000000000000014
:104A500070B5204B204E1B783278204C43F65F71A6
:104A6000203390072180A37012D401221B481C4DD3
:104A700000230321FFF724FD01222870227068B172
:104A800001232B7017491848BDE87040FEF728BE77
:104A9000164915480322FEF723FEE6E73378990707
:104AA00012D401220D4800231146FFF709FD00280A
:104AB000E6D1337828709B0700D470BDBDE8704004
:104AC0000B490948FEF70CBE08490748FEF708FEE7
:104AD000E7E700BF1108002001080020F4180020BB
:104AE000E81E0020948D000850090020588D000811
:104AF000C08A000800000000000000000000000064
:104B00002DE9F047534D2B789E0782B0044679D4A7
:104B1000514B524F1B7843F65F7240333A80BB7063
:104B20004E48002301220321FFF7CAFC002864D16C
:104B30002B7899075AD4012C38D0DFF824A1DFF85C
:104B40002491DFF824810DF107063046FFF7D0F8F5
:104B50002B78044642482BB9DAF800309DF807104C
:104B6000DB689847FF2C0DD099F80030032BECD070
:104B70009DF8073098F800209A4203D098F8012059
:104B80009A42E2D12B7843F65F723A809A075AD460
:104B90000023324801220221FFF792FC2B789B0769
:104BA000044647D4204602B0BDE8F087DFF8B08065
:104BB0000DF107063046FFF79BF82B78044628488E
:104BC0002BB9D8F800309DF80710DB689847013CF6
:104BD000E4B2FD2CEED9254B1B78002BD2D0204817
:104BE000234A03681178DB689847CBE721491C48C2
:104BF000FEF776FD012CA0D1D8E70124204602B0B3
:104C0000BDE8F087144E1C493378144F024614480F
:104C1000FEF766FD33782A784033BB70900743F681
:104C20005F733B807FF57CAF14490D480322FEF78C
:104C300057FD75E7024612490948FEF751FD204627
:104C400002B0BDE8F0870D4905480222FEF748FD95
:104C50009EE700BF0108002011080020F418002082
:104C60005009002003080020381900203B190020BB
:104C700004080020C88D0008A48D0008588D000885
:104C8000E08D0008000000000000000000000000AF
:104C900001F180432DE9F047013BDFF87C8152F8B8
:104CA000239098F800309E074ED45C4C237803BBC9
:104CB0005B4B1B78DBB15B4B5B4D1B782878032B80
:104CC00032D0002869D00126584B2E701B7873B162
:104CD000237863B13F21484603F04AFB00284CD0BB
:104CE000002E7BD0524B1B78002B40F08980BDE812
:104CF000F087504B504A1B782033937098F800305F
:104D000043F65F719D07118062D400234A48464DE7
:104D100001220321FFF7D4FB23782870002BC7D092
:104D2000404B1B78032BCCD10028CCD198F8003015
:104D300099076BD40022012311464846FFF7C0FBB8
:104D4000061E18BF0126BFE70E4615463B493346EF
:104D50004A460746FEF7C4FC002EA6DDDFF8E0A0B9
:104D6000043D0024224655F8043F5146384601349C
:104D7000FEF7B6FCA642F5D197E72D4B1B78002B2A
:104D8000B5D0002E3CD198F800309A07AFD5BDE8D9
:104D9000F0472C492C48FEF7A3BC98F80030980740
:104DA00028D400231A4619464846FFF789FB0028F5
:104DB00089D1264B28701E7898F800309B0713D4B1
:104DC0000022334622481146FFF77AFB06467BE76E
:104DD00020491D480322FEF783FC96E71B4B1878F9
:104DE000FFF78EFE287082E7194A1B491648FEF726
:104DF00077FCE5E7184914484A46FEF771FCD0E70E
:104E0000BDE8F04715491048FEF76ABC12490E4844
:104E10004A46FEF765FC8DE70108002010080020D7
:104E20003419002003080020E81E0020000800209C
:104E30000F08002011080020F4180020FC8D000845
:104E4000148E0008C08A00085009002002080020C3
:104E500038190020588D0008288E0008948D00080D
:104E6000012904D113681B78652B03D070470020FB
:104E7000FFF746BE0846FFF743BE00BF0000000034
:104E800000291DDD1346002270B51146044618683E
:104E900002F02AFF83B21E2B014609D80B4DC3B284
:104EA000297020460A49BDE870401A46FEF718BC32
:104EB000064B08491A782046BDE87040FEF710BC42
:104EC000024B05491A78FEF70BBC00BF1108002001
:104ED000648E0008908E0008408E000800000000DC
:104EE00000291DDD1346002270B5114604461868DE
:104EF00002F0FAFE83B2012B014607D90B4B0C4995
:104F00001A782046BDE87040FEF7EABB074DC3B2F1
:104F1000297020460749BDE870401A46FEF7E0BBFD
:104F2000024B05491A78FEF7DBBB00BF00080020E2
:104F3000188F0008F08E0008C08E000800000000E6
:104F4000002970B5044628DD012913461ED01068DB
:104F50000021022202F0C8FE2B4905462046ADB2D0
:104F6000FEF7BEFBFF2D09D8284A294915702B46AC
:104F700020462A46BDE87040FEF7B2BB234B2549C8
:104F80001A782046BDE87040FEF7AABB00221868D8
:104F9000114602F0A9FE85B2E4E71C4B1E491A78BF
:104FA000FEF79EFB1D492046FEF79AFB1C49204652
:104FB000FEF796FB1B492046FEF792FB1A49204656
:104FC000FEF78EFB19492046FEF78AFB184920465A
:104FD000FEF786FB17492046FEF782FB164920465E
:104FE000FEF77EFB15492046FEF77AFB1449204662
:104FF000FEF776FB13492046FEF772FB2046124966
:10500000BDE87040FEF76CBBA890000801080020C6
:10501000B8900008188F0008488F0008708F0008AB
:10502000948F0008B88F0008F08F000808900008DF
:1050300020900008489000085890000868900008E8
:105040007890000888900008989000080000000000
:1050500000291DDD1346002270B51146044618686C
:1050600002F042FE83B2012B014607D90B4B0C49DB
:105070001A782046BDE87040FEF732BB074DC3B238
:10508000297020460749BDE870401A46FEF728BB44
:10509000024B05491A78FEF723BB00BF0F0800201A
:1050A000188F00080C910008E09000080000000034
:1050B00000291DDD1346002270B51146044618680C
:1050C00002F012FE83B2012B014607D90B4B0C49AB
:1050D0001A782046BDE87040FEF702BB074DC3B208
:1050E000297020460749BDE870401A46FEF7F8BA15
:1050F000024B05491A78FEF7F3BA00BF02080020F8
:10510000188F000858910008349100080000000032
:1051100000291FDD1346002270B5114604461868A9
:1051200002F0E2FD83B2032B0CD80D4DC0B2287003
:10513000FBF7C6FC2B780B4920461A46BDE87040A9
:10514000FEF7CEBA064B08491A782046BDE87040F3
:10515000FEF7C6BA024B05491A78FEF7C1BA00BF7E
:1051600003080020A0910008188F00087C91000817
:1051700000291DDD1346002270B51146044618684B
:1051800002F0B2FD83B2FF2B014609D80B4DC3B22A
:10519000297020460A49BDE870401A46FEF7A0BAB9
:1051A000064B08491A782046BDE87040FEF798BAC9
:1051B000024B05491A78FEF793BA00BF0408002095
:1051C000F0910008188F0008C4910008000000004A
:1051D00000291DDD1346002270B5114604461868EB
:1051E00002F082FD83B2012B014607D90B4B0C491B
:1051F0001A782046BDE87040FEF772BA074DC3B278
:10520000297020460749BDE870401A46FEF768BA83
:10521000024B05491A78FEF763BA00BF3B1900201C
:10522000188F00083C920008189200080000000047
:1052300000293ADD134600222DE9F04111460546CA
:10524000186802F051FD83B21E2B04462A4B25D864
:105250001B782A4EDFF8A8802033B37098F800300E
:1052600043F65F729907328024D400232348254FE8
:1052700001220321FFF724F9082338703370F8B1B5
:105280000123214921483B70FEF72AFAA3B22846A0
:105290001F49BDE8F0411A46FEF722BA28461D49CB
:1052A0001A78BDE8F041FEF71BBA134B1A491A7879
:1052B000FEF716BA194915480322FEF711FAD4E78A
:1052C00098F800309A0711D401220C4800231146A7
:1052D000FFF7F6F80028D3D198F8003038709B0714
:1052E000D4D50F490948FEF7FBF9CFE70B4907482A
:1052F0000122FEF7F5F9E7E711080020F418002075
:1053000001080020E81E0020A89200085009002093
:1053100084920008908E000860920008588D000862
:10532000C08A00080000000000000000000000002B
:10533000002920DD1346002270B511460446186886
:1053400002F0D2FC83B2012B01460CD8104B1B7823
:10535000C3B9104DC3B2297020460F49BDE8704053
:105360001A46FEF7BDB90B4B0C491A782046BDE82A
:105370007040FEF7B5B9064B064A1B78127808490B
:10538000FEF7AEB920460749BDE87040FEF7A8B960
:1053900010080020841B0020EC920008188F0008E1
:1053A000B8920008189300080000000000000000F8
:1053B00000291DDD1346002270B511460446186809
:1053C00002F092FC83B2012B014607D90B4B0C492A
:1053D0001A782046BDE87040FEF782B9074DC3B287
:1053E000297020460749BDE870401A46FEF778B993
:1053F000024B05491A78FEF773B900BF1008002068
:10540000188F00087C9300085893000800000000E3
:1054100000291ADD1346002210B51146044618680B
:1054200002F062FCB0F5803F0A4B024606D22046ED
:1054300009491A80BDE81040FEF752B920460749D5
:105440001A88BDE81040FEF74BB9024B04491A8890
:10545000FEF746B912080020C8930008E893000838
:10546000A093000800000000000000000000000001
:1054700000291DDD1346002270B511460446186848
:1054800002F032FC83B2FF2B014609D80B4DC3B2A8
:10549000297020460A49BDE870401A46FEF720B937
:1054A000064B08491A782046BDE87040FEF718B947
:1054B000024B05491A78FEF713B900BFD41B002030
:1054C00034940008188F00081494000800000000AD
:1054D00070B52B4D00292B780BDD94460022114628
:1054E0000446DCF8000002F0FFFB82B21E2A33D82B
:1054F000C3B2244E244C327843F65F7120332180AE
:105500009107A37022D400231F48204D01220321BC
:10551000FEF7D6FF08232870237038B101232B70C3
:10552000BDE870401A491B48FEF7DAB833789A078D
:1055300019D40122144800231146FEF7C1FF0028A8
:10554000ECD1337828709B0713D470BD12491148F1
:105550000322FEF7C5F8D6E72A7810492046BDE8B1
:105560007040FEF7BDB80C490A480122FEF7B8F8B2
:10557000DFE7BDE870400A490648FEF7B1B800BF52
:105580001108002001080020F4180020E81E002067
:10559000748D000850090020588D0008188F0008ED
:1055A000C08A0008000000000000000000000000A9
:1055B000F8B50C1E054605DC28461C49BDE8F84038
:1055C000FEF78EB8164600223068114602F08CFBBA
:1055D000012CC7B21CD000227068114602F084FB77
:1055E000012F0446E8D1124D12491348FEF778F80E
:1055F0003A46FF212846FBF71BF9230483F07F433B
:1056000083F47F0303F47F03E4B22343AB61F8BD6B
:10561000012FD1D107490848FEF762F8BDE8F840EC
:1056200003482022FF21FBF703B900BF6094000864
:10563000000402408494000850090020000000008B
:1056400070B5224E224C33781822403022709A07CF
:1056500084B060702ED40023012202211C48FEF782
:105660002FFF05460DF10300FEF742FB1923FF282B
:10567000237000D035B11749174804B0BDE8704019
:10568000FEF72EB833789B071AD401221048002366
:105690001146FEF715FF0028EDD101A99DF8030082
:1056A000022202F02DFB0D490B4801AAFEF718F863
:1056B00004B070BD0A4908480222FEF711F8CAE793
:1056C000074905480122FEF70BF8DEE70108002034
:1056D000F4180020A09400085009002098940008B5
:1056E000588D0008000000000000000000000000CD
:1056F000002908B509DD134600221868114602F09A
:10570000F3FA83B21E2B06D908BD054B1878BDE805
:105710000840FFF795BFBDE80840C0B2FFF790BF53
:105720001108002000000000000000000000000040
:10573000704700BF000000000000000000000000F3
:10574000704700BF000000000000000000000000E3
:10575000FEE700BF000000000000000000000000A5
:10576000F8B5154D154F16491648174A05F170043E
:1057700081420DD9043A034652F8046F43F8046B92
:105780009942F9D84B1E1B1A23F003030433184423
:10579000874207D97A1E121A22F00302043200212E
:1057A00002F018FBA54205D0D5E90420D5E906177B
:1057B0001035DDE7F8BD00BF489C0008242000201C
:1057C00024200020242000208CA0000800000000DD
:1057D00008B5064BD3E923210A4303D10122C3F8BC
:1057E000902008BD0248FBF7EBFA00BFC80E00206E
:1057F00078840008000000000000000000000000A5
:1058000008B5074BD3F88C2032B9D3F89010002993
:1058100002DDC3F8902008BD0248FBF7D1FA00BFB3
:10582000C80E00209884000800000000000000005E
:1058300008B5FFF7E5FF084B1A689A4203D1002329
:1058400083F3118808BDD96893688A689A42F6D2B2
:105850000248FBF7B5FA00BFC80E00205C960008AE
:1058600038B5334CB4F8943013F0040545D03023E8
:1058700083F31188D4F88C30002B52DBD4F89020BD
:10588000002A4ED10133C4F88C3082F31188294AA2
:10589000536903F001035361C3B9302181F31188C7
:1058A000D4F88C30002B3FDDD4F89020002A3BD177
:1058B000013BC4F88C3082F31188B4F8943013F0B3
:1058C00004050AD0BDE83840FBF7D2B81A4A13687D
:1058D000002BE2D050689847DFE781F31188D4F8B5
:1058E0009830164A9A6004211970FBF749FA85F33B
:1058F0001188BDE83840FBF7BBB8302383F311882B
:10590000D4F898300D4A9A6003211970FBF738FAE1
:1059100085F31188302383F31188D4F88C30002B61
:10592000ACDA0748FBF74CFA0648FBF749FA00BF28
:10593000C80E0020003C0140400E0020749A000870
:10594000B4940008BC9400080000000000000000AF
:1059500038B5334CB4F8943013F0040545D03023F7
:1059600083F31188D4F88C30002B52DBD4F89020CC
:10597000002A4ED10133C4F88C3082F31188294AB1
:10598000536903F002035361C3B9302181F31188D5
:10599000D4F88C30002B3FDDD4F89020002A3BD186
:1059A000013BC4F88C3082F31188B4F8943013F0C2
:1059B00004050AD0BDE83840FBF75AB81A4A936884
:1059C000002BE2D0D0689847DFE781F31188D4F844
:1059D0009830164A9A6004211970FBF7D1F985F3C3
:1059E0001188BDE83840FBF743B8302383F31188B2
:1059F000D4F898300D4A9A6003211970FBF7C0F96A
:105A000085F31188302383F31188D4F88C30002B70
:105A1000ACDA0748FBF7D4F90648FBF7D1F900BF29
:105A2000C80E0020003C0140400E0020449A0008AF
:105A3000B4940008BC9400080000000000000000BE
:105A400038B5334CB4F8943013F0040545D0302306
:105A500083F31188D4F88C30002B52DBD4F89020DB
:105A6000002A4ED10133C4F88C3082F31188294AC0
:105A7000536903F004035361C3B9302181F31188E2
:105A8000D4F88C30002B3FDDD4F89020002A3BD195
:105A9000013BC4F88C3082F31188B4F8943013F0D1
:105AA00004050AD0BDE83840FAF7E2BF1A4A136984
:105AB000002BE2D050699847DFE781F31188D4F8D2
:105AC0009830164A9A6004211970FBF759F985F34A
:105AD0001188BDE83840FAF7CBBF302383F3118833
:105AE000D4F898300D4A9A6003211970FBF748F9F1
:105AF00085F31188302383F31188D4F88C30002B80
