:020000040800F2
:1000000000040020D9020008DB020008DB0200081F
:10001000DB020008DB020008DB020008DB0200084C
:10002000DB020008DB020008DB0200087165000843
:10003000DB020008DB020008DB020008DB0200082C
:10004000DB020008DB020008DB020008DB0200081C
:10005000DB020008DB020008214B0008114C0008FD
:10006000014D0008F14D0008E14E0008DB020008D8
:10007000DB020008DB020008DB020008DB020008EC
:10008000DB020008DB020008DB020008DB020008DC
:10009000DB020008DB020008DB020008D14F000889
:1000A00021520008E1520008B153000871540008C1
:1000B00041550008DB020008DB020008DB020008F3
:1000C000DB020008DB020008DB020008DB0200089C
:1000D000DB020008DB020008DB020008DB0200088C
:1000E000F1500008DB020008DB020008DB02000818
:1000F000DB020008DB020008DB020008DB0200086C
:10010000DB020008DB020008DB020008DB0200085B
:10011000DB020008DB020008DB020008DB0200084B
:10012000DB020008DB020008DB020008DB0200083B
:10013000DB020008DB020008DB020008DB0200082B
:10014000DB020008DB020008DB0200086157000840
:10015000DB020008DB020008DB020008DB0200080B
:10016000DB020008DB020008DB020008DB020008FB
:10017000DB020008DB020008DB020008DB020008EB
:10018000DB020008DB020008DB020008DB020008DB
:10019000DB020008DB020008DB020008DB020008CB
:1001A000DB020008DB020008DB020008DB020008BB
:1001B000DB020008DB020008DB020008DB020008AB
:1001C000DB020008DB020008DB020008DB0200089B
:1001D000DB020008DB020008DB020008DB0200088B
:1002000072B6264880F30888254880F30988254877
:1002100025490860022080F31488BFF36F8F04F033
:10022000E7FB05F0F5FC4FF0553020491B4A9142A1
:100230003CBF41F8040BFAE71D49194A91423CBF03
:1002400041F8040BFAE71B491B4A1C4B9A423EBF7C
:1002500051F8040B42F8040BF8E700201849194A3A
:1002600091423CBF41F8040BFAE704F0D9FB04F0DB
:10027000C7FB154C154DAC4203DA54F8041B8847F4
:10028000F9E706F085F9124C124DAC4203DA54F846
:10029000041B8847F9E704F0BBBB00000004002002
:1002A000000800200000000808ED00E00000002029
:1002B00000040020907B000800080020380C00207B
:1002C000380C002040230020E0010008E001000875
:1002D000E0010008E001000892E700F000F8FEE706
:1002E0002DE9F04FC1F80CD0C3689D46BDE8F08FF2
:1002F00004F0E6FB002383F311882846A047002082
:1003000006F01EF9FEE704F0C3FB05F089FD04F0DA
:10031000D7FB00DFFEE700002DE9F04F814645489E
:100320008E4675461EF801CB10F80C4014F00804F8
:10033000F7D1BCF12D0FE34654D0BCF12B0F08BF11
:100340009EF800B06FF0004808BF05F1020E1BB127
:10035000102B4FD01F4604E0BBF1300F55D00A23BD
:100360001F460025B8FBF7F6284607FB168A07E06C
:10037000864215D329D007FB00C001251EF801BB1A
:10038000ABF1300CBCF1090F06D9ABF1410CBCF15B
:10039000190F08D8ABF1370C63450DDD002DE7DAF6
:1003A0004FF0FF35EAE7ABF1610CBCF1190F03D850
:1003B000ABF1570C6345F1DC002D0BDB04B140427F
:1003C0000AB195BB1160BDE8F08FE245D3DA4FF07A
:1003D000FF35D3E72223C9F800301AB30EF1FF31FD
:1003E0004046EFE79EF800B04FF0004805F1020EDE
:1003F0000124ACE7BBF1300FACD19EF8000000F057
:10040000DF00582807D01F46ABE79EF8003003F006
:10041000DF03582B0BD110279EF801B03B460EF19D
:10042000020E9EE74046BDE8F08F8046D6E70823DF
:100430001F4696E7AD6F0008012B02D0242B00D891
:100440006AE710B500F02CF816230360002010BDF9
:10045000012A08D0242A134605D8064A8446106883
:100460000A46614658E710B500F01AF816230360F3
:10047000002010BD00080020012A08D0242A1346BD
:1004800005D8064A844610680A46614644E710B516
:1004900000F006F816230360002010BD00080020BD
:1004A000014B1868704700BF00080020844641EAED
:1004B000000313F003036DD1403A41D351F8043BDC
:1004C00040F8043B51F8043B40F8043B51F8043B2E
:1004D00040F8043B51F8043B40F8043B51F8043B1E
:1004E00040F8043B51F8043B40F8043B51F8043B0E
:1004F00040F8043B51F8043B40F8043B51F8043BFE
:1005000040F8043B51F8043B40F8043B51F8043BED
:1005100040F8043B51F8043B40F8043B51F8043BDD
:1005200040F8043B51F8043B40F8043B51F8043BCD
:1005300040F8043B51F8043B40F8043B403ABDD23C
:10054000303211D351F8043B40F8043B51F8043BDE
:1005500040F8043B51F8043B40F8043B51F8043B9D
:1005600040F8043B103AEDD20C3205D351F8043B6D
:1005700040F8043B043AF9D2043208D0D2071CBF39
:1005800011F8013B00F8013B01D30B880380604662
:10059000704700BF082A13D38B078DD010F00303D8
:1005A0008AD0C3F10403D21ADB071CBF11F8013B48
:1005B00000F8013B80D331F8023B20F8023B7BE797
:1005C000043AD9D3013A11F8013B00F8013BF9D2C2
:1005D0000B7803704B7843708B788370604670475C
:1005E000830730B548D0541E002A3FD0CAB2034614
:1005F00001E0013C3AD303F8012B9D07F9D1032C0C
:100600002DD9CDB245EA05250F2C45EA054536D949
:10061000A4F1100222F00F0C03F1200EE6444FEA81
:10062000121C03F1100242E9045542E9025510324E
:100630007245F8D10CF1010214F00C0F03EB021219
:1006400004F00F0C13D0ACF1040323F003030433C4
:10065000134442F8045B9342FBD10CF003042CB129
:10066000CAB21C4403F8012B9C42FBD130BD644646
:100670001346002CF4D1F9E703461446BFE71A46A7
:10068000A446E0E711F0FF01034644D0820732D1CF
:1006900010B5046841EA012E4EEA0E4E8EEA0402BD
:1006A000A2F1013323EA0203A4F1013222EA040297
:1006B000134313F0803F0FD150F8044F84EA0E0C1F
:1006C000A4F10133ACF1013223EA040322EA0C0263
:1006D000134313F0803FEFD0037823B936E010F8CE
:1006E000013F002B32D09942F9D110BD8A4211D07E
:1006F0009A071846CCD0184613F8012B002AF5D1DA
:10070000104670479907184607D0184601330278FB
:10071000002AF7D170478207F7D10268A2F10133AE
:1007200023EA020313F0803F08D150F8042FA2F10E
:10073000013323EA020313F0803FF6D00378002B45
:10074000E8D010F8013F002BFBD17047184610BDD0
:100750000000000000000000000000000000000099
:10076000A2EB0300704700BF02780B78012A28BF74
:100770009A42F5D16DE9044540EA0104CDE90267EA
:100780006FF0000C4FEA447212B380EA010414F0D7
:10079000070F6AD100F0070420F0070004F00305FA
:1007A00021F007014FEAC505F0E8042314F0040F17
:1007B000F1E804670CFA05F462EA040266EA04064A
:1007C0000AD063EA0403624667EA0407664603E068
:1007D000F0E80423F1E8046782FA4CF582EA0604A3
:1007E000A4FA8CF46CBB83FA4CF583EA0705A5FAEE
:1007F0008CF595B950E9022351E9026782FA4CF56C
:1008000082EA0604A4FA8CF483FA4CF583EA07051D
:10081000A5FA8CF52543DBD09CB92DBAB5FA85F441
:1008200024F0070427FA04F1DDE9026723FA04F350
:1008300003F0FF0001F0FF01FDE80445A0EB01001B
:10084000704724BAB4FA84F424F0070426FA04F1B9
:10085000DDE9026722FA04F202F0FF0001F0FF0175
:10086000FDE80445A0EB0100704714F0030F3CD1F4
:1008700010F0030428D150F8082B51F8083B82FAF5
:100880004CF582EA0305A5FA8CF55DB950F8042C05
:1008900051F8043C82FA4CF582EA0305A5FA8CF57E
:1008A000002DE8D02DBAB5FA85F424F0070423FA18
:1008B00004F122FA04F202F0FF0001F0FF01FDE86A
:1008C0000445A0EB010070474FEAC40420F0030088
:1008D00050F8082B21F0030151F8083B0CFA04F4FE
:1008E00062EA040263EA0403C9E710F003041AD0C1
:1008F000A1EB040120F00300E40750F8042B06D01C
:100900000FD28B785FFAA2F4E41A06D12BB1CB7820
:100910005FFAB2F4E41A00D11BB920465DF8104B1F
:10092000704701F1040150F8042BCC0721F00301BA
:1009300051F8043B48D824D222F07F4482FA4CF587
:1009400094EA1325A5FA8CF50AD165B951F8043B50
:1009500084EA0204B4EB036F0ED150F8042BEBE7EA
:100960004FEA132355E035F07F454DD10878FDE877
:100970000445C0F1000070474FEA126203F0FF0324
:1009800047E002EA1C4482FA4CF594EA1345A5FAC2
:100990008CF50AD165B951F8043B84EA0204B4EB42
:1009A000034F0CD150F8042BEBE74FEA134330E030
:1009B00015EA1C4528D10B884FEA124229E04FEA7C
:1009C000124203EA1C4324E002F0FF0482FA4CF5D1
:1009D00094EA1365A5FA8CF50AD165B951F8043B80
:1009E00084EA0204B4EB032F09D150F8042BEBE79F
:1009F0004FEA13630DE015F0FF0F05D10B684FEAC6
:100A0000122223F07F4304E04FF00000FDE804458C
:100A1000704712BA1BBA82FA4CF482EA0304A4FAB1
:100A20008CF5B5FA85F402FA04F203FA04F34FEAFE
:100A30001260FDE80445A0EB136070470000000061
:100A400090F800F06DE9024520F007016FF0000C0E
:100A500010F0070491F820F040F049804FF00004B6
:100A60006FF00700D1E9002391F840F000F1080091
:100A700082FA4CF2A4FA8CF283FA4CF3A2FA8CF3C9
:100A80004BBBD1E9022382FA4CF200F10800A4FA30
:100A90008CF283FA4CF3A2FA8CF3E3B9D1E9042384
:100AA00082FA4CF200F10800A4FA8CF283FA4CF3BB
:100AB000A2FA8CF37BB9D1E9062301F1200182FA75
:100AC0004CF200F10800A4FA8CF283FA4CF3A2FA7B
:100AD0008CF3002BC6D0002A04BF04301A4612BA89
:100AE000B2FA82F2FDE8024500EBD2007047D1E98C
:100AF000002304F00305C4F100004FEAC50514F01B
:100B0000040F91F840F00CFA05F562EA05021CBFEB
:100B100063EA050362464FF00004A9E784460078C3
:100B2000B8B100B58E46097872460B4619B90BE08C
:100B300012F8013F43B19842FAD11378002B14BF49
:100B4000604600205DF804FB1CF8010F0028EBD183
:100B5000F3E7704710B50446007888B18E460978EF
:100B6000A44659B172460B4602E012F8013F2BB180
:100B70008342FAD11CF8010F0028F2D1ACEB04003B
:100B800010BD00BF2DE9F04F012BADF21C4D1D46ED
:100B900081460F46904640F24581012300249C4641
:100BA00019464FF0FF3006E0A3EB000C1C46012174
:100BB00063189D4210D908EB000218F80360525CDC
:100BC0009642F1D300F082804FF0010C204661463E
:100BD000644463189D42EED8CDF808C04FF0010C74
:100BE000002461464FF0FF36634606E0A3EB060C97
:100BF0001C46012163189D420FD908EB010218F829
:100C000003E0925D9645F1D866D04FF0010C264680
:100C10006146644463189D42EFD8013600F1010B30
:100C2000B34502D8CDF808C0B34605AB0DF2144267
:100C300043F8045F9342FBD1002D00F0F8806C1E56
:100C400006AE08F1FF3208EB0400019612F8011F0E
:100C5000D3432B444344904246F82130F6D1029BC3
:100C60005A4608EB0301404600F09AF9002840F08C
:100C70008180029B0BF1FF32EB1A824606460592F9
:100C8000039309EB060E019A1EF8043052F8233044
:100C900043B3BAF1000F04D0029A9342039A38BFCB
:100CA00013461E444FF0000A7B1BB342E9D209EB06
:100CB000070045F4006100F0A7F907447B1BB3422D
:100CC000DFD200200DF21C4DBDE8F08F8C4512BF25
:100CD0000131644401216BE761450ABF64180131A9
:100CE000012187E7D3455B4638BF5346A34211D263
:100CF000591E9A1941444A4402E00133A34209D2E1
:100D000012F8010B11F801CF8445F6D0CBF10102A6
:100D10001644C6E7D345059B7DD90BEB06024A4432
:100D200008EB0B01CDF810B002E0534516D0034696
:100D300012F8010D11F801CD844503F1010B03F107
:100D4000FF30F2D05B46DDF810B00AF1010A9A4597
:100D50000BD8029BDDF80CA01E44A5E753460AF110
:100D6000010A9A45DDF810B0F3D970460DF21C4D1A
:100D7000BDE8F08FA5EB0B035B4538BF5B46013345
:100D800004930BF1FF330293CBF10103002603938D
:100D900045F4006A09EB060E019A1EF8043052F879
:100DA00023306BB11E447B1B9E42F3D909EB070035
:100DB000514600F029F907447B1B9E42EAD980E79F
:100DC000A34514D2029B0BEB060208EB03014A4435
:100DD0005B4602E00133A34209D212F8010B11F87D
:100DE00001CF8445F6D0039A16441E44DBE7BBF1DD
:100DF000000F12D00BEB0601494408EB0B0201E097
:100E000043450AD012F801CD11F8010D844513466F
:100E1000F6D0049BC6E75B4697E770460DF21C4D83
:100E2000BDE8F08F012302934FF0000BFDE606AB07
:100E30004FF0FF34019312E72DE9F0410D46097898
:100E400090B00446002953D06A78002A00F08380CD
:100E5000AB78002B50D0E878002800F083802B7905
:100E6000002B57D02846FFF7EBFD064640F40071F3
:100E7000204600F0C9F886425CD8FE2E00F287803A
:100E8000801B27184022711C6846FFF7A9FB7EB122
:100E90006A1E5FFA86FC901912F8013F03F03F03C7
:100EA00040336B44A91A6144824203F8401CF3D1D9
:100EB000013CA35D03F03F0340336B4413F8400C47
:100EC0000444A74203D23AE04444A74237D314F87B
:100ED00006C00CF03F0C0CF140030DEB030C204658
:100EE000324629461CF8408C00F05AF80028EBD115
:100EF000204610B0BDE8F081007842EA014200E0EF
:100F00000C4640EA0343611CA0B19A426078F7D1D5
:100F1000013CEDE722786AB1296809BA01E09942FB
:100F20001ED042EA0323204614F8012F002AF6D1EE
:100F3000994215D00024204610B0BDE8F081BB5D79
:100F4000B819002BF6D04FF4006100F05DF80744AB
:100F5000BC42ADD9EEE710B0BDE8F041FFF792BB5F
:100F6000C41EC5E7120442EA016242EA0323217863
:100F7000024600E02C4641EA0200651C02020029FC
:100F8000D8D0B3EB002F6178F4D1023CB0E7014632
:100F900033462A46204610B0BDE8F041F2E500BFD6
:100FA000032A10B517D940EA010C1CF0030F0446C0
:100FB0000B4623D119462046D1F800E0D0F800C0F6
:100FC000F44504F1040403F1040317D1043A032A9D
:100FD00020461946EED8541EA2B100F1FF3C01395B
:100FE00001E0C3180CD01CF801EF11F8012F964551
:100FF000A4EB0C03F5D0AEEB020010BD541EECE7E1
:10100000184610BD104610BD71B1034600EB010C2F
:1010100001E0634506D01A46013311780029F8D162
:10102000101A7047181A70470846704700000000F1
:10103000704700BF0000000000000000000000003A
:101040002DE9F043002302F003054FEA521E4FF052
:101050000F080127032609E0046A24EA020202625B
:1010600049082DD04FEA8E0EAD00013303F0070280
:101070004FEA430C920011F0010F07FA03F906FA48
:101080000CFC08FA02F2EBD0446824EA090444603C
:10109000846824EA0C048460C46824EA0C0444EAEA
:1010A0000E04C460046824EA0C0C4CEA0504072B07
:1010B0000460D1D9446A490824EA02024262D1D1CB
:1010C000BDE8F08300000000000000000000000008
:1010D00000EB810330B4DD68AB691C68DC6019B9D2
:1010E000402C84BF40241C606B8A2A68406D02F04B
:1010F000030C5A1E2244B2FBF3F202FB03F3033348
:1011000023F0030343EAC24300EB411243F0C04320
:10111000BCF1010FC2F8103B0AD009B200EB41113B
:1011200030BCD1F8003B43F00443C1F8003B7047AA
:10113000D0F8083800EB411213F4807FD2F8003B5E
:1011400014BF43F0805343F0005309B2C2F8003B90
:10115000E4E700BF00000000000000000000000005
:1011600000EB810310B4DC6862691368D360F3B9E3
:10117000426D02EB41134FF40020C3F810092368BD
:1011800003F00303012B2CD008B202EB4010012323
:10119000D0F8004944F00444C0F8004903FA01F1D2
:1011A000D2F8343810BC1943C2F83418704719B952
:1011B000402B84BF40231360B4F810C0426D0CF183
:1011C000FF301844B0FBFCF043EAC04302EB41108F
:1011D00043F00053C0F81039236803F00303012BD8
:1011E000D2D1D2F8083813F4807F02EB411308B251
:1011F000D3F8004914BF44F0805444F00054C3F8BD
:101200000049C2E7000000000000000000000000EC
:10121000FEE700BF0000000000000000000000002A
:10122000014B5B6883607047001000E00000000025
:101230000E4A0F4B81685B6810B4946802691B1BEF
:101240005B1AD218416902614268C46841F1000129
:101250009342026888BF436001349342C0E902347C
:10126000416110BC38BF0360704700BFE81B00201D
:10127000001000E00000000000000000000000007E
:10128000302383F311880D4B5B6813F4006302D1A4
:1012900083F311887047EFF30983203B4FF080728E
:1012A000DA6183F30988064A1168D268896892680E
:1012B00091428CBF034A044A9A61704700ED00E0F6
:1012C000C8110020070300081203000800000000F6
:1012D000022906D0032906D00129074818BF00209B
:1012E000704706487047032A03D8054800EBC20040
:1012F00070470020704700BFBC7A0008687A000879
:10130000447B000800000000000000000000000016
:1013100090F8443003F01F02012A03D190F84510E1
:101320000B291BD003F06003202B01D00020704755
:1013300090F84530212B09D81F2BF7D90A490722ED
:101340000023C0E90E12036401207047222BEDD167
:101350000023C0E90E330364012070470023C0E975
:101360000E33036410467047300C0020000000006C
:1013700038B5234DEB6869681C69DA681440E2B23D
:10138000D2431A610B7D7BB960072DD52B78042BD6
:1013900026D0A1070FD4E40705D56B6818481B6950
:1013A000984703232B7038BDA2070BD52B78042B4D
:1013B00004D06307EFD504232B70ECE78B68E3B10F
:1013C000284698476307E6D52B78042BF3D1696844
:1013D000CB68002BEFD00A48984704232B70DAE73C
:1013E0008B683BB128469847A107D4D52B78042BAE
:1013F000E1D1ECE7A007CED5EAE76207CBD5E7E776
:10140000380C002000000000000000000000000078
:101410000B4A4FF08041D2F89830486A0949586029
:101420004868196860F31F2143F8101B02F69C01FD
:101430008B4228BF02F19C03C2F89830704700BF6E
:10144000C8110020001000E00000000000000000B3
:1014500008B5044672B6094DB5F894301B0705D59A
:10146000074BC5F8884003221A70FEE7D5F898307C
:1014700005221A709860FFF7CBFFF1E7C811002032
:10148000E81B002000000000000000000000000039
:1014900070B400228E684FF0FF3400E0624600EB2B
:1014A00042110B46D1F80059002D02F1010C05DA6A
:1014B000D1F8005945F08045C1F80059D1F8005BDA
:1014C000002D05DAD1F8005B45F08045C1F8005BDE
:1014D000B242C3F80849C3F8084BDFD14FF00113FB
:1014E00070BCC0F81C38704700000000000000000D
:1014F000124BD3F88C2010B5D2B9D3F89030002B12
:1015000016DDC368BBB1D0E90531D0F81CC0C26894
:1015100063448B42436124BF436A4361013A036BD6
:10152000C2600022826213B1BDE81040184710BDAE
:101530000348FFF78DFF0348FFF78AFFC81100201B
:10154000B0700008047800080000000000000000EF
:10155000154BD3F88C2010B512BBD3F89030002B6C
:101560001EDDC9B1C369043B8B4215D3C3689BB16F
:10157000036984691960C169C2680B44A3420361AD
:1015800024BF436A0361013A036BC2600022826296
:101590002BB1BDE8104018470448FFF759FF10BDB4
:1015A0000348FFF755FF00BFC81100204C75000825
:1015B000B070000800000000000000000000000003
:1015C00008B530B129B1012901D0002008BD002A99
:1015D000FBD00148FFF73CFF7877000800000000CF
:1015E000124AD2F88C10002910B518DBD2F89020DE
:1015F000002A14DD0346A8B10278042A12D18068BB
:10160000996D00220C68DC6500F001109860BDE85F
:101610001040C3E90422586D9A61FFF739BF0448AE
:10162000FFF716FF0348FFF713FF00BFC8110020A4
:10163000B87000081C7800080000000000000000DE
:10164000F8B5144DD5F88C60002E20DBD5F89050FD
:10165000002D1CDDC0B1032916D846894FF0010CBE
:101660000CFA01FC1CEA06051FFA8CF70CD100EB02
:1016700081043E43E4684681A469C4E90035A26060
:10168000BDE8F840FFF724BD0348FFF7E1FE03483B
:10169000FFF7DEFEC8110020D4770008B8700008FC
:1016A000F8B5144DD5F88C60002E20DBD5F890509D
:1016B000002D1CDDC0B1032916D806894FF0010C9E
:1016C0000CFA01FC1CEA06051FFA8CF70CD100EBA2
:1016D00081043E43E46806816469C4E90035A26080
:1016E000BDE8F840FFF73CBD0348FFF7B1FE0348F3
:1016F000FFF7AEFEC811002080770008B870000820
:10170000436BD3F88C2410680178042902D1197A2C
:10171000022900D070471179B0F808C001228A4030
:1017200012EA0C0FF6D10E4A10B5D2F88C40002CFC
:1017300013DBD2F89020002A0FDDD3E91542944242
:1017400005D0BDE8104052F8043BFFF7A9BF1B6D60
:10175000002BF6D00348FFF77BFE0348FFF778FE27
:10176000C8110020C8770008B87000080000000009
:1017700070B590F83430063B0446052B04D8DFE8FA
:1017800003F03E03030613373D48FFF761FEC36BCA
:10179000B0F84A20934207D2C268128AB3FBF2F132
:1017A00002FB1133002B46D0142384F8343030234D
:1017B00083F31188334DD5F88C30002B35DDD5F807
:1017C000906096BB01223346C5F8902020463246F1
:1017D0003146FFF735FFD5F88C30002B28DDD5F8E2
:1017E0009030002B24DDC5F8906086F3118870BD21
:1017F000036C03B19847002384F8343070BD436D07
:101800004168D3F800290D6842F40012C3F800299A
:10181000D3F8002B42F40012C3F8002B0DB10621BF
:10182000A847062384F8343070BD1748FFF710FE30
:101830001648FFF70DFE302383F31188114DD5F8BC
:101840008C30002BF1DDD5F89060002EEDD1012217
:101850003346C5F8902031463246FFF721FFD5F8D0
:101860008C30002BE4DDD5F89030002BE0DDC5F89E
:10187000906086F311880A2384F8343070BD00BF6D
:10188000A4750008C8110020C0700008C8700008C6
:1018900038B590F834101429044606D0152924D000
:1018A00006290DD02548FFF7D3FDC3689B695B6807
:1018B0002BB9036C03B19847002384F8343038BD4A
:1018C000436DD3F8002942F40012C3F80029D3F87D
:1018D000002B42F40012C3F8002B43681B6803B1CD
:1018E0009847062384F8343038BD0B2380F8343011
:1018F000302383F31188124CD4F88C30002B17DD81
:10190000D4F89050A5B901222B46C4F8902029465E
:101910002A46FFF7C5FED4F88C30002B0BDDD4F837
:101920009030002B07DDC4F8905085F3118838BD46
:101930000448FFF78DFD0448FFF78AFDA8740008EE
:10194000C8110020C0700008C87000080000000026
:101950004FF080430229DA6838BF0221920710B5A0
:1019600000EB01041BD55C635A6A101A814298BFD0
:10197000022101D910BD0246D8680131800701EB70
:1019800002040CD55C63586A821A8A42F3D2022997
:10199000F0D9044A536B43F00103536310BD02486E
:1019A000FFF756FDC8110020407500080000000038
:1019B0001F4A38B5D2F88C30002B2FDBD2F890308C
:1019C000002B2BDD036863B3116988420CD0D0E98A
:1019D0000145996823602944C3E9014100214FF082
:1019E000FF330160936138BD1146002541F8103F77
:1019F0005960056014698C4216D08068A3684FF066
:101A000080410344A360486AD169421A9342EAD9EB
:101A1000091A1944BDE83840FFF79ABF0548FFF797
:101A200017FD0548FFF714FD4FF08043DD6038BD1A
:101A3000C8110020B87000083877000800000000C6
:101A400010B590F828301BB30F2B21D0124AB2F8F2
:101A50009410C90704460FD50022A369A16884F831
:101A600028201B689A688A42FBD85A682046C4E935
:101A7000003214605C6010BDD2F89820C16ADB00AF
:101A800043F00103C2E902011370FFF7C1FCE3E771
:101A90000248FFF7DDFC00BFC811002000750008F8
:101AA0002D4AD2F88C30002B70B551DBD2F8903033
:101AB000002B4DDD41684B0747D1836813F00704C5
:101AC00043D1994241D25D1AEF2D3ED9C568FF2D11
:101AD0003BD80669CEB343F8301C43F8746C4169B7
:101AE00043F8701C4FF0020C0126016843F8485C73
:101AF00003F828CC03F8266C43F80C5C03F8274C59
:101B0000164D43F82C3C43E90544D46A43F8545C31
:101B1000A3F17405A3F1400043F8445C02F12805E9
:101B200043F8341C43F83C4C43F8382CA3F11C0117
:101B300043F8405C2060A3F12004D06243E90841EF
:101B4000A3F1500043F8181C70BD0548FFF780FC56
:101B50000448FFF77DFC00BFC8110020F102000817
:101B600084760008B8700008000000000000000043
:101B700038B5302383F31188194BD3E923452C431F
:101B800020D10124C3F89040F9B101F1FF3C1CEAD7
:101B9000010C1AD1134C65684942281A0840216883
:101BA000821A8A420CD395420AD362601A680021D5
:101BB0009A42C3F890100BD1002383F3118838BDEB
:101BC0006046F3E70848FFF743FC0848FFF740FC8E
:101BD000D96893688A689A42EED20548FFF738FCC4
:101BE000C8110020E01B0020D070000878750008A4
:101BF00090740008000000000000000000000000D9
:101C0000104BD3F88C20002A10B515DBD3F8903098
:101C1000002B11DD99B14B1E0B4010D10A4A5468BC
:101C20004942201A08401168884203D3844201D3F4
:101C3000506010BD184610BD0448FFF709FC044869
:101C4000FFF706FCC8110020E01B0020B870000858
:101C5000787500080000000000000000000000008F
:101C600070B5302383F31188344CD4F88C30002BBA
:101C700052DDD4F89030002B4ED1314BD3F88C1478
:101C800001220868C4F8902090F800C0BCF1040F4D
:101C90000BD193F808C0BCF1020F06D10979B0F856
:101CA00008C08A4012EA0C0F05D00023C4F8903017
:101CB00083F3118870BDD3E915529542F5D11D6D9E
:101CC000002DF2D0DD6E002DEFD0043DAD1AECD02A
:101CD00015601D6DDE6D013D1D651D6E1544B5421F
:101CE0005D6524BF9D6E5D65D4F88C500026B542BD
:101CF000DE661ADBD4F89050B54216DD5D6DAA425F
:101D00000DD052F8043BFFF7CBFCD4F88C30002BFD
:101D10000EDC0C48FFF79CFB0B48FFF799FB1B6D93
:101D2000002BEED00948FFF793FB0948FFF790FB23
:101D3000D4F89030002BECDDB7E700BFC8110020CD
:101D4000500C0020C8700008C070000874740008AF
:101D5000B870000800000000000000000000000053
:101D60002DE9F0474F4F7E6D06EB40130546D3F843
:101D70000849C3F80849E1074FEA401919D5D6F8D0
:101D80001038DA0715D507EB8003D9684B69186856
:101D9000DA68904256D33B89D1F808800122AA40E4
:101DA00023EA02033B81B8F1000F02D029463846EE
:101DB000C047230608D5D6F834384FF0010E0EFA86
:101DC00005FE13EA0E0F01D1BDE8F08707EB85038E
:101DD000D7F85480D9684E69D6E900349C422AD29B
:101DE0006A1CD2B20F8A08EB023208EB090C1C1BEA
:101DF000DCF81839BC4228BF3C469BB2B4EB830FD9
:101E0000E2D8B568002C43D02B681360042C0AD9A3
:101E1000601F20F00300043028442B4653F8041FB1
:101E200011609842FAD1736825441C443368B56048
:101E3000A3427460DBD8D8F8343823EA0E03C8F81C
:101E40003438C1E7121A1A6000225A60302383F333
:101E50001188DFF85480D8F88C3093421BDDD8F815
:101E600090A0BAF1000F16D1012329463846C8F8D0
:101E70009030FFF775F9D8F88C30002B0EDDD8F8CC
:101E80009030002B0ADDC8F890A08AF3118890E703
:101E90000648FFF7DDFA0648FFF7DAFA0548FFF7CC
:101EA000D7FA00BFE0100020C8110020D475000848
:101EB000C0700008C87000080000000000000000AA
:101EC0002DE9F041314F7E6D06EB40130446D3F807
:101ED000085BC3F8085B280703D5D6F81438190740
:101EE00046D4EA0742D5D6F81438DB073ED507EBCF
:101EF0008403D9685CB98A69488A5368B3FBF0F5F2
:101F000000FB15331BB91068D36898420DD37B8949
:101F1000CD680122A24023EA02037B8135B321462A
:101F20002B461A48BDE8F04118471B1AC2E9003495
:101F3000302383F31188164DD5F88C30002B1FDD2C
:101F4000D5F89030E3B901231048C5F89030214608
:101F5000FFF7BEF8D5F88C30002B14DDD5F89030A3
:101F6000002B10DDC5F8904084F31188BDE8F081A6
:101F700007EB84032146DB6838465B689847B0E787
:101F80000448FFF765FA0448FFF762FAE010002002
:101F9000C8110020C0700008C870000800000000D0
:101FA00008B5154B9A68D10723D4DA68D20720D434
:101FB00012498A6822F00F028A6001289A6810D1BB
:101FC00042F001029A60DA6822F00102DA600A4BFC
:101FD0001A6842F001021A605A6822F001025A603F
:101FE00008BD22F001029A60DA6842F00102DA606C
:101FF000EDE70348FFF72CFA003C014000380140B0
:10200000BC75000800000000000000000000000097
:1020100010B5302383F31188144CD4F88C30002B86
:102020001EDDD4F89030DBB9114B1B780120C4F8C9
:1020300090009BB1FFF7B4FFD4F88C100D4A0E4806
:1020400000239942C2E900030DDDD4F890209A42A2
:1020500009DDC4F8903083F3118810BD0220E9E750
:102060000648FFF7F5F90648FFF7F2F9C811002016
:10207000C11100204011002091210008C07000080B
:10208000C870000800000000000000000000000010
:1020900038B51C4C04F11003E16143602369826090
:1020A000036058604FF080432061D868022A38BF2F
:1020B000022210F0020001EB02051CD15D631861E1
:1020C0000220D8605D6AA5EB010C624502D938BDDB
:1020D00029461546DA680130920701440ED5596346
:1020E0005A6A511B8142F3D20228F0D9636B43F044
:1020F0000103636338BD0448FFF7AAF90348FFF7FB
:10210000A7F900BFC81100209C76000840750008A0
:10211000F8B51C4E4FF0804334465F6A54F8103FC8
:10212000A3420A4629D00546F0699A68A7EB000C3D
:1021300011EB0C0C34BF64460C46A24205D916E0E4
:102140009D4211D01B68A41A9A689442F8D85A6824
:10215000AC60C5E9003215609A685D60121B4FF0F3
:10216000FF319A60B161F8BD0748FFF771F9384651
:10217000FFF7EEFB33699A68E7E73946BDE8F840B8
:10218000FFF786BFC8110020F477000800000000A8
:1021900070B54448444903780A78B3FA83F35B097D
:1021A000013203700A70302383F311883F4CD4F856
:1021B0008C30002B6CDDD4F89030002B68D13C4B78
:1021C0009968DA6841EA02000125C007C4F8905016
:1021D00016D53848806810F00F005CD11E6826F0D4
:1021E00001061E605E6822F0010221F0010126F066
:1021F00001065E609960DA602F4A5D61C2E9000005
:102200002E4D2B6853B12846FFF7D2FBD4F88C3003
:10221000002B3ADBD4F89030002B36DD284A2748D3
:1022200000234FF4FA71C5E903236B61FFF770FFD8
:10223000D4F88C30002B28DBD4F89030002B24DD30
:10224000204D2B6853B12846FFF7B2FBD4F88C30F1
:10225000002B1ADBD4F89030002B16DD1A4B1948EE
:1022600000264FF4FA61C5E903366E61FFF750FFAF
:10227000D4F88C30B34211DDD4F89030B3420DDD88
:10228000C4F8906086F3118870BD1048FFF7E0F83D
:102290000F48FFF7DDF80F48FFF7DAF80E48FFF7B1
:1022A000D7F800BFC1110020C0110020C8110020C4
:1022B000003C01400038014040110020C01E0020B9
:1022C00011200008D81E0020D1260008B870000890
:1022D000C0700008C0740008C8700008000000004A
:1022E00010B590F8283013B30F2B20D0114AB2F854
:1022F0009410C90704460ED50022A369A16884F88A
:1023000028201B689A688A42FBD25A68C4E90032C6
:1023100014605C6010BDD2F89820C16ADB0043F005
:102320000103C2E902011370FFF772F8E4E7024803
:10233000FFF78EF8C8110020487700080000000061
:1023400010B5302383F311881F4CD4F88C30002B48
:1023500036DDD4F89030002B32D10123C4F8903010
:1023600091F8283008460C2B10D8DFE803F01C0F3A
:102370000F220B070F0B0F0F0F0F0B00CA6A93688A
:1023800001339360D0E9003213605A604FF0FF339D
:10239000C362FFF7A5FFD4F88C30002B0DDDD4F815
:1023A0009030002B09DD0023C4F8903083F31188AE
:1023B00010BDCB6A00221A60E8E70448FFF748F82E
:1023C0000348FFF745F800BFC8110020C870000897
:1023D000C0700008000000000000000000000000C5
:1023E0002DE9F041244FD7F88C30002B36DBD7F89D
:1023F0009030002B32DD0468A042064620D00D4606
:102400004FF00008E3682B43E36015B123691D42D8
:1024100013D0D7F88C30002B20DBD7F89030002B6E
:102420001CDD606828B3C26BA368134390F82820B2
:10243000C3630A2A15D00B2A04D02468A642E1D12E
:10244000BDE8F081C26A32EA0303F6D1C0F82C80FD
:10245000FFF746FF2468A642D4D1F1E70748FEF70C
:10246000F7FFC26A1342E8D0C0F82C80FFF738FFAC
:10247000F0E70348FEF7ECFFC8110020B870000831
:102480006877000800000000000000000000000065
:1024900000EB81032DE9F0419E69002E3AD03023F4
:1024A00083F31188454FD7F88C30002B6FDDD7F8B8
:1024B0009030002B6BD10D4600EB850801230446BC
:1024C0000821301DC7F89030FFF78AFFD8F80C308C
:1024D0005B691B6803BBD7F88C30002B5ADBD7F83D
:1024E0009030002B56DD736DB26D93423CD052F8A4
:1024F000043B29462046FFF7D3F8D7F88C30002B51
:1025000042DDD7F89030002B3EDD0023C7F8903035
:1025100083F31188BDE8F081D7F88C30002B39DBCC
:10252000D7F89030002B35DDD6E91532934234D000
:10253000316D706C01313165316E0A44F16DB265F7
:102540008A4224BFB26EB26506F144028242CBD009
:10255000036873645A6090F82830042B2AD1002352
:10256000C362FFF7BDFEB6E7336D002BBFD0D8F8CE
:102570000C305A6912681AB11B8A013B134012D001
:10258000D7F88C30002BC0DC0D48FEF761FF0D48FA
:10259000FEF75EFF0C48FEF75BFF316D0029C7D0E8
:1025A0000A48FEF755FF04F1440229462046FFF78A
:1025B00077F8A2E70648FEF74BFF00BFC8110020DE
:1025C000C8700008C0700008B870000808770008DC
:1025D0002C75000800000000000000000000000052
:1025E00070B504460068844217D00F4D6FF00106A5
:1025F000036823605C6090F82830042B11D1D5F873
:102600008C30C662002B09DBD5F89030002B05DD3D
:10261000FFF766FE2068A042EAD170BD0348FEF7CE
:1026200017FF0348FEF714FFC8110020B870000818
:102630002C750008000000000000000000000000F1
:102640001E4AD2F88C30002B70B531DBD2F89030B6
:10265000002B2DDD1A4B197D49BBD3E900411D69C3
:102660000E1BB5EBA60F22D09E68351D8D429D60D6
:102670003060196928BF9C60186A124C0131A04271
:10268000196114D0016819624C6090F82830042B4D
:1026900011D1D2F88C3000218B42C16208DBD2F814
:1026A00090308B4204DDBDE87040FFF719BE70BD6D
:1026B0000548FEF7CDFE0548FEF7CAFEC81100200A
:1026C000741E0020941E0020B87000082C750008AD
:1026D00038B5302383F311881D4CD4F88C30002B8F
:1026E0002FDDD4F8903063BB1A4D2B780122934232
:1026F000C4F890201AD0022B12D11748FFF7A0FF80
:10270000D4F88C30002293422A701DDDD4F890302A
:10271000002B19DD0023C4F8903083F3118838BDF5
:102720000E48FFF78DFFD4F88C30EBE70C4B1B788D
:102730000BB92B70EAE70B48FFF782FFD4F88C3017
:10274000E0E70948FEF784FE0848FEF781FE00BF77
:10275000C8110020C0110020020000010300000188
:10276000C111002001000001C0700008C8700008FD
:1027700010B5D0F88C341C682278042A02D1027A71
:10278000022A00D010BD5979628901238B4013427F
:10279000F8D10E4BD3F88C20002A13DBD3F89030FD
:1027A000002B0FDDD0E907239A4207D020464FF4D3
:1027B0008073BDE810400432FEF742BF8369002BEE
:1027C000F4D010BD0248FEF743FE00BFC811002040
:1027D000B8700008000000000000000000000000C9
:1027E000406BFFF7C5BF00BF000000000000000005
:1027F000093170B550F8214044B3302383F3118878
:10280000384DD5F88C30002B5ADDD5F89030002BA0
:1028100056D1D4F88C240123C5F89030136852792E
:1028200003EB8203DB689B695E6886B92046FFF78D
:102830009FFFD5F88C30002B45DDD5F89030002B6C
:1028400041DD0023C5F8903083F3118870BD042169
:102850006018FFF7C5FDD5F88C30002B3FDBD5F8AD
:102860009030002B3BDDA36A043B9E4234D8D4E970
:10287000073293422DD01E60A16AA269E0680B4422
:10288000616AE3618B4224BF236BE36104F10C03B3
:1028900001328342A261C9D00268E260536090F8BD
:1028A0002830042B12D1D5F88C3000229342C2621A
:1028B00015DBD5F89030934211DDFFF711FDB5E738
:1028C0000948FEF7C5FD0948FEF7C2FD0848FEF7B6
:1028D000BFFDA269002ACED00648FEF7B9FD064822
:1028E000FEF7B6FDC8110020C0700008C8700008CF
:1028F0002C750008B8780008B870000800000000C7
:10290000F8B590F83430044613B1002380F8343021
:1029100004EB81016268CB681B6A19685B68A36479
:1029200061649368002B3AD020469847B8B3E36BB4
:1029300094F84410B4F84A209A423CBFE26313462C
:102940000A0600F1D780002B00F01B81152384F8C4
:102950003430302383F31188B94DD5F88C30002BF7
:1029600040F30C81D5F89060002E40F007810121E2
:10297000D4E90E232046C5F890103146FEF760FEDC
:10298000D5F88C30002B40F3D280D5F89030002B56
:1029900040F3CD80C5F8906086F31188F8BD94F8B7
:1029A000441011F060061CD194F8452001F07F031B
:1029B00043EA022340F20232934200F0548144D8A9
:1029C000B3F5807F00F0668122D9B3F5817F00F0F6
:1029D0007181B3F5407F04D194F84630012B00F0AB
:1029E000ED80626DD2F80039616843F40013C2F8DB
:1029F0000039D2F8003B0D6843F40013C2F8003BE5
:102A000015B106212046A847062384F83430F8BDC6
:102A1000012B4BD0022B3BD194F9480094F848206D
:102A2000002802F00F00B4BF48305830626D4001FA
:102A300010580504D6D580024CBF82488248022235
:102A4000C4E90E020022226474E7B3F5006F00F0BF
:102A5000038132D9B3F5106F24D12378042B00F011
:102A6000B880774F94F846304BB1626884F84F30A5
:102A700004212170136813B10221204698470023D6
:102A8000C4E90E3394F8441023640B067AD552E05F
:102A9000002BA6D1022204F14C002364C4E90E02EB
:102AA000134647E740F6024293429AD16748022311
:102AB0000022C4E90E0322643CE7B3F5A06F00F0E6
:102AC000B380A3F5C063012B8BD86268B4F848309B
:102AD000556894F8471094F846202046A8470028E7
:102AE0003FF47FAFD0E9003294F844102664C4E983
:102AF0000E231FE7F3B1092384F83430302383F326
:102B000011884F4DD5F88C30002B37DDD5F890600B
:102B1000A6BB0121D4E90E232046C5F8901031460A
:102B2000FEF7BEFDD5F88C30002B3FF72EAF48489E
:102B3000FEF78EFC424F142384F83430302383F3A5
:102B40001188D7F88C30002B18DDD7F89050ADB92C
:102B500001222B46C7F8902020462A462946FEF738
:102B60006FFDD7F88C30002BE1DDD7F89030002BCB
:102B7000DDDDC7F8905085F31188F8BD3548FEF7C4
:102B800067FC2F4F0B2384F83430302383F31188F4
:102B9000D7F88C30002BF1DDD7F89050002DEDD117
:102BA00001222B46C7F8902020462A462946FEF7E8
:102BB00077FDD7F88C30002BD7DCB8E7B4F84C3071
:102BC0001F4F266443F00203C4E90E66A4F84C309C
:102BD0005BE7302383F31188194FD7F88C30002B33
:102BE000CCDDD7F89030002BC8D101232046C7F8A0
:102BF0009030FEF7F5FCD7F88C30002B97DDD7F836
:102C00009030002B93DD0023C7F8903083F31188B8
:102C10000321626884F84F3021701368002B3FF461
:102C200021AF204698471DE7B4F84430B3F5A06FB4
:102C300057D00023C4E90E33014F236425E700BFBA
:102C4000C8110020B8790008E47800088C7B0008DF
:102C5000C8700008C0700008012304F14F02C4E9E5
:102C60000E23266466E694F84630002B7FF4B9AE56
:102C700094F8483013F00F02DBD013F0800F636D2F
:102C800003EB421345D1D3F8002B42F40012C3F8F2
:102C9000002BCEE794F84630012B7FF4A2AEB4F8B7
:102CA0004C30234F266423F00203C4E90E66A4F8D7
:102CB0004C30EAE694F84630002B7FF492AE94F85C
:102CC000483013F00F02B4D013F0800F636D03EBA4
:102CD000421325D1D3F8002B22F40012C3F8002BA5
:102CE000A7E794F84600626D84F84E00D2F80038E9
:102CF00023F4FE6343EA00136068C2F800380368F7
:102D000023B101212046984794F8441003232370EF
:102D10008FE7D3F8002942F40012C3F8002988E7AE
:102D2000D3F8002922F40012C3F8002981E700BF7C
:102D3000C81100200000000000000000000000009A
:102D4000F8B5694BD3F88C40002CC0F2A280D3F8C0
:102D50009030002B40F39D80002800F081800378A4
:102D6000042B7DD100EB81040DB2E368002B77D1F9
:102D70005669E2601EB133607360B360F3609369BB
:102D800023B100221A605A609A60DA60E368426DEB
:102D90001C689F6904F00304661E022E98BFA404F9
:102DA00002EB41164FF0000C98BF04F18054C6F8B6
:102DB00010CB8CBF4D4C04F500444FEA411C002F52
:102DC00051D05F8A01F1580676012743975101F1EE
:102DD0001006D2F81C785FFA86FE012606FA0EF677
:102DE0003E43C2F81C6802EB0C065F694FF0000C12
:102DF000C6F810C9002F4FD09D8BB3F810C0C66D18
:102E00004FEA9C03012D88BF6B43856D6F681D04DD
:102E10003344BB42C36563D801F13F0302EB830334
:102E200035435D608B0143F02003136113699806FD
:102E3000FCD42F48456843685B1B112BFBD901F17B
:102E400048034CEA815C5B014CEA0404D450012342
:102E5000D2F81C0803FA01F10143C2F81C18F8BDAE
:102E60002448FEF7F5FA02EB451601F110075FFA68
:102E700087FED6F8007B27F40047C6F8007BD2F81F
:102E80001C68012707FA0EF726EA0706C2F81C6835
:102E9000A9E71948FEF7DCFA01F13F0302EB8303CF
:102EA000164858608B0143F02003136113699B0699
:102EB000FCD40F48446843681B1B112BFBD902EB61
:102EC00045150123D5F8000920F40040C5F8000994
:102ED0008B40D2F81C1821EA0301C2F81C18F8BD77
:102EE0000748FEF7B5FA00BFC811002000800010A7
:102EF000001000E068780008B870000800040002C4
:102F0000DC74000800000000000000000000000069
:102F1000F0B583B005291ED8DFE801F01F1D031F9F
:102F20001F4E302383F31188574CD4F88C30002B7C
:102F300065DDD4F89050002D61D10127C4F8907060
:102F40000378042B5ED0032B00F097800023C4F895
:102F5000903083F3118803B0F0BD302383F31188E0
:102F6000494CD4F88C30002B49DDD4F89030002B3C
:102F700045D1464D2B7D0122C4F890201BB195F818
:102F80004C30002BE2D142480221FFF729FA0126FA
:102F900040482E75FFF724FB3F4885F84C60FFF74B
:102FA0001FFBD4F88C30002B03DDD4F89030002BBD
:102FB000CCDC3A48FEF74CFA302383F31188324CCC
:102FC000D4F88C30002B1ADDD4F89050BDB92F4EB8
:102FD0000121301DC4F89010FFF702FAD4F88C30AC
:102FE0003575002B86F84C50E3DDD4F89030002B7B
:102FF000DFDDC4F8905085F3118803B0F0BD284898
:10300000FEF726FA274A01903946FFF799FE264A2D
:1030100001980221FFF794FED4F88C30002B2FDBAF
:10302000D4F89030002B2BDD184E336BB561C6E918
:103030000733C6E90D5506F10C00FFF7D1FAD4F8B5
:103040008C303575002B1BDBD4F89030002B17DD4E
:10305000736E3365B36E06F14400C6E91533C6E9F5
:103060001B55FFF7BDFA301D394686F84C50FFF767
:10307000B7F93046FFF77CFB93E7FEF7B1FA90E72C
:103080000A48FEF7E5F900BFC8110020500C0020E7
:10309000540C00205C0C0020940C0020C870000828
:1030A000C07000086479000888790008B8700008CA
:1030B0002DE9F843D0E90245AC4206460F465CD004
:1030C000D0E900E1234600201EF803C00CF1010CFA
:1030D00063449942D8BF5B1AAB4200F10100F3D1BF
:1030E000012A42D0D6F810E070455CDBAC425DD0DE
:1030F000431E9E455DD0D6E900984FF0000C01E0DC
:103100008E4519D019F8043001331C44A0450CF148
:10311000010CD8BFA4EB08046FEA0C01AC420144D7
:10312000EED119F8054064B9012A3CD10EF1010332
:1031300033612046BDE8F883254619F80540002C88
:10314000F2D00EF101033361402200213846FDF731
:1031500047FA736862199A4213DA316801352246D8
:1031600029443846FDF7A2F9E3E73369002B06DD71
:10317000A3F1020EC6F810E0B6E70020B0E7002485
:10318000D7E75B1B316803F1FF380135294442461C
:103190003846FDF78BF93168A4EB080207EB08000D
:1031A000FDF784F9C5E74FF0FF34C2E7D6F8009089
:1031B000B7E7D6F800902546B3E700BF000000004F
:1031C00038B5264BD3F88C20002A3DD1D3F8902077
:1031D000002A39DD5A68916801293BD1DC689442A4
:1031E00035D0A2699A4232D1156884F828002B683C
:1031F00013605A6085F82810B2F89430D5609B07A8
:103200000ED5EFF30983226A243B9A4205D8214662
:103210002846BDE83840FDF763B81148FEF718F9B5
:1032200094F82830D2F89820E16AD160DB0043F0AE
:10323000020313709560FEF7EBF8EFF30983226A3F
:10324000243B9A42E3D9E8E70648FEF701F906482D
:10325000FEF7FEF80548FEF7FBF800BFC811002096
:10326000D8700008B0700008EC760008EC74000814
:1032700070B51B4CD4F88C2086B052BBD4F890604B
:10328000002E26DD4D1CE6681BD0F9B1154B0393CB
:1032900005466846CDE90462FEF73AFF2846FFF787
:1032A0008FFFD4F88C30002B16DBD4F89030002B35
:1032B00012DD009B13B16846FEF77AFBF06A06B098
:1032C00070BDFFF77DFFF06A06B070BD0648FEF7DF
:1032D000BFF80648FEF7BCF80548FEF7B9F800BF8E
:1032E000C81100204123000840780008B070000891
:1032F000B87000080000000000000000000000009E
:10330000F8B51B4ED6F88C7057BBD6F89030002B12
:1033100004460D460BDC23E062682946C3E90042FF
:10332000042013606360FFF7A3FF00281BDBE36842
:1033300043B9237A83B9F368002DEDD14FF0FF37FD
:103340003846F8BDE36883B163691A6804331A44E8
:10335000C4E90A323846F8BD6FF001073846F8BDB7
:103360000448FEF775F80746EAE70348FEF770F8E9
:10337000C8110020B07000084C7800080000000060
:103380002DE9F04F83B00193002A79D04FF0300837
:1033900088F31188494CD4E923631E4348D105467C
:1033A0000F4692464FF00109A96AC4F8909000298F
:1033B00057D0EA6AAAEB060B521A934528BF9346E8
:1033C000BBF1400F37D93B4601F1400BD1F800C0AB
:1033D00048688A68D1F80CE0C3F80CE01031594510
:1033E000C3F800C058609A6003F11003EED1AA6AD6
:1033F000EB6A4032934207F1400706F14006AA62A9
:1034000025D9D4F88C304BBBD4F89020002A25DD88
:10341000C4F890302368A3422AD1002383F3118893
:10342000564540D288F31188D4E923231343BBD0F7
:103430002348FEF70DF838465A46FDF737F8AA6AD2
:10344000EB6A5A4493425E445F44AA62D9D8284644
:10345000FEF74EF8D4F88C30002BD5D01948FDF784
:10346000F7FF01992846FFF74BFF60B9A96AA0E76B
:10347000E2689B6892689A42CFD21348FDF7E8FF52
:103480001248FDF7E5FFD4F88C30002BE6D1D4F8D4
:103490009020002AE2DD2268C4F89030A24206D1D2
:1034A000002383F31188304603B0BDE8F08FE16854
:1034B00093688A689A42F3D2DFE700BFC811002000
:1034C000D0700008E8700008A0780008B8770008FD
:1034D0004FF0FF330C30FFF753BF00BF0000000078
:1034E0000C30FFF74DBF00BF0000000000000000DF
:1034F000F8B5302383F311881F4CD4E923231343F9
:1035000022D1436B0122054600F10C07C4F890203C
:1035100003B313F8016BAA6B6B63934210D2D4F818
:103520008C30A3B9D4F89020002A10DD2268C4F8AA
:103530009030A24218D1002383F311883046F8BDA1
:103540003846FDF7D5FFEAE70C48FDF781FF0C4848
:10355000FDF77EFF4FF0FF313846FFF7D1FE0646FC
:103560000028DCD16B6BD4E7E16893688A689A42E3
:10357000E1D20448FDF76CFFC8110020D0700008AC
:10358000E8700008A07800080000000000000000BB
:10359000F8B5302383F311881E4CD4E92323134359
:1035A00022D10123C4F89030436B054600F10C078B
:1035B00003B313F8016BAA6B6B63934210D2D4F878
:1035C0008C30A3B9D4F89020002A10DD2268C4F80A
:1035D0009030A24216D1002383F311883046F8BD03
:1035E0003846FDF785FFEAE70B48FDF731FF0B484A
:1035F000FDF72EFF3846FFF783FE06460028DED192
:103600006B6BD6E7E16893688A689A42E3D2044814
:10361000FDF71EFFC8110020D0700008E8700008F8
:10362000A07800080000000000000000000000007A
:10363000F8B51B4ED6F88C7057BBD6F89030002BDF
:1036400004460D460BDC23E062682946C3E90042CC
:10365000042013606360FFF70BFE00281BDBE368A8
:1036600043B9237A83B9F368002DEDD14FF0FF37CA
:103670003846F8BDE36883B12369E1691A1D0B443C
:10368000C4E90A233846F8BD6FF001073846F8BD93
:103690000448FDF7DDFE0746EAE70348FDF7D8FEDC
:1036A000C8110020B0700008AC76000800000000CF
:1036B0002DE9F04F83B00193002A7FD0302787F3A4
:1036C00011884D4CD4E923631E436CD105464FF05D
:1036D0000108A86AC4F890808B469246B14600283B
:1036E00041D0EA6AAAEB0603121A9A4228BF1A4688
:1036F000402A3FD959460BF1400BD1F800C04A6827
:103700008B68D1F80CE0C0F80CE010315945C0F8D6
:1037100000C04260836000F11000EED1AA6AEB6A3B
:10372000403293428B4606F14006AA622FD9D4F864
:103730008C30002B34D1D4F89020002A30DDC4F82E
:1037400090302368A34231D189F31188564548D27D
:1037500087F31188D4E92323134324D1A86AC4F83A
:1037600090800028BDD101992846FFF761FF40BB3A
:10377000A86AB6E75946164493440092FCF796FEB1
:10378000AB6A009A1A44EB6AAA629342CFD8E969FD
:1037900028460439FDF7DCFED4F88C30002BCAD063
:1037A0001648FDF755FE1648FDF752FEE2689B6885
:1037B00092689A42C8D21348FDF74AFE1248FDF7B4
:1037C00047FED4F88C30002BEAD1D4F89020002AA0
:1037D000E6DD2268C4F89030A24206D1002383F3CC
:1037E0001188304603B0BDE8F08FE16893688A68BD
:1037F0009A42F3D2DFE700BFC8110020E87000084A
:10380000D0700008A0780008647400080000000070
:103810004FF0FF334430FFF74BBF00BF0000000004
:103820004430FFF745BF00BF00000000000000006B
:10383000F8B50E46302383F31188294DD5E92313BB
:103840000B4324D1C36E0121044600F14407C5F89F
:10385000901013B31E70D4E91B3201339342E36618
:103860000FD2D5F88C00A8B9D5F89030002B11DD17
:103870002B68C5F89000AB4216D1002383F3118862
:10388000F8BD216E38460439FDF762FEE9E71548B8
:10389000FDF7DEFD1448FDF7DBFD11463846FFF766
:1038A000C7FE48B9E36ED5E7EA689B6892689A421A
:1038B000E3D20E48FDF7CCFDD5F88C30002BE9D1D2
:1038C000D5F89020002AE5DD2A68C5F89030AA4294
:1038D000D3D0E96893688A689A42CED2E9E700BFFC
:1038E000C8110020D0700008E8700008A078000817
:1038F000F8B5302383F31188294DD5E923231343E9
:1039000025D10123C5F89030C36E04460F4600F15F
:10391000440613B31F70D4E91B3201339342E366AC
:103920000FD2D5F88C00A8B9D5F89030002B11DD56
:103930002B68C5F89000AB4217D1002383F31188A0
:10394000F8BD216E30460439FDF702FEE9E715485F
:10395000FDF77EFD1448FDF77BFD4FF0FF3130464B
:10396000FFF766FE48B9E36ED4E7EA689B689268A1
:103970009A42E2D20D48FDF76BFDD5F88C30002B52
:10398000E8D1D5F89020002AE4DD2A68C5F8903007
:10399000AA42D2D0E96893688A689A42CDD2E9E710
:1039A000C8110020D0700008E8700008A078000856
:1039B00010B5302383F31188144CD4E92323134327
:1039C00016D1012301460820C4F89030FFF750FCBF
:1039D000D4F88C307BB9D4F89020002A0BDD226813
:1039E000C4F89030A24209D1002383F3118810BD9E
:1039F0000748FDF72DFD0748FDF72AFDE1689368AC
:103A00008A689A42F0D20448FDF722FDC8110020CE
:103A1000D0700008E8700008787600080000000008
:103A20001C4C1D49E26808B53023D16183F311882D
:103A3000D4F88C3003BB0125D4F89030E3B94FF4AF
:103A4000FA710820C4F89050FFF712FCD4F88C30BB
:103A5000ABB9D4F89020002A11DD2268C4F8903068
:103A6000A2420FD1002383F31188302383F31188FE
:103A7000D4F88C30002BDFD00848FDF7E9FC08486B
:103A8000FDF7E6FCE16893688A689A42EAD2054845
:103A9000FDF7DEFCC8110020F0700008D0700008AF
:103AA000E8700008787600080000000000000000C0
:103AB000334C344A344E2DE98848E368DFF8CCB003
:103AC000DA614FF4005740F6C41A41F28839B8461B
:103AD0009BF80030A6F81A80042B0CBF55464D46C3
:103AE000302383F31188D4E92323134334D10123F2
:103AF00029460820C4F89030FFF7BAFBD4F88C3080
:103B00006BBBD4F89020002A29DDC4F890302368DC
:103B1000A3422FD1002383F311883023378383F30B
:103B20001188D4E92323134316D101232946082001
:103B3000C4F89030FFF79CFBD4F88C307BB9D4F8F4
:103B40009020002A0BDDC4F890302368A34209D1ED
:103B5000002383F31188BBE70D48FDF779FC0D487E
:103B6000FDF776FCE2689B6892689A42F0D20A48B8
:103B7000FDF76EFCE2689B6892689A42CAD2F6E74B
:103B8000C8110020FC70000800080240E01000206E
:103B9000D0700008E8700008787600080000000087
:103BA000174DEC6808B5236BE06204F130069E42C5
:103BB00008D194F82A30B3B10F20FFF701FB114868
:103BC000FDF746FC1A682263D5F88C20002A13DB27
:103BD000D5F89020002A0FDD1846FEF781FB236BF5
:103BE0009E42E6D0EEE794F829309B07E4D1D4E971
:103BF000043213605A60DFE70348FDF729FC00BF79
:103C0000C81100203C760008B870000800000000D1
:103C10003C4BD3F88C2070B5002A70D1D3F890209B
:103C2000002A6CDD04468068DD6820B3AA688368DA
:103C30009A4207D990F828308260062B3ED0072B95
:103C400028D0EBB1234603E09968AA68914202D3D9
:103C50001B689C42F8D15A680620C5E900321560FD
:103C60005D60EC62FFF7ACFAA368AB4244D12B6C09
:103C7000A34241D170BD2B6CC4E902532C6470BDCA
:103C8000D0E90032012180F8281013605A60FEF755
:103C900027FBD7E7D0E90032C66A13605A60334683
:103CA00003E099688268914202D31B689E42F8D172
:103CB0005A68C0E9003210605860C3E7D0E90032AA
:103CC000C66A13605A60334603E09968826891427D
:103CD00002D31B689E42F8D15A68036042601060AC
:103CE0005860B068AA6883689342ABD290F82830D5
:103CF0008260062BA3D1E1E70348FDF7A9FB034847
:103D0000FDF7A6FBC81100205C770008B070000822
:103D100070B5284CD4F88C30002B3CD1D4F89030BE
:103D2000002B38DD23680546E068A342826835D160
:103D30000023EB62AB68934236D9FDF781FE012385
:103D400085F82830B4F89430E5609B0706460ED518
:103D5000EFF30983326A243B9A4205D8314628465C
:103D6000BDE87040FCF7BCBA1348FDF771FB90F852
:103D70002830D4F89820C16AD160DB0043F00203F8
:103D800013709560FDF744FBEFF30983326A243B1F
:103D90009A42E3D9E8E70948FDF75AFB9B689A4243
:103DA000C6D20748FDF754FB2846BDE87040FEF731
:103DB00097BA00BFC8110020D8700008B070000882
:103DC000087600080000000000000000000000006D
:103DD0000EB42DE9F04F86B00FAB53F8046B02938D
:103DE0003546019315F8011B002900F001820446B5
:103DF0004FF000090CE023682046DB68984709F182
:103E000001092E46354615F8011B002900F0D9801E
:103E10002529F0D173782D2B04BFB51C4FF0010C70
:103E20002B7818BF4FF0000C2B2B03BF6B784FF093
:103E3000010E01354FF0000E302B03BF01351F4638
:103E40002B7820272A2B49D16B78DDF804B02E2B54
:103E50005BF8042B05F1020656D0002003F0DF01C9
:103E60004C295FD0A3F14405342D00F2B080DFE887
:103E700015F0DC00AE00AE00AE00AE00DC00AE001F
:103E8000AE00AE00AE00AE004D011201AE00AE00BD
:103E9000AE00AE00B401AE00AE001201AE00AE0046
:103EA000AE00AE00AE00AE00AE00AE00AE00AE00A2
:103EB0006F01DC00AE00AE00AE00AE00DC00AE0074
:103EC000AE00AE00AE00AE004D011201AE00AE007D
:103ED0005001AE00B401AE00AE0012016E1C002B0A
:103EE0006FD0002205E016F8013B01EB4002002BE9
:103EF00067D0A3F13001C9B2092902EB8200F2D9DF
:103F00002E2BDDF804B0A8D13378002B59D02A2B02
:103F100047D173785BF8040B03F0DF014C2906F1FD
:103F200002069FD116F8013B002B4AD0A3F14401B1
:103F300034294CD8DFE811F079004B004B004B00DE
:103F40004B0079004B004B004B004B004B00EA004C
:103F5000AF004B004B004B004B0051014B004B009E
:103F6000AF004B004B004B004B004B004B004B0095
:103F70004B004B004B000C0179004B004B004B00F9
:103F80004B0079004B004B004B004B004B00EA000C
:103F9000AF004B004B00ED004B0051014B004B00BC
:103FA000AF0001360020A3F13001C9B2092900EBAE
:103FB00080053FF653AF16F8013B01EB4500002B9F
:103FC000F1D1484606B0BDE8F04F03B070478DF818
:103FD0000C30013ACDF804B022EAE27ABCF1000FCD
:103FE00004D1002ACAF1000A00F3E48000250DF193
:103FF0000C0B05F10108D84423681BF8011BDB6892
:1040000020469847C345F7D109F10109A944BAF1FF
:10401000000F3FF4F7AE554623683946DB6820466B
:104020009847013DF8D1D144ECE65B4653F8040BC8
:1040300001930028C0F2B680BEF1000F00F0D580D9
:104040002B238DF80C300DF10D0E03AB0EF10B0B85
:104050005D466B49A1FB0081C90801EB810A8846D6
:10406000A0EB4A0130318246C9B2BAF1090F05F816
:10407000011D4046EDDCABEB0500704401E015F896
:10408000011F0EF8011B8645F9D1AEEB0305521B4B
:104090009B46013D2DE04FF010085B4653F8040BA2
:1040A00001930DF1170300E02B468646B0FBF8F0B4
:1040B00008FB10EA0AF130013929C8BF0AF13701BB
:1040C000C9B2C64503F1FF3503F8011CECD20DF16E
:1040D0001700451B184603AB0DF117089E4601E07B
:1040E00010F8011B0EF8011B4045F9D1521B9B46ED
:1040F000013D22EAE27ABCF1000F03D1002ACAF1A5
:10410000000A2EDC002DBFF674AF80E74FF00808E0
:10411000C3E75B4653F804BB0193BBF1000F5FD0CC
:104120009BF8001000284AD100294BD047F6FE70BA
:10413000594601E0C54205D411F8013FABEB01053A
:10414000002BF7D1A1EB0B01521A4D1E2027D0E70F
:104150005BF8043BCDF804B0013A8DF80C30202711
:104160003AE7D0469BF800102D290FD02B290DD00F
:1041700023683946DB68204698471AF1010AF7D1CF
:10418000002DA9EB0809BFF634AF3BE6302FEFD185
:1041900022682046D2680BF1010B09F10109013DAB
:1041A0009047E5E72D238DF80C3040420DF10D0EC0
:1041B00003AB4BE76546D0460DF10C0BD2E709B1D6
:1041C0000138B5D522EAE27ABCF1000F03D1002A0A
:1041D000CAF1000A0EDC202719E74FF00A085CE755
:1041E000DFF820B00028A1D0EAE703AB9E462DE718
:1041F0008946E6E6D04620274FF0FF35B2E700BFFC
:10420000CDCCCCCC04710008000000000000000000
:10421000012903D0034A0449FFF7DABD12680349B4
:10422000FFF7D6BD0C7100081C710008287100084A
:1042300070B50D46B8B10446286012492046FCF717
:1042400089FC215C222904EB000612D00D4930467E
:10425000FCF764FC98B1421C00232A600370337899
:1042600023B1304670BD0C68002CE6D100263046E4
:1042700070BD01363046FCF705FA0028EBD1286006
:10428000EDE700BF307100080000000000000000F2
:104290002DE9F04FDFF8C8A28268DAF80C10D0F8E8
:1042A00000B0A9B0044600230190AE486568C8611B
:1042B0001370CDE910331293A368AB490E9358469F
:1042C000E3680F930995FFF783FDA8495846FFF768
:1042D0007FFDDAF80C3093F8293013F004030293D1
:1042E00065D10DF16009CDF800B0A1490098FFF744
:1042F0006FFD019B00251C682E464F462368012256
:104300009B680DF12B0120469847002845D09DF869
:104310002B101B292AD05EB15B293CD035B1412935
:1043200000F0F680422900F0D68000252E46E5E711
:1043300008291DD07F291BD00D2900F030810929C3
:1043400047D00E2900F0F080102900F01F811F29AE
:10435000D4D90DF19F039F42D0D223682046DB6859
:1043600098479DF82B3007F8013BC7E70126C5E7C2
:104370004F45C3D023680821DB682046984723684F
:104380002021DB682046984723680821DB68204607
:10439000013F9847B2E73546B0E74FF47A70FFF730
:1043A00007FBDAF80C3093F829305B079DD53023F2
:1043B00083F31188DAE923341C4340F02D826D48E1
:1043C00001232146CAF89030FEF70AF82046FFF78D
:1043D000E7FB0DF19F08474590D2674B3E7093E88D
:1043E00003000DF1300B0C908DF8341058464946FF
:1043F000FCF722FD019B58455A681B69039300F0A6
:104400007681191D05919B465C4B049218464946DE
:10441000FCF712FD594B049A98425B4608BF43F8DB
:10442000040BC2B1D2F800B0BBF1000F13D004945A
:1044300006955C4615469B4620464946FCF7FCFC23
:10444000844208BF4BF8044B55F8084F002CF3D1B9
:10445000049C069D5B46029A1A60039BD3F800B049
:10446000BBF1000F3FF44AAF5B68A7EB0901049171
:10447000002B00F085819BF800C0BCF1000F00F01C
:10448000FC81CDE90646089564465E46049DDDF84C
:104490000CC0DDF814B0BE4600201A5CA24208BF72
:1044A0005A4605D13BB152F8043F195CA142F9D0FC
:1044B000002B40F02781C64505D28542DCBF0EF8AF
:1044C000014BDCF800600130345C002C00F04F81BF
:1044D000DCF80430E1E7012249460EA8FEF7E8FDCA
:1044E00000281ED18DF8600010235222244909EBC8
:1044F00000072046FFF76CFC22492046FFF768FCC6
:10450000002521494A462046FFF762FC2E46F5E683
:10451000002249460EA8FEF7CBFD00287FF705AF25
:10452000E2E7FFF602AFDFE7012249460EA8FEF7F9
:10453000BFFD002840F0D8808DF860601023522223
:104540000F4909EB00072046FFF742FC0D492046C2
:10455000FFF73EFC0C494A462046FFF739FCCDE602
:10456000C811002034710008D47100083C710008A3
:1045700050710008BC1E00209C7100087871000872
:104580006471000870710008747100083246494671
:104590000EA8FEF78DFD00287FF7B0AECEE7A64946
:1045A0002046FFF715FC0F99A7EB09044B1E9C4210
:1045B0004ADA631E09EB030219F8030020280AD126
:1045C000002C03DC40E0002B3ED0013B12F8010D33
:1045D00020281C46F7D0002C36DD119E0E98109B2B
:1045E0000BE0F21A01328A1AA2420CDCC25C1344BC
:1045F00001339942D8BF5B1A10939E42F1DA9A1B9D
:10460000013AA242F2DD891B4D1E0136A54230441B
:1046100073DC2A464946FBF749FF0E98621B09EBFB
:104620000501FBF743FF119B0E9A0299D454119A8E
:10463000631C13440F9A11939342A8BF9B1A0E9ABE
:10464000A8BF1193D1541291029B3B700BA948460D
:10465000FFF7EEFD0BA90546002013AC0026FFF77F
:10466000E7FD50B1042E38D044F8040B0BA900200C
:104670000136FFF7DDFD0028F4D128AB03EB8603FC
:1046800043F8540C002D3FF48CAE6C492846FCF7DF
:104690006BF8002840F0A580002E40F0C080009C00
:1046A00067492046FFF794FB664A67492046FFF7B3
:1046B0008FFB099B63B1099C22684AB1624D009E41
:1046C00029463046FFF784FB54F8082F002AF7D11B
:1046D00059490098FFF77CFB63E65C490098FFF7B7
:1046E00077FB029B17935CE6FFF608AE26E7039B79
:1046F0001860043305939B4686E622464946FBF73D
:10470000D5FE90E7DDE90646089D09EB000B029B0C
:104710008BF8003000283FF4F1AD039B019A5B68F1
:10472000D2F80080002B55D043494046FFF750FB9C
:10473000039B1A6862B10394454F059C00E0043462
:1047400039464046FFF744FB2268002AF7D1039C14
:1047500039494046FFF73CFB3E494046FFF738FBEE
:104760003D494A464046FFF733FB5F46C6E5A4464F
:10477000DDE90765069C09F800C009EB000BCCE7F2
:104780005846CDF810B0FCF75BF909EB000B5F451C
:10479000014675D2A7EB0903DDE903E2A3EB070CA1
:1047A00004903B4603E04345B1D0DEF8002003EB24
:1047B0000C01525C03F8012B5B45F4D1434504998D
:1047C000A5D2013120221A70029B09F8013009EBB1
:1047D000010BA2E73A4620494046FFF7F9FA5F4647
:1047E0008CE518482946FBF7BFFFF0B1099B002B69
:1047F00038D01868002835D01C4602E054F8080F5D
:1048000080B32946FBF7B0FF0028F7D16368009812
:1048100013AA31469847C4E51048FCF719FE074A29
:104820000F490098FFF7D4FABBE5009813AA314668
:10483000FFF7EEFCB5E500BFD47100089C710008DD
:10484000A471000878710008B47100088471000830
:10485000807100085071000874710008D070000861
:104860001C710008009C07492A462046FFF7B0FA51
:1048700005492046FFF7ACFA93E58DF860C03DE5A9
:104880003B469EE774710008B87100080000000004
:1048900010B50B4984B00446FFF79AFA002211467E
:1048A00001A8FBF7E9FD01AA83B206492046FFF7FC
:1048B0008FFA05490548FFF78BFA04B010BD00BF19
:1048C000C0710008D871000804720008500C002064
:1048D000002970B504462DDD0129134623D0106848
:1048E00000210222FBF7C8FD2E4905462046ADB245
:1048F000FFF76EFA2C492A462046FFF769FAFF2D8A
:1049000009D82A4A2A4915702B4620462A46BDE86E
:104910007040FFF75DBA254B26491A782046BDE85E
:104920007040FFF755BA002218681146FBF7A4FD46
:1049300085B2DFE71D4B20491A78FFF749FA1F4976
:104940002046FFF745FA1E492046FFF741FA1D4968
:104950002046FFF73DFA1C492046FFF739FA1B496C
:104960002046FFF735FA1A492046FFF731FA194970
:104970002046FFF72DFA18492046FFF729FA174974
:104980002046FFF725FA16492046FFF721FA154978
:104990002046FFF71DFA20461349BDE87040FFF797
:1049A00017BA00BF5473000864730008041C002089
:1049B0007C730008A47300080C72000834720008AD
:1049C000587200087C720008B4720008CC720008AB
:1049D000E4720008F47200080473000814730008FD
:1049E00024730008347300084473000800000000BA
:1049F000704700BF00000000000000000000000041
:104A0000704700BF00000000000000000000000030
:104A1000FEE700BF000000000000000000000000F2
:104A2000F8B5154D154F16491648174A05F170048B
:104A300081420DD9043A034652F8046F43F8046BDF
:104A40009942F9D84B1E1B1A23F003030433184470
:104A5000874207D97A1E121A22F00302043200217B
:104A6000FBF7BEFDA54205D0D5E90420D5E9061720
:104A70001035DDE7F8BD00BFBC79000840230020F9
:104A80004023002040230020C87F000800000000D1
:104A900008B5064BD3E923120A4303D10122C3F818
:104AA000902008BD0248FCF7D3FC00BFC8110020CD
:104AB000D0700008000000000000000000000000AE
:104AC00008B5074BD3F88C2032B9D3F890100029E1
:104AD00002DDC3F8902008BD0248FCF7B9FC00BF16
:104AE000C8110020E870000800000000000000006D
:104AF00008B5FFF7E5FF084B1A689A4203D1002377
:104B000083F3118808BDD96893688A689A42F6D2FF
:104B10000248FCF79DFC00BFC81100209C740008EF
:104B200038B5334CB4F8943013F0040545D0302335
:104B300083F31188D4F88C30002B52DBD4F890200A
:104B4000002A4ED10133C4F88C3082F31188294AEF
:104B5000536903F001035361C3B9302181F3118814
:104B6000D4F88C30002B3FDDD4F89020002A3BD1C4
:104B7000013BC4F88C3082F31188B4F8943013F000
:104B800004050AD0BDE83840FCF77ABB1A4A13681E
:104B9000002BE2D050689847DFE781F31188D4F802
:104BA0009830164A9A6004211970FCF731FC85F39D
:104BB0001188BDE83840FCF763BB302383F31188CC
:104BC000D4F898300D4A9A6003211970FCF720FC44
:104BD00085F31188302383F31188D4F88C30002BAF
:104BE000ACDA0748FCF734FC0648FCF731FC00BFA0
:104BF000C8110020003C0140401100204876000808
:104C0000DC730008E47300080000000000000000EE
:104C100038B5334CB4F8943013F0040545D0302344
:104C200083F31188D4F88C30002B52DBD4F8902019
:104C3000002A4ED10133C4F88C3082F31188294AFE
:104C4000536903F002035361C3B9302181F3118822
:104C5000D4F88C30002B3FDDD4F89020002A3BD1D3
:104C6000013BC4F88C3082F31188B4F8943013F00F
:104C700004050AD0BDE83840FCF702BB1A4A936825
:104C8000002BE2D0D0689847DFE781F31188D4F891
:104C90009830164A9A6004211970FCF7B9FB85F325
:104CA0001188BDE83840FCF7EBBA302383F3118854
:104CB000D4F898300D4A9A6003211970FCF7A8FBCC
:104CC00085F31188302383F31188D4F88C30002BBE
:104CD000ACDA0748FCF7BCFB0648FCF7B9FB00BFA1
:104CE000C8110020003C014040110020307600082F
:104CF000DC730008E47300080000000000000000FE
:104D000038B5334CB4F8943013F0040545D0302353
:104D100083F31188D4F88C30002B52DBD4F8902028
:104D2000002A4ED10133C4F88C3082F31188294A0D
:104D3000536903F004035361C3B9302181F311882F
:104D4000D4F88C30002B3FDDD4F89020002A3BD1E2
:104D5000013BC4F88C3082F31188B4F8943013F01E
:104D600004050AD0BDE83840FCF78ABA1A4A13692C
:104D7000002BE2D050699847DFE781F31188D4F81F
:104D80009830164A9A6004211970FCF741FB85F3AC
:104D90001188BDE83840FCF773BA302383F31188DB
:104DA000D4F898300D4A9A6003211970FCF730FB53
:104DB00085F31188302383F31188D4F88C30002BCD
:104DC000ACDA0748FCF744FB0648FCF741FB00BFA0
:104DD000C8110020003C014040110020D878000894
:104DE000DC730008E473000800000000000000000D
:104DF00038B5334CB4F8943013F0040545D0302363
:104E000083F31188D4F88C30002B52DBD4F8902037
:104E1000002A4ED10133C4F88C3082F31188294A1C
:104E2000536903F008035361C3B9302181F311883A
:104E3000D4F88C30002B3FDDD4F89020002A3BD1F1
:104E4000013BC4F88C3082F31188B4F8943013F02D
:104E500004050AD0BDE83840FCF712BA1A4A936933
:104E6000002BE2D0D0699847DFE781F31188D4F8AE
:104E70009830164A9A6004211970FCF7C9FA85F334
:104E80001188BDE83840FCF7FBB9302383F3118863
:104E9000D4F898300D4A9A6003211970FCF7B8FADB
:104EA00085F31188302383F31188D4F88C30002BDC
:104EB000ACDA0748FCF7CCFA0648FCF7C9FA00BFA1
:104EC000C8110020003C014040110020AC780008CF
:104ED000DC730008E473000800000000000000001C
:104EE00038B5334CB4F8943013F0040545D0302372
:104EF00083F31188D4F88C30002B52DBD4F8902047
:104F0000002A4ED10133C4F88C3082F31188294A2B
:104F1000536903F010035361C3B9302181F3118841
:104F2000D4F88C30002B3FDDD4F89020002A3BD100
:104F3000013BC4F88C3082F31188B4F8943013F03C
:104F400004050AD0BDE83840FCF79AB91A4A136A3A
:104F5000002BE2D0506A9847DFE781F31188D4F83C
:104F60009830164A9A6004211970FCF751FA85F3BB
:104F70001188BDE83840FCF783B9302383F31188EA
:104F8000D4F898300D4A9A6003211970FCF740FA62
:104F900085F31188302383F31188D4F88C30002BEB
:104FA000ACDA0748FCF754FA0648FCF751FA00BFA0
:104FB000C8110020003C0140401100207C7800080E
:104FC000DC730008E473000800000000000000002B
:104FD00038B5414CB4F8943013F0040562D0302356
:104FE00083F31188D4F88C30002B6FDBD4F8902039
:104FF000002A6BD10133C4F88C3082F31188374B0F
:105000005D6905F478725A61AB0604D5344A936A37
:105010000BB1D06A9847680604D5314A136B0BB1BF
:10502000506B9847290604D52D4A936B0BB1D06B72
:105030009847EA0504D52A4A136C0BB1506C98477F
:10504000AB0518D4302181F31188D4F88C30002BB3
:105050003FDDD4F89020002A3BD1013BC4F88C30CE
:1050600082F31188B4F8943013F004050AD0BDE837
:105070003840FCF705B91A4A936C002BE2D0D06C8B
:105080009847DFE781F31188D4F89830154A9A6081
:1050900004211970FCF7BCF985F31188BDE838408C
:1050A000FCF7EEB8302383F31188D4F898300D4A1A
:1050B0009A6003211970FCF7ABF985F3118830234E
:1050C00083F31188D4F88C30002B8FDA0648FCF774
:1050D000BFF90648FCF7BCF9C8110020003C0140AC
:1050E0004011002034780008DC730008E4730008E5
:1050F00038B5454CB4F8943013F0040569D030232A
:1051000083F31188D4F88C30002B76DBD4F8902010
:10511000002A72D10133C4F88C3082F311883B4BE2
:105120005D6905F47C425A616A0504D5384A136DFD
:105130000BB1506D98472B0504D5354A936D0BB1D3
:10514000D06D9847E80404D5314A136E0BB1506E08
:105150009847A90404D52E4A936E0BB1D06E984798
:105160006A0404D52A4A136F0BB1506F98472B0479
:1051700018D4302181F31188D4F88C30002B3FDD16
:10518000D4F89020002A3BD1013BC4F88C3082F344
:105190001188B4F8943013F004050AD0BDE8384003
:1051A000FCF76EB81A4A936F002BE2D0D06F984785
:1051B000DFE781F31188D4F89830164A9A60042109
:1051C0001970FCF725F985F31188BDE83840FCF724
:1051D00057B8302383F31188D4F898300D4A9A6079
:1051E00003211970FCF714F985F31188302383F338
:1051F0001188D4F88C30002B88DA0748FCF728F99E
:105200000648FCF725F900BFC8110020003C01400A
:1052100040110020E8770008DC730008E473000800
:1052200038B52B4CB4F8943013F0040536D0302246
:1052300082F31188D4F88C30002B43DBD4F8901023
:1052400000293FD10133C4F88C3081F3118882F3F7
:105250001188D4F88C30002B37DDD4F89010A1BB26
:10526000013BC4F88C3081F31188B4F8943013F00A
:10527000040503D0BDE83840FCF702B882F311887A
:10528000D4F89830134A9A6004211970FCF7C0F8DA
:1052900085F31188BDE83840FBF7F2BF302383F374
:1052A0001188D4F898300B4A9A6003211970FCF7E2
:1052B000AFF885F31188302282F31188D4F88C304E
:1052C000002BBBDA0448FCF7C3F80448FCF7C0F82D
:1052D000C811002094770008DC730008E47300080C
:1052E00070B52C4CB4F8943013F0040538D0302548
:1052F00085F31188D4F88C30002B45DBD4F890204E
:10530000002A41D10133C4F88C3082F31188FCF7B4
:105310002FF885F31188D4F88C30002B37DDD4F8C2
:105320009020A2BB013BC4F88C3082F31188B4F802
:10533000943013F0040603D0BDE87040FBF7A0BF23
:1053400085F31188D4F89830134A9A6004211970B3
:10535000FCF75EF886F31188BDE87040FBF790BF5C
:10536000302383F31188D4F898300B4A9A600321D4
:105370001970FCF74DF885F31188302585F31188F5
:10538000D4F88C30002BB9DA0448FCF761F80448F3
:10539000FCF75EF8C81100202C770008DC730008C9
:1053A000E47300080000000000000000000000009E
:1053B00038B52B4CB4F8943013F0040536D03022B5
:1053C00082F31188D4F88C30002B43DBD4F8901092
:1053D00000293FD10133C4F88C3081F3118882F366
:1053E0001188D4F88C30002B37DDD4F89010A1BB95
:1053F000013BC4F88C3081F31188B4F8943013F079
:10540000040503D0BDE83840FBF73ABF82F31188AA
:10541000D4F89830134A9A6004211970FBF7F8FF0A
:1054200085F31188BDE83840FBF72ABF302383F3AA
:105430001188D4F898300B4A9A6003211970FBF751
:10544000E7FF85F31188302282F31188D4F88C307D
:10545000002BBBDA0448FBF7FBFF0448FBF7F8FF1F
:10546000C8110020D4760008DC730008E47300083B
:1054700070B52C4CB4F8943013F0040538D03025B6
:1054800085F31188D4F88C30002B45DBD4F89020BC
:10549000002A41D10133C4F88C3082F31188FBF724
:1054A00067FF85F31188D4F88C30002B37DDD4F8F2
:1054B0009020A2BB013BC4F88C3082F31188B4F871
:1054C000943013F0040603D0BDE87040FBF7D8BE5B
:1054D00085F31188D4F89830134A9A600421197022
:1054E000FBF796FF86F31188BDE87040FBF7C8BE56
:1054F000302383F31188D4F898300B4A9A60032143
:105500001970FBF785FF85F31188302585F3118825
:10551000D4F88C30002BB9DA0448FBF799FF044823
:10552000FBF796FFC8110020B0750008DC73000877
:10553000E47300080000000000000000000000000C
:105540002DE9F0477A4CB4F8943013F0040535D0C7
:10555000302181F31188D4F88C30002B42DBD4F851
:105560009020002A3ED10133C4F88C3082F3118898
:105570004FF080452B69EA681340DAB2D2439B07AB
:105580002A6132D4302181F31188D4F88C30002B79
:1055900040F39280D4F89020002A40F08D80013BA7
:1055A000C4F88C3082F31188B4F8943013F00405F9
:1055B00000F08580BDE8F047FBF762BE302383F33F
:1055C0001188D4F898305B4A9A6003211970FBF770
:1055D0001FFF85F31188302181F31188D4F88C30B6
:1055E000002BBCDA5448FBF733FF81F31188D4F861
:1055F0008C30002B73DDD4F89080B8F1000F6ED1A1
:105600000123DFF838A1C4F890304FF03009266943
:10561000686AE369B768C21ABA4266D31F44D6E91A
:105620000032E76113605A60C6F800802369534571
:1056300008BFC5F80C80D4F88C30002B52DDD4F8AC
:105640009030002B4EDDC4F8908088F31188D6E9A5
:1056500003313046984789F31188D4F88C30002BF9
:105660003DDDD4F89030002B39D173690122C4F8A4
:105670009020002BCBD0696ACA1B93424BD322697E
:1056800052454ED091688B4209D9B24202D145E0D1
:10569000964243D012685B1A91688B42F8D8B36087
:1056A00091683260CB1A516871600E60C2E9016383
:1056B0004FF0FF33A361A8E72148FBF7C9FE81F350
:1056C0001188D4F898301B4A9A6004211970FBF7AE
:1056D0009FFE85F31188BDE8F047FBF7D1BD19485F
:1056E000FBF7B6FE1848FBF7B3FE564505D03B4422
:1056F000191AE061B160FCF72BF9D4F88C30002B5B
:10570000F0DDD4F89030002BECDD0023C4F89030AD
:1057100083F3118836E70D48FBF79AFE0C48FBF738
:1057200097FE3B445A1A3046FCF7B2FCE5E700BF4F
:10573000C8110020B4740008DC730008D8110020E0
:10574000E4730008C0700008C8700008FC75000809
:10575000F4770008000000000000000000000000D6
:105760002DE9F84FDFF8B882B8F8943013F004044C
:1057700000F05E81302383F31188D8F88C30002B41
:10578000C0F26B81D8F89020002A40F06681013386
:10579000C8F88C3082F31188A24E746D6769A369D2
:1057A0001F4017F48059676140F08E81002F5ADB4B
:1057B0003B0500F11081BD040CD5D4F8083813F076
:1057C000060FE36823F470530CBF43F4105343F403
:1057D000A053E360380704D57368DB680BB19148C8
:1057E0009847F90200F18280BA0200F1C980FB06F5
:1057F00056D43803D4F818480BD5E10300F1D4810E
:10580000A20300F1D781630300F1DA81260300F1DE
:1058100027817D030BD5E00700F1D681A10700F1B8
:10582000D981620700F1DC81230700F1208130215A
:1058300081F31188D8F88C30002B40F3B281D8F86E
:105840009020002A40F0AD81013BC8F88C3082F3F3
:105850001188B8F8943013F0040400F0D180BDE84A
:10586000F84FFBF70DBDD4F8003E9A0705D0D4F8E9
:10587000003E23F00303C4F8003E96F85030337026
:1058800073681A68D4F8043823F00103C4F80438A4
:10589000002A8DD06348052190473B058BD59AE0BF
:1058A000756D2B6A03F4F012B2F5802FC3F30A1161
:1058B00003F00F0300F0DF80B2F5402F99D106EB23
:1058C0008303DB681A6A002993D005F5805500230D
:1058D00048469E0708BF2868072B03F101039CBFB9
:1058E00002F8010B000A9942F3D182E74FF0000C55
:1058F000D6F854A0DFF830B14A486546012207E0E7
:10590000B36D01359B68EDB29D42AC463FF66CAF7E
:105910000AEB4511D1F8003903F44023B3F5802F89
:10592000EED1D1F80039002BEADAD1F8003943F092
:105930009043C1F80039D1F80039002BFBDB716DC1
:105940004FEA8C1C4CF020030B610B699B06FCD4C6
:10595000DBF80410DBF804305B1A112BFAD906EBE4
:1059600085033189DB6802FA05FC9B6821EA0C019A
:105970003181002BC4D0294698472A480122BFE72D
:10598000D6F854A0274800254FF0010B06E0B36D70
:1059900001359B68EDB29D423FF629AF0AEB4512F7
:1059A000D2F8003B03F44023B3F5802FEFD1D2F8B7
:1059B000003B002BEBDA06EB85030BFA05F1DB6805
:1059C000DA68738923EA01037381002ADFD029464C
:1059D00090471448DBE7D6E91501FBF759FD33780A
:1059E00086F850300522736832701B6813B10D4879
:1059F000042198470023BD04B3607FF5EBAEDCE6DD
:105A000081F31188D8F89830084A9A6004211970F7
:105A1000FBF7FEFC84F31188BDE8F84FFBF730BCC0
:105A2000C8110020E0100020001000E0E07600081F
:105A3000302383F31188D8F898306D4A9A60032197
:105A40001970FBF7E5FC84F31188302383F3118888
:105A5000D8F88C30002BBFF695AE6648FBF7F8FC03
:105A60000320FCF72DFA7D037FF5E1AED3E603209A
:105A7000FCF776F9DBE6981C06EB80035B689B6914
:105A8000D3E9002AA2EB0A0C9A68C1B105F580554A
:105A9000AE4600234D4613F0030F08BFDEF800505A
:105AA0009C4503F1010384BF02F8015B2D0A994272
:105AB000F1D106EB800673689B69D3E901A20A4421
:105AC0005144C3E9011294E6022333702023C6E94E
:105AD0000422F264B26186F83420B2602361236943
:105AE00013F02003FBD1444948684A68121A112A6E
:105AF000FBD9B56D0022C4F83428AF684FF001120D
